:100000000C9464030C948C030C948C030C948C035C
:100010000C948C030C948C030C948C030C948C0324
:100020000C948C030C948C030C948C030C948C0314
:100030000C948C030C948C030C948C030C948C0304
:100040000C94AD0B0C948C030C9478110C945211FD
:100050000C948C030C948C030C948C030C948C03E4
:100060000C948C030C948C0300000000003E55514E
:10007000553E3E6B6F6B3E0C1E3C1E0C081C3E1C1E
:10008000081C4A7F4A1C185C7F5C18001C1C1C0062
:100090007F6363637F001C141C007F636B637F308E
:1000A000484D3307062979290620503F020C607F0E
:1000B00005353F2A1C771C2A007F3E1C08081C3E81
:1000C0007F0014227F2214005F005F0006097F0179
:1000D0007F4A55555529606060606054627F625464
:1000E00008047E040808103F100808082A1C0808A5
:1000F0001C2A08081C101010101C3E083E1C303C26
:100100003F3C30061E7E1E06000000000000005F1F
:1001100000000007000700147F147F14242A7F2AA0
:10012000122313086462364956205000000700006D
:10013000001C2241000041221C0014083E08140843
:10014000083E080800A060000008080808080060D1
:1001500060000020100804023E5149453E44427FA1
:10016000404042615149462141454B311814127FAC
:100170001027454545393C4A494930017109050375
:100180003649494936064949291E006C6C00000071
:10019000AC6C000008142241001414141414004123
:1001A00022140802015109063E415D555E7C121180
:1001B000127C7F494949363E414141227F414122DB
:1001C0001C7F494949417F090909013E4149497A52
:1001D0007F0808087F00417F41002040413F017FA8
:1001E000081422417F404040607F020C027F7F0460
:1001F00008107F3E4141413E7F090909063E4151B9
:10020000215E7F09192946464949493103017F0189
:10021000033F4040403F1F2040201F3F403C403FA5
:1002200063140814630708700807615149454300C7
:100230007F41410002040810200041417F00040278
:100240000102044040404040000102040020545498
:1002500054787F48444438384444444838444448F7
:100260007F3854545418087E090102085454583CED
:100270007F0804047800447D40002040443D007F16
:100280001010284400417F40007C047804787C08EA
:1002900004047838444444387C14141408081414B2
:1002A0000C7C7C080404084854545424043F444003
:1002B000203C4040207C1C2040201C3C4038403CDE
:1002C00044281028440C5050503C4464544C440082
:1002D0000836410000007F0000004136080002019E
:1002E0000204027048444870000E110E0000121FF4
:1002F000100000121916000011150B000007041F52
:10030000000017150900000E15090000011D03006B
:10031000000A150A000012150E000004040400FF74
:10032000FFFFFFFF3E000000003E3E0000003E3E9B
:10033000003E003E3E003E3E8080808080C0C0C0C7
:10034000C0C0D0D0D0D0D0D8D8D8D8D8DADADADA7D
:10035000DADBDBDBDBDB40004000406000400040DC
:10036000600070004060007000787C004000407CBD
:10037000007E00407C007E007F1C7741414141416E
:100380004141414141417F001C77415D5D41414117
:100390005D5D5D5D415D5D5D5D417F00221C141C06
:1003A0002200081C08000000770000465D555D3102
:1003B0007C5554554408082A0808001408140008FD
:1003C000142208147F4171311F03057F0503221495
:1003D0007F552202557D0502060909060044445F47
:1003E00044441C141C227F203E613E2020503F02CA
:1003F0000C807C203C40443C047C4400000800000D
:1004000038555455187E08107F010810080402144E
:10041000082214080E060A102020100A060E383092
:1004200028040202042830387E1111117E7F4949C8
:1004300049317F494949367F01010103C07F417F2E
:10044000C07F4949494177087F0877414949493682
:100450007F1008047F7C2112097C7F081422414010
:100460003E01017F7F020C027F7F0808087F3E412A
:1004700041413E7F0101017F7F090909063E41415B
:10048000412201017F0101074848483F0E117F11B9
:100490000E63140814637F40407FC0070808087F7C
:1004A0007F407F407F7F407F40FF017F4848307F13
:1004B0004848307F7F48484830224149493E7F08BC
:1004C0003E413E462919097F20545454783C4A4AFB
:1004D00049317C545454287C0404040CC078447C76
:1004E000C038545454186C107C106C445454542824
:1004F0007C2010087C7C4026107C7C101028444016
:100500003804047C7C0810087C7C1010107C384473
:100510004444387C0404047C7C1414140838444497
:10052000444804047C04040C5050503C1824FC241F
:100530001844281028447C40407CC00C1010107CCB
:100540007C407C407C7C407C40FC047C5050207C87
:100550005050207C7C5050502028445454387C10FB
:10056000384438483414147C00000000240027006C
:100570002A00000000080002010000030407000038
:10058000000000000000010000010200000703005D
:10059000301008000203090000000A0008001000E3
:1005A0009007110005001200000013000000100069
:1005B000B0121100070012008C0013000017290070
:1005C0002200300000003100050532000502350030
:1005D0000602360008043700000038000405390020
:1005E00006023C0006023D000804500000005100D5
:1005F000EF005200000053003F01600000A76100BF
:1006000001009000330007003301010000010200E7
:1006100000070300301008000203090000000A0070
:1006200008001000900711000500120000001300E0
:1006300000001000B0121100070012008C0013001F
:1006400000172900220030000000310005053200AB
:1006500005023500060236000804370000003800A5
:100660000405390006023C0006023D000804500063
:1006700000005100EF005200000053003F016000F5
:1006800000A761000100900033000700330153749C
:100690006172740001020408102040800102040805
:1006A000102001020408102000000000250028008E
:1006B0002B000404040404040404020202020202E3
:1006C000030303030303BE1711241FBECFEFD8E0BB
:1006D000DEBFCDBF11E0A0E0B1E0E0EEF6E302C086
:1006E00005900D92A835B107D9F722E0A8E5B1E051
:1006F00001C01D92A33AB207E1F713E0C4E6D3E0CC
:1007000004C02197FE010E94541BC336D107C9F7CC
:100710000E9478130C946E1B0C9400003FB7F89461
:100720008091590190915A01A0915B01B0915C01B7
:1007300026B5A89B05C02F3F19F00196A11DB11D3C
:100740003FBFBA2FA92F982F8827820F911DA11D77
:10075000B11DBC01CD0142E0660F771F881F991FB4
:100760004A95D1F70895AF92BF92CF92DF92EF9260
:10077000FF920F931F93CF93DF93FC01A38DB48D52
:100780009C9187A189238C93A58DB68D9C9180A582
:1007900089238C938BB183708BB985B18C7F85B99C
:1007A000A78DB0A19C9181A589238C93A78DB0A121
:1007B0009C9185A1892B8C938BB1837080628BB9BE
:1007C00085B18C7F826085B9A78DB0A19C9181A5F0
:1007D00089238C93A78DB0A19C9185A1892B8C93A3
:1007E000A58DB68D9C9184A1892B8C938BB1972F6D
:1007F0009C7FB92E8370892B8BB985B1A72FA370ED
:10080000AA2E8C7F8A2B85B9C78DD0A1988181A50E
:1008100089238883C78DD0A1988185A1892B88835E
:100820008BB1C62FCC7F83708C2B8BB985B1D62F23
:10083000D3708C7F8D2B85B9078D10A1D8019C9129
:1008400081A589238C93078D10A1D8019C9185A146
:10085000892B8C93215031094109510969017A0191
:1008600086E0F694E794D794C7948A95D1F7C601A9
:10087000761348C1019708F465C060E1A78DB0A167
:10088000CC9171A57C237C93A78DB0A1CC9175A14F
:100890007C2B7C93A78DB0A1CC9171A57C237C93FC
:1008A000A78DB0A1CC9175A17C2B7C93A78DB0A115
:1008B000CC9171A57C237C93A78DB0A1CC9175A11F
:1008C0007C2B7C93A78DB0A1CC9171A57C237C93CC
:1008D000A78DB0A1CC9175A17C2B7C93A78DB0A1E5
:1008E000CC9171A57C237C93A78DB0A1CC9175A1EF
:1008F0007C2B7C93A78DB0A1CC9171A57C237C939C
:10090000A78DB0A1CC9175A17C2B7C93A78DB0A1B4
:10091000CC9171A57C237C93A78DB0A1CC9175A1BE
:100920007C2B7C93A78DB0A1CC9171A57C237C936B
:10093000A78DB0A1CC9175A17C2B7C93615009F05F
:100940009DCF98CF2F732150C8F0A78DB0A19C9157
:1009500081A589238C93A78DB0A19C9185A1892B1A
:100960008C93A78DB0A19C9181A589238C93A78D91
:10097000B0A19C9185A1892B8C93E5CFA38DB48DDB
:100980009C9183A1892B8C93DF91CF911F910F9123
:10099000FF90EF90DF90CF90BF90AF9008956BB134
:1009A00063706B296BB965B16C7F6A2965B9078D76
:1009B00010A1D801FC9061A56F216C93078D10A147
:1009C000D801FC9065A16F296C936BB163706C2B9F
:1009D0006BB965B16C7F6D2B65B9078D10A1D8011E
:1009E000FC9061A56F216C93078D10A1D801FC903C
:1009F00065A16F296C936BB163706B296BB965B19D
:100A00006C7F6A2965B9078D10A1D801FC9061A59A
:100A10006F216C93078D10A1D801FC9065A16F29FF
:100A20006C936BB163706C2B6BB965B16C7F6D2B84
:100A300065B9078D10A1D801FC9061A56F216C9359
:100A4000078D10A1D801FC9065A16F296C936BB143
:100A500063706B296BB965B16C7F6A2965B9078DC5
:100A600010A1D801FC9061A56F216C93078D10A196
:100A7000D801FC9065A16F296C936BB163706C2BEE
:100A80006BB965B16C7F6D2B65B9078D10A1D8016D
:100A9000FC9061A56F216C93078D10A1D801FC908B
:100AA00065A16F296C936BB163706B296BB965B1EC
:100AB0006C7F6A2965B9078D10A1D801FC9061A5EA
:100AC0006F216C93078D10A1D801FC9065A16F294F
:100AD0006C936BB163706C2B6BB965B16C7F6D2BD4
:100AE00065B9078D10A1D801FC9061A56F216C93A9
:100AF000078D10A1D801FC9065A16F296C937150EE
:100B000009F04DCF019710F070E149CF2F732150BC
:100B100008F434CF8BB183708B298BB985B18C7F6E
:100B20008A2985B9478D50A1DA019C9181A5892335
:100B30008C93478D50A1DA019C9185A1892B8C93D0
:100B40008BB183708C2B8BB985B18C7F8D2B85B944
:100B5000478D50A1DA019C9181A589238C93478D03
:100B600050A1DA019C9185A1892B8C93D0CF089557
:100B7000FC016370658B84819581268137816130AA
:100B800039F0633029F09187808733872287089571
:100B900031872087938782870895CF93DF93EC0175
:100BA0000E94B805EB8DFC8D90818FA189238083F5
:100BB000DF91CF9108952F923F924F925F926F9263
:100BC0007F928F929F92AF92BF92CF92DF92EF92DD
:100BD000FF920F931F93CF93DF93CDB7DEB76C9740
:100BE0000FB6F894DEBF0FBECDBF9C8F8B8F5B011D
:100BF0001A011F830E833701C982DC0158964D917B
:100C00005C9159974115510509F0E5C018968D91F1
:100C10009C911997681779070CF0CAC11A968D91A3
:100C20009C911B97281639060CF0C2C18C2C912C74
:100C3000FB0136E0C39EE00DF11D1124FB87EA871E
:100C40001E161F060CF0B4C1C40133E0880F991FB3
:100C50003A95E1F79D878C87820D931D181619062A
:100C60000CF0A6C157968C91811103C0203B08F06F
:100C70002F5FAB8DBC8DED91FC9111970284F385B4
:100C8000E02DCD012A8F09952A8DB5E02B9F90018B
:100C90001124F5013596FF87EE87BB82AA822501D4
:100CA000A9014A195B09598B488BC10108969B8B96
:100CB0008A8BE889F989E40DF51DE859FF4F949175
:100CC000988761013D822C82A885A0FF13C0AB8D5F
:100CD000BC8DED91FC91B981B13031F40484F5857E
:100CE000E02D2E813F8116C00684F785E02DEE8031
:100CF000FF801AC0EE81FF816E167F06F1F0AB8D8A
:100D0000BC8DED91FC91B981B13051F40484F5852D
:100D1000E02D9301A601B2018B8D9C8D09950DC02C
:100D20000684F785E02D7301840194014C815D8177
:100D30006A817B818B8D9C8D0995E885E695E88796
:100D4000FFEFCF1ADF0A2C813D81280D391D3D832D
:100D50002C834A895B89C416D50609F0B5CF5FEFAD
:100D6000451A550A8A819B81880D991D9B838A8328
:100D7000AE85BF854A165B0609F09BCFEE81FF81E9
:100D80006E167F0609F4F2C0EB8DFC8DA081B18157
:100D9000F981F13079F4B5016B5F7F4F5096ED9199
:100DA000FC915197830128E030E0A1018B8D9C8D4F
:100DB0000995DCC06A857B85681979091E96ED91D5
:100DC000FC911F9773010C851D859401A1018B8DEA
:100DD0009C8D0995CBC0FA01349694913297659118
:100DE0007491291BCB01B7E02B9F800D911D11241D
:100DF000FA01259134913B8B2A8BFC01459154914A
:100E00005B834A83FC013296C490319654915E878D
:100E1000329614913196D4908981823058F0612EA7
:100E2000012E000C7708AD2D0D2C000CBB0BB987E3
:100E3000A88704C019861886612C712CAB8DBC8DD7
:100E4000ED91FC9111970284F385E02DCD01099578
:100E5000B9818B2E912C689CC001699C900D789C67
:100E6000900D1124FC01EA0DFB1DFD87EC871C820F
:100E7000712C612CE12F110FFF0B95012E0F3F1FDD
:100E80003B872A87AC0CB11CA5014E0F5F1F5F8BFF
:100E90004E8BC1018D0D911DD7FC9A95998F888F2E
:100EA0004E85641608F062C0862D90E0488559850D
:100EB000480F591F489D9001499D300D589D300D98
:100EC0001124D901A20DB31DB98BA88BAA84BB84B0
:100ED0004C845D84DC80BA85DB1AE88DF98DE80FDF
:100EE000F91FFD8BEC8B8D2D8A0D2E893F89A21663
:100EF000B306B9F1877061F48A819B810196EA8912
:100F0000FB89AA81BB81EA0FFB1F74909B838A83B4
:100F100077FE20C0AB8DBC8DED91FC91B981B130D5
:100F200061F40484F585E02D2E813F814C895D8933
:100F3000B5018B8D9C8D09950DC00684F785E02D3C
:100F4000EE80FF808401940148895989B2018B8D1C
:100F50009C8D0995770CEFEFAE1ABE0A480C591C10
:100F6000C2CF3C813C0D3C8363949ACFAB8DBC8D4A
:100F7000ED91FC9111970688F789E02DCD016C96D3
:100F80000FB6F894DEBF0FBECDBFDF91CF911F919A
:100F90000F91FF90EF90DF90CF90BF90AF909F9018
:100FA0008F907F906F905F904F903F902F9009941B
:100FB0006C960FB6F894DEBF0FBECDBFDF91CF9118
:100FC0001F910F91FF90EF90DF90CF90BF90AF9067
:100FD0009F908F907F906F905F904F903F902F9059
:100FE0000895AF92BF92CF92EF92FF920F931F930B
:100FF000CF93DF93EC01262F888D998D009709F010
:1010000040C06A3059F41D861C862C898E859F85C8
:1010100038E0239F800D911D112441C06D3009F4EB
:10102000AAC08E898823C1F03C898C859D8546E0C5
:10103000349F800D911D1124488559854817590703
:101040005CF41D861C868E859F8548E0349F800D4C
:10105000911D11249F878E87EA88FB88088919894A
:101060004E855F856C857D85CC88CE010E94DB0531
:101070002C898C859D8536E0239F800D911D112440
:1010800042C06A3079F41D861C862C89FC01369694
:10109000E4918E859F852E9F800D911D11249F8741
:1010A0008E8769C06D3009F466C0FC0134963491B6
:1010B000631708F460C03196E491E61708F45BC04A
:1010C000FC013296A590B490462F50E0431B510985
:1010D00037E0349FB001359F700D1124A60EB71E66
:1010E000F501329634913196E491332311F0E111F8
:1010F0000DC0F5013496E4912C898C859D85E29F85
:10110000800D911D11249D878C8735C0F501359682
:1011100044915E89552311F16C89E32FF0E0E40FCF
:10112000F11D47FDFA956E9FD0016F9FB00D112400
:101130004C855D854A0F5B1FE885F985E417F50747
:101140006CF41D861C86FC013696E4918E859F8585
:101150006E9F800D911D11249F878E87EA88FB88E2
:10116000088919894E855F856C857D85CC88CE017F
:101170000E94DB05BECF81E090E0DF91CF911F910F
:101180000F91FF90EF90CF90BF90AF9008956F9226
:101190007F928F929F92AF92BF92CF92DF92EF9207
:1011A000FF920F931F93CF93DF93EC014B015A01F2
:1011B00069013801E881F9810284F385E02D099500
:1011C000E881F9810288F389E02D87019601A50164
:1011D000B401CE010995E881F981A501460D571D9D
:1011E000415051090288F389E02D9601B401CE01E6
:1011F0000995E881F9810088F189E02D9301A50125
:10120000B401CE010995E881F981C80CD91CB60159
:10121000615071090088F189E02D9301A501CE018B
:101220000995E881F9810688F789E02DCE01DF91E3
:10123000CF911F910F91FF90EF90DF90CF90BF90D3
:10124000AF909F908F907F906F900994CF92DF9294
:10125000EF92FF920F931F93CF93DF9300D000D0B4
:1012600000D0CDB7DEB76C01DC01ED91FC916217C7
:10127000730789F4041715072CF4942F852FA80100
:10128000092F182F041B150B98012F5F3F4F048C5B
:10129000F58DE02D12C04017510709F526173707C5
:1012A0002CF4962F872FB901292F382F261B370BA7
:1012B0002F5F3F4F068CF78DE02D8701C601099502
:1012C00026960FB6F894DEBF0FBECDBFDF91CF914B
:1012D0001F910F91FF90EF90DF90CF9008950284BF
:1012E000F385E02D2D833E834B835C8369837A8372
:1012F0000995D601ED91FC910488F589E02D2D81A9
:101300003E814B815C8169817A81C6010995D60154
:10131000ED91FC910688F789E02DC60126960FB65F
:10132000F894DEBF0FBECDBFDF91CF911F910F911B
:10133000FF90EF90DF90CF900994EF92FF920F9380
:101340001F93DC01ED91FC9111971A960D911C9160
:101350001B9718962D913C91199700A0F1A1E02DB3
:101360007B0140E050E060E070E009951F910F9133
:10137000FF90EF9008954F925F926F927F928F92BD
:101380009F92AF92BF92CF92DF92EF92FF920F9314
:101390001F93CF93DF9300D0CDB7DEB76C015A0116
:1013A00039014801DC01ED91FC910284F385E02DC7
:1013B00069837A8309956981462E7A81572E640C58
:1013C000751CD601ED91FC91461457046CF400880D
:1013D000F189E02D87019401A501B201C6010995AB
:1013E000BFEF4B1A5B0AEDCF0688F789E02DC601E7
:1013F0000F900F90DF91CF911F910F91FF90EF9081
:10140000DF90CF90BF90AF909F908F907F906F9024
:101410005F904F900994AF92BF92CF92DF92EF927C
:10142000FF920F931F93CF93DF9300D000D0CDB7DF
:10143000DEB75C016901DC01ED91FC910284F3856A
:10144000E02D4B835C8369837A830995D501ED9107
:10145000FC9169817A819B012C0D3D1D2150310940
:101460000488F589E02D78014B815C818A01C501F2
:101470000995D501ED91FC910688F789E02DC5010C
:101480000F900F900F900F90DF91CF911F910F91C0
:10149000FF90EF90DF90CF90BF90AF900994AF9204
:1014A000BF92CF92DF92EF92FF920F931F93CF9351
:1014B000DF9300D000D0CDB7DEB75C016901DC015D
:1014C000ED91FC910284F385E02D4B835C8369836D
:1014D0007A830995D501ED91FC914B815C81C40E15
:1014E000D51EB1E0CB1AD1080488F589E02D78012A
:1014F000860169817A819B01C5010995D501ED912C
:10150000FC910688F789E02DC5010F900F900F9090
:101510000F90DF91CF911F910F91FF90EF90DF908F
:10152000CF90BF90AF9009940895EF92FF920F93E0
:101530001F93DC01ED91FC9100A0F1A1E02D099534
:101540001F910F91FF90EF9008950F931F93DC016F
:10155000ED91FC91068CF78DE02D09951F910F916F
:1015600008950F931F93DC01ED91FC91048CF58D90
:10157000E02D09951F910F910895DC01ED91FC91EB
:101580000084F185E02D099408952F923F924F92A7
:101590005F926F927F928F929F92AF92BF92CF9203
:1015A000DF92EF92FF920F931F93CF93DF9300D0C0
:1015B0001F92CDB7DEB74C017B836A836A01590164
:1015C00017019801241B350B37FF03C03195219576
:1015D0003109C5014A815B81841B950B97FF03C0CC
:1015E00091958195910951E059838217930714F0E1
:1015F00019820BC09A2D8B2D5801092F182F9A8113
:101600008B81DB82CA82C92ED82E8A819B81A81643
:10161000B9065CF49C2D8D2D6801092F182F9A8135
:101620008B81BB82AA82A92EB82E2501AA81BB81FB
:101630004A1A5B0A38016C187D0877FE03C0719462
:1016400061947108720157FE03C0BFEFEB1AFB0AE9
:10165000F594E794C016D1061CF00FEF1FEF1FC0E2
:1016600001E010E01CC0D401ED91FC91B98104842B
:10167000F585E02D9101BB23C1F04A815B81B60164
:10168000C4010995E618F708F7FE04C0C00ED11E84
:10169000E40CF51CEA81FB813196FB83EA834A81E5
:1016A0005B81A416B506FCF604C0A6016A817B81A5
:1016B000E7CF0F900F900F90DF91CF911F910F9177
:1016C000FF90EF90DF90CF90BF90AF909F908F9062
:1016D0007F906F905F904F903F902F900895089566
:1016E00080E090E008958F929F92AF92BF92CF9248
:1016F000DF92EF92FF926B017C010E948E034B01FF
:101700005C01C114D104E104F104F1F00E948E03E4
:10171000DC01CB0188199909AA09BB09883E9340CD
:10172000A105B10570F321E0C21AD108E108F10862
:1017300088EE880E83E0981EA11CB11CC114D10450
:10174000E104F10419F7DDCFFF90EF90DF90CF9027
:10175000BF90AF909F908F9008951F920F920FB6F9
:101760000F9211242F933F938F939F93AF93BF9327
:1017700080915D0190915E01A0915F01B091600147
:101780003091580123E0230F2D3720F40196A11D3D
:10179000B11D05C026E8230F0296A11DB11D20939F
:1017A000580180935D0190935E01A0935F01B09317
:1017B00060018091590190915A01A0915B01B09113
:1017C0005C010196A11DB11D8093590190935A01AE
:1017D000A0935B01B0935C01BF91AF919F918F91FA
:1017E0003F912F910F900FBE0F901F901895FC0105
:1017F000A58DB68D9C9180A589238C938BB1972F55
:101800009C7F8370892B8BB985B173708C7F782B0B
:1018100075B9A78DB0A19C9181A589238C93A78DC3
:10182000B0A19C9185A1892B8C938BB1962F9C7F25
:101830008370892B8BB985B163708C7F682B65B9F8
:10184000A78DB0A19C9181A589238C93A78DB0A170
:101850009C9185A1892B8C93A58DB68D9C9184A19B
:10186000892B8C938BB1952F9C7F8370892B8BB99F
:1018700085B153708C7F582B55B9A78DB0A19C9121
:1018800081A589238C93A78DB0A19C9185A1892BDB
:101890008C938BB1942F9C7F8370892B8BB985B1EE
:1018A00043708C7F482B45B9A78DB0A19C9181A531
:1018B00089238C93A78DB0A19C9185A1892B8C93B2
:1018C0000895EF92FF920F931F93CF93DF93EC0154
:1018D0008A01790177FD4DC057FD4BC088859985F8
:1018E000681779070CF045C08A859B85481759070A
:1018F0000CF03FC0EB8DFC8D90818FA189238083FC
:101900008D89823059F08330B1F08130D1F48FEE7F
:1019100090E0841B950B8B01BC0113C08FEE90E00F
:101920009C01261B370BB9018FE391E09C01241B1E
:10193000350B890106C08FE391E0861B970BBA0136
:101940008C01AB0160E270E0CE010E94F70BA801B0
:1019500061E270E0CE010E94F70BA70162E270E045
:10196000CE010E94F70BEB8DFC8D90818BA1892B12
:101970008083DF91CF911F910F91FF90EF90089599
:101980000F931F93CF93DF93EC018B01EB8DFC8DB5
:1019900090818FA18923808340E050E060E270E075
:1019A000CE010E94F70B4FE351E061E270E0CE01FF
:1019B0000E94F70B20E03CE241E050E0B801CE018C
:1019C000DF91CF911F910F910C94B3038F929F924F
:1019D000AF92BF92CF92DF92EF92FF920F931F933D
:1019E000CF93DF93EC015A014901EB8DFC8D90817F
:1019F0008FA1892380838D89823089F0833021F102
:101A0000813081F58FEE90E09C01201B310B7B0132
:101A10006C01C41AD50A840146015B0113C08FEE24
:101A200090E09C01281939094C01861A970A8FE326
:101A300091E0AC01401B510B8C010A191B09780184
:101A400064015A01B90110C08FE391E09C0128198B
:101A500039097C01E61AF70A6A0148018701B501D4
:101A6000590102C07A016B01AB0160E570E0CE0163
:101A70000E94F70BA40161E570E0CE010E94F70B14
:101A8000A50162E570E0CE010E94F70BA80163E5B5
:101A900070E0CE010E94F70BA60160E270E0CE017B
:101AA0000E94F70BA70161E270E0CE010E94F70BE4
:101AB000EB8DFC8D90818BA1892B8083DF91CF9161
:101AC0001F910F91FF90EF90DF90CF90BF90AF905C
:101AD0009F908F9008958F929F92AF92BF92CF92D6
:101AE000DF92EF92FF920F931F93CF93DF93EC015E
:101AF0004701121613060CF059C0101611060CF00F
:101B000055C0A885B9856A177B070CF04FC0CA84F9
:101B1000DB844C155D050CF049C05B01A20EB31EC1
:101B2000C501019797FD42C07A01E00EF11EF70151
:101B30003197F7FD3BC077FF37C060E070E057FD9D
:101B400002C0780102C040E050E08A179B072CF0E9
:101B5000CD0101975D01A61AB70AEC15FD052CF021
:101B6000F60131977601E41AF50A8F019C01CE0146
:101B70000E94E60C9701D5010E94451B9B01AC0118
:101B8000B401CE010E94B3030A851B8501501109DF
:101B9000288539852150310940E050E060E070E04F
:101BA000CE010E94E60C02C05901C9CFDF91CF914E
:101BB0001F910F91FF90EF90DF90CF90BF90AF906B
:101BC0009F908F900895CF92DF92EF92FF920F93A4
:101BD0001F93CF93DF93EC016801121613060CF0EC
:101BE0003FC077FD3DC08885998568177907C4F5A2
:101BF000EA85FB854E175F079CF57A01E20EF31E1E
:101C000087010150110917FD2BC057FF27C040E085
:101C100050E00E171F0734F08F01015011097F01AA
:101C2000E41AF50A9B01CE010E94E60C9701FF0C15
:101C3000440B550BB601CE010E94B3030A851B85E8
:101C400001501109288539852150310940E050E0C3
:101C500060E070E0CE010E94E60C02C07901D9CFAD
:101C6000DF91CF911F910F91FF90EF90DF90CF9078
:101C70000895CF92DF92EF92FF920F931F93CF932D
:101C8000DF93EC01680112161306F4F557FD3CC012
:101C90008A859B8548175907BCF5E885F9856E1735
:101CA0007F0794F57B01E20EF31EC701019797FDB4
:101CB0002BC077FF27C060E070E08E179F072CF0E5
:101CC000CF0101977F01E61AF70A8A019C01CE0134
:101CD0000E94E60C9701FF0C440B550BB601CE0198
:101CE0000E94B3030A851B85015011092885398597
:101CF0002150310940E050E060E070E0CE010E94E8
:101D0000E60C02C07901D9CFDF91CF911F910F91DD
:101D1000FF90EF90DF90CF9008952F923F924F92D7
:101D20005F926F927F928F929F92AF92BF92CF926B
:101D3000DF92EF92FF920F931F93CF93DF93CDB774
:101D4000DEB728970FB6F894DEBF0FBECDBF5C019B
:101D50003B014A0138872F83FC82EB8281E090E0CF
:101D60002C01421A530AC9019195819591099C0150
:101D7000220F331F3A832983170133E0230E311CCE
:101D8000EE24E394F12C802F81708D8302700E83FA
:101D9000C7010197EF81F8858E179F070CF078C077
:101DA00057FC0CC0AF81B8851197B887AF83E98124
:101DB000FA813296FA83E9834E0E5F1EC701880FBF
:101DC000991F0196480E591EFD81FF2359F1D50137
:101DD000ED91FC912F813885220F331F2F5F3F4FEC
:101DE0008B819C81280F391F0088F189E02D8601A5
:101DF000A401AF81B8854A1B5B0BB701660D771D47
:101E0000C5010995D501ED91FC910088F189E02D7E
:101E10009101A4014E195F096F817885660D771DC8
:101E2000C5010995BE81BB2361F1D501ED91FC91FE
:101E30002F813885220F331F2F5F3F4F8B819C816D
:101E4000280F391F0088F189E02D8601A401AF8198
:101E5000B8854A1B5B0BB3016E197F09C501099553
:101E6000D501ED91FC910088F189E02D9101A4014B
:101E70004E195F09B3018F819885681B790BC501E5
:101E800009959FEFE91AF90AA2E02A0E311C80CFCA
:101E900028960FB6F894DEBF0FBECDBFDF91CF916D
:101EA0001F910F91FF90EF90DF90CF90BF90AF9078
:101EB0009F908F907F906F905F904F903F902F906A
:101EC00008952F923F924F925F926F927F928F92DE
:101ED0009F92AF92BF92CF92DF92EF92FF920F93B9
:101EE0001F93CF93DF9300D000D000D0CDB7DEB7E3
:101EF0009E838D834B013A016901802F21E030E000
:101F000029014C185D08222433242C183D08220C8A
:101F1000331CAA24A394B12C01E010E0982F9470F4
:101F20009983A82FA270AA83B82FB870BB83817041
:101F30008C83C50101978C159D050CF0A6C057FC3C
:101F400008C0E1E0CE1AD108F2E02F0E311C420C9D
:101F5000531C0E5F1F4F400E511E8981882311F1C3
:101F6000AD81BE81ED91FC9111970484F585E02D42
:101F70009701A3014C0D5D1DB501680D791DCD01C3
:101F80000995AD81BE81ED91FC9111970484F58591
:101F9000E02D9701A501460D571DB4016C0D7D1D67
:101FA000CD010995BA81BB2311F1AD81BE81ED91BF
:101FB000FC9111970484F585E02D9701A3014C193C
:101FC0005D09B501680D791DCD010995AD81BE8111
:101FD000ED91FC9111970484F585E02D9701A30103
:101FE0004A195B09B4016C0D7D1DCD010995BB81BA
:101FF000BB2311F1AD81BE81ED91FC911197048459
:10200000F585E02D9701A501460D571DB4016C190A
:102010007D09CD010995AD81BE81ED91FC911197AE
:102020000484F585E02D9701A3014C0D5D1DB401DD
:102030006A197B09CD010995BC81BB2311F1AD81E2
:10204000BE81ED91FC9111970484F585E02D9701F7
:10205000A3014A195B09B4016C197D09CD010995E9
:10206000AD81BE81ED91FC9111970484F585E02D41
:102070009701A3014C195D09B4016A197B09CD01CF
:102080000995BFEFAB1ABB0A54CF26960FB6F8944A
:10209000DEBF0FBECDBFDF91CF911F910F91FF909B
:1020A000EF90DF90CF90BF90AF909F908F907F90F8
:1020B0006F905F904F903F902F900895FC01538D4B
:1020C000448D252F30E0842F90E0821B930B541712
:1020D00010F0CF96089501970895FC01918D828D9F
:1020E000981761F0828DDF01A80FB11D5D968C916C
:1020F000928D9F5F9F73928F90E008958FEF9FEF77
:102100000895FC01918D828D981731F0828DE80F32
:10211000F11D858D90E008958FEF9FEF0895FC01EC
:10212000918D228D892F90E0805C9F4F821B9109B9
:102130008F739927089581E691E00E948F1021E026
:10214000892B09F420E0822F0895FC01848DDF01A2
:10215000A80FB11DA35ABF4F2C91848D90E001961A
:102160008F739927848FA689B7892C93A089B18909
:102170008C9180648C93938D848D981306C0028813
:10218000F389E02D80818F7D80830895EF92FF9207
:102190000F931F93CF93DF93EC0181E0888F9B8D8A
:1021A0008C8D981305C0E889F989808185FD24C04C
:1021B000F62E0B8D10E00F5F1F4F0F731127E02ECF
:1021C0008C8DE8120CC00FB607FCFACFE889F989AC
:1021D000808185FFF5CFCE010E94A510F1CF8B8DB8
:1021E000FE01E80FF11DE35AFF4FF0820B8FEA89E1
:1021F000FB898081806207C0EE89FF896083E8895E
:10220000F98980818064808381E090E0DF91CF91C3
:102210001F910F91FF90EF900895CF93DF93EC0102
:10222000888D8823C9F0EA89FB89808185FD05C0F6
:10223000A889B9898C9186FD0FC00FB607FCF5CF30
:10224000808185FFF2CFA889B9898C9185FFEDCF78
:10225000CE010E94A510E7CFDF91CF91089580E0D5
:1022600090E0892B29F00E949B1081110C940000B2
:1022700008958E3008F08E508770806480937C00C3
:1022800080917A00806480937A0080917A0086FD44
:10229000FCCF809178002091790090E0922B0895F6
:1022A0000E945A1B1F920F920FB60F9211242F9368
:1022B0003F934F935F936F937F938F939F93AF93CE
:1022C000BF93EF93FF9381E691E00E94A510FF91E9
:1022D000EF91BF91AF919F918F917F916F915F919E
:1022E0004F913F912F910F900FBE0F901F90189517
:1022F0001F920F920FB60F9211242F938F939F93DB
:10230000EF93FF93E0917101F09172018081E09170
:102310007701F091780182FD12C0908180917A015D
:102320008F5F8F7320917B01821751F0E0917A01CA
:10233000F0E0EF59FE4F958F80937A0101C08081C4
:10234000FF91EF919F918F912F910F900FBE0F9062
:102350001F90189590E0FC01EE58FA4F3491FC0163
:10236000EC56F94F2491FC01EE54F94FE491EE2321
:1023700009F43BC0332339F1333091F038F4313074
:10238000A9F0323001F584B58F7D12C0373091F05D
:102390003830A1F03430B9F4809180008F7D03C0D3
:1023A000809180008F77809380000DC084B58F77F7
:1023B00084BD09C08091B0008F7703C08091B000C8
:1023C0008F7D8093B000F0E0EE0FFF1FE855F94FCE
:1023D000A591B4918FB7F894EC91611103C0209549
:1023E0002E2301C02E2B2C938FBF0895CF93DF9304
:1023F00090E0FC01EC56F94F2491FC01EE54F94FAA
:102400008491882361F190E0880F991FFC01E859BD
:10241000FA4FC591D491FC01E855F94FA591B491BB
:10242000611109C09FB7F894888120958223888321
:10243000EC912E230BC0623061F49FB7F894388181
:10244000822F809583238883EC912E2B2C939FBF22
:1024500006C08FB7F894E8812E2B28838FBFDF91B9
:10246000CF910895CF92DF92EF92FF920F931F9337
:10247000CF93DF936C017A018B01C0E0D0E0CE15E1
:10248000DF0589F0D8016D918D01D601ED91FC91A8
:102490000190F081E02DC6010995892B11F47E0190
:1024A00002C02196ECCFC701DF91CF911F910F9110
:1024B000FF90EF90DF90CF900895E1E6F1E0A089E2
:1024C000B18982E08C93A485B5851C92A685B785D9
:1024D0008FEC8C93108EA489B58986E08C93A289A9
:1024E000B3898C9180618C93A289B3898C91886027
:1024F0008C93A289B3898C9180688C930288F3892C
:10250000E02D80818F7D808308958F929F92AF927E
:10251000BF92CF92DF92EF92FF920F931F93CF93D0
:10252000DF935C014B01EA0169019A01220F331F1D
:102530002F5F3F4FAB014C1B5D0B8601B50183E65E
:1025400092E00E94B10AE12CF12C03E09E01A4016B
:10255000B50183E692E00E948D0EDF91CF911F912D
:102560000F91FF90EF90DF90CF90BF90AF909F9032
:102570008F900895E0917E02F0917F02908180918A
:102580008602892B8083E0918202F0918302908100
:1025900080918802892B8083E0918402F0918502EA
:1025A000908180918902892B808380918E0288237B
:1025B00071F060E00E94AA1162E070E080E090E0BB
:1025C0000E94730B61E080918E020E94AA11E0913B
:1025D0007E02F0917F02908180918A02892380831C
:1025E000E0918002F0918102908180918B02892399
:1025F00080838BB183708BB985B18C7F85B9E09175
:102600008202F0918302908180918C0289238083E1
:10261000E0918202F0918302908180918802892B5F
:10262000808383E0E0918202F09183022081909187
:102630008C0292239083E0918202F09183022081A8
:1026400090918802922B9083815061F7E0917E02F5
:10265000F0917F02908180918602892B808308957A
:10266000CF92DF92EF92FF920F931F932FB7F894C0
:10267000C0905D01D0905E01E0905F01F09060013C
:102680002FBFDC01CB018C0D9D1DAE1DBF1D4FB7B3
:10269000F89400915D0110915E0120915F013091ED
:1026A00060014FBF0C151D052E053F0528F0801752
:1026B0009107A207B30758F71F910F91FF90EF9072
:1026C000DF90CF9008956115710579F0FB010190BD
:1026D0000020E9F73197AF01461B570BDC01ED9164
:1026E000FC910280F381E02D099480E090E0089550
:1026F000CF93DF93CDB7DEB728970FB6F894DEBF40
:102700000FBECDBF789484B5826084BD84B58160EE
:1027100084BD85B5826085BD85B5816085BD8091AC
:102720006E00816080936E00109281008091810024
:10273000826080938100809181008160809381001C
:10274000809180008160809380008091B1008460DE
:102750008093B1008091B00081608093B00080913F
:102760007A00846080937A0080917A0082608093FE
:102770007A0080917A00816080937A0080917A005B
:10278000806880937A001092C100109242021092E9
:1027900043021092440210924502109200021092DD
:1027A0000102109202021092030268EB7BE080E0CB
:1027B00090E00E94301381E691E090934102809373
:1027C00040020E945D122FB7F89480915D019091B4
:1027D0005E01A0915F01B09160012FBF8093000264
:1027E00090930102A0930202B09303026EE371E0A2
:1027F00080914002909141020E9463136AE070E070
:1028000080E090E00E94301381E0809314020E94E7
:102810005D1261E08AE00E94AA1161E08AE00E94F4
:10282000F61160E08AE00E94AA118BE99FE001970F
:10283000F1F761E08AE00E94AA110E94BA120E9498
:10284000BA12E0917E02F0917F02908180918A021B
:102850008923808306E815E0F80165917491F801F9
:102860003296459154916F3F710531F4BA0180E081
:1028700090E00E94730B04C083E692E00E94F70B85
:102880000C5F1F4F26E00E38120731F76091780277
:1028900083E692E00E94CD050FE311E02FEE30E0D9
:1028A00040E050E060E070E083E692E00E94E60CD9
:1028B00061E083E692E00E94CD0560E070E083E68F
:1028C00092E00E94C00C60E070E083E692E00E941B
:1028D000C00C7FE1E72EF12C08EC10E020E431E0A1
:1028E00040E050E060E070E083E692E00E94C708BC
:1028F0008FEF9FEF9093760280937502909374020E
:102900008093730282E0809377021092700210929B
:102910006F0210927202109271020EE816E0F80136
:102920006491611177C142E050E06DE471E083E6AB
:1029300092E00E94321287EE9FEF909349028093BB
:10294000480284EB90E090934B0280934A0282E32A
:1029500090E090934D0280934C0288E290E0909337
:102960004F0280934E028FEF9FEF9093520280931D
:10297000510280EE97E09093540280935302E0EE70
:102980006E2E77247A94709256026092550282E0FD
:102990008093500283E692E0909347028093460230
:1029A00049E050E060E571E087E592E00E945F1B3E
:1029B000E0916302F09164020284F385E02D83E6E6
:1029C00092E00995E0916302F09164020684F78534
:1029D000E02DA0EEEA2EA7E0FA2E08E210E02EE1AC
:1029E00030E044EB50E061EF7FEF83E692E0099541
:1029F000B0EECB2EB7E0DB2E13E1E12EF12C01E09F
:102A00002AE030E04EEB50E06EE070E083E692E0CA
:102A10000E948D0E02E02AE030E04EEB50E061EFC4
:102A20007FEF83E692E00E948D0EE0916302F091C9
:102A300064020688F789E02D83E692E009954090CC
:102A40004E0250904F0220904C0230904D02C090A8
:102A50004A02D0904B02E0904802F0904902209147
:102A600046023091470238872F83D901ED91FC91BE
:102A70000284F385E02DC90109954101B4E18B1A67
:102A800091085701EAE0AE0EB11CAF81B885ED9117
:102A9000FC9111970288F389E02D0FEF1FEF94014D
:102AA000A601B501CD010995F601E40DF51DFA83E6
:102AB000E983AF81B885ED91FC91119749815A81E5
:102AC000415051090288F389E02D9401B501CD01EF
:102AD00009954201B4E18B1A9108EAE0CE0ED11CAF
:102AE000AF81B885ED91FC9111970088F189E02DB7
:102AF0009401A601B701CD0109952E0C3F1CAF81B1
:102B0000B885ED91FC911197B10161507109008870
:102B1000F189E02D9401A601CD010995EE24EA94F6
:102B2000FE2C01E02AE030E0A601B5018F819885F6
:102B30000E94610FBBE02B1A310802E02AE030E06E
:102B4000A601B1018F8198850E94610FC980DA804A
:102B5000EBE0CE1AD10804E02AE030E0A601B10192
:102B60008F8198850E94610F08E02AE030E0A6017D
:102B7000B5018F8198850E94610FAF81B885ED9175
:102B8000FC9111970688F789E02DCD010995809178
:102B9000500220914E0230914F0236952795409178
:102BA0004A0250914B02240F351FB4E08B9F20192D
:102BB00031091124A7E5B2E00D900020E9F7A855EE
:102BC000B240E0914602F091470240914C02509190
:102BD0004D02569547956091480270914902460F03
:102BE000571F93E0899F800111240A9FB0010B9F1A
:102BF000700D1A9F700D1124461B570B5587448783
:102C000037872687738A628A718A608A811112C027
:102C100081E010C0E0916302F09164020190F081C4
:102C2000E02D83E692E009950F5F1F4F892B09F095
:102C300076CE79CE848B67E572E0CF010E94631374
:102C400071EB872E7CEF972EAA24AA94BA2C609160
:102C5000940270E0FB01EE54F94F049180919102CF
:102C6000A82FB0E0FD01EE54F94F1491409193026A
:102C700050E0FA01EE54F94FD4902091920230E0E6
:102C8000F901EE54F94F2490FB01EC56F94FF49002
:102C9000FD01EC56F94FE490FA01EC56F94FC4905F
:102CA000F901EC56F94F2491298360E00E94F61156
:102CB00060E0809192020E94F611812F90E0880FCF
:102CC000991F9C012855394F38872F83F901A59109
:102CD000B4918C913E2D30953B8383238C93312C82
:102CE000F101EE0FFF1FCF018855994F2C01FC0118
:102CF000A591B4919C918981809589238C9361E001
:102D0000809194020E94F61161E0809193020E94EA
:102D1000F61110E0000F111F0855194FF801A59189
:102D2000B4918C918F298C93ED2DF0E0EE0FFF1F65
:102D3000E855F94FA591B4914C91C094C422CC921E
:102D4000809191020E9439119C01809191022D8302
:102D50003E830E9439113C0122242A9463E0362EDE
:102D6000281A390A60E0809194020E94F61160E00E
:102D7000809193020E94F611F801A591B4918C9173
:102D8000F094FC828F218C9361E0809191020E94EB
:102D9000F611EF81F885A591B491EC91EE2AEC92B1
:102DA00061E0809192020E94F611809193020E944C
:102DB00039116C01809193020E9439117C012D819F
:102DC0003E81C816D90629F4DD24D394261537058B
:102DD00009F0D12C61E0809194020E94F611F80173
:102DE000A591B4916C912C8162236C93F201A59111
:102DF000B491EC913981E32BEC93EF81F885A591A7
:102E0000B4918C912B8182238C9360E0809191020C
:102E10000E94F611809193020E9439119A8389834E
:102E2000809191020E9439110091950210919602B1
:102E30000115110509F442C0BC01990F880B990BCB
:102E40000E94DC182B013C0129813A81B901330F22
:102E5000880B990B0E94DC189B01AC01C301B201E5
:102E60000E949D1A20E030E040E85FE30E94301AA3
:102E70002B013C01B101032C000C880B990B0E9423
:102E8000DC189B01AC01C301B2010E9417192B0190
:102E90003C01B80180E090E00E94DA189B01AC018F
:102EA000C301B2010E94171920E030E040E85AE364
:102EB0000E9417190E940F1B8B0106C009811A81FD
:102EC000081B190B01501C4FD11002C000E010E08C
:102ED00061E086E00E94F61161E080E10E94F61157
:102EE00061E08FE00E94F61161E087E00E94F61138
:102EF0000B5011090D3D1340F0F52FEF33E02E1963
:102F00003F09C901330FAA0BBB0B9C01AD0124562D
:102F1000310941095109A0E4B1E00E94161A24E2E6
:102F200033E040E050E00E94F71969017A01C101E5
:102F3000330CAA0BBB0B9C01AD012C5A3340410949
:102F40005109A0EFB0E00E94161AA50194010E9459
:102F5000F71929013A0120EE37E048E050E0B201CC
:102F6000C6010E94851220E030E047E050E0B20147
:102F7000C6010E9485120E942F1169CEBF92CF9286
:102F8000DF92EF92FF920F931F93CF93DF93E1E6CF
:102F9000F1E01382128288EE93E0A0E0B0E0848337
:102FA0009583A683B78384E091E09183808385EC49
:102FB00090E09587848784EC90E09787868780EC03
:102FC00090E0918B808B81EC90E0938B828B82ECF4
:102FD00090E0958B848B86EC90E0978B868B118E9E
:102FE000128E138E148EEEEFF1E016821782108689
:102FF0001186128613861486158616861786108A01
:10300000118A128A138A148A158AEFE8F2E08FE097
:10301000828380E1848387E0838386E085838CE2FA
:1030200091E0978386838AE090E091838083C3E672
:10303000D2E01B821A8280EFE82EF12CFD82EC8216
:1030400000E411E01F830E83F986E8861B870A8758
:103050001D8A1D861C861F861E86BB24B394BC8ACF
:10306000CC24CA94DC2CDB8ACA8AD98AC88ABE8A54
:103070001F8A198E188E86E191E09983888382E1F8
:103080008BA7E3ECF6E0E491F0E0EE0FFF1FE855CC
:10309000F94FA591B491BC8FAB8FE2ECF6E0E491CF
:1030A000F0E0EE0FFF1FE855F94F859194919E8F48
:1030B0008D8FE1ECF6E0E491F0E0EE0FFF1FE855B4
:1030C000F94F8591949198A38F8FE0ECF6E0E4910D
:1030D000F0E0EE0FFF1FE855F94F859194919AA308
:1030E00089A3E5EAF6E084918BA3E4EAF6E0349163
:1030F0003CA3E3EAF6E024912DA3E2EAF6E0949102
:103100009EA3482F40954FA3E32FE095E8A7E22F19
:10311000E095E9A7E92FE095EAA7EC91E82BEC937D
:10312000ED8DFE8D90818CA1892B8083EF8DF8A190
:1031300090818DA1892B8083E9A1FAA190818EA134
:10314000892B808361E081E10E94F61161E080E1DA
:103150000E94F61161E08FE00E94F61161E08EE0BE
:103160000E94F61161E082E10E94AA1161E082E111
:103170000E94F6118AB18C6F8AB984B1836084B9D8
:103180001D8A1D861C861F861E86BC8AD98AC88A0F
:10319000F986E8861B870A8710924702109246023A
:1031A000DF91CF911F910F91FF90EF90DF90CF9023
:1031B000BF900895E89409C097FB3EF490958095E0
:1031C000709561957F4F8F4F9F4F9923A9F0F92FED
:1031D00096E9BB279395F695879577956795B7956B
:1031E000F111F8CFFAF4BB0F11F460FF1BC06F5F51
:1031F0007F4F8F4F9F4F16C0882311F096E911C063
:10320000772321F09EE8872F762F05C0662371F083
:1032100096E8862F70E060E02AF09A95660F771F97
:10322000881FDAF7880F9695879597F908950E9479
:103230002A190C949B190E948D1938F00E94941938
:1032400020F0952311F00C9484190C948A19112400
:103250000C94CF190E94AC1970F3959FC1F3950F90
:1032600050E0551F629FF001729FBB27F00DB11D0A
:10327000639FAA27F00DB11DAA1F649F6627B00D9A
:10328000A11D661F829F2227B00DA11D621F739F83
:10329000B00DA11D621F839FA00D611D221F749F91
:1032A0003327A00D611D231F849F600D211D822FD8
:1032B000762F6A2F11249F5750409AF0F1F08823FF
:1032C0004AF0EE0FFF1FBB1F661F771F881F91502C
:1032D0005040A9F79E3F510580F00C9484190C943E
:1032E000CF195F3FE4F3983ED4F3869577956795C1
:1032F000B795F795E7959F5FC1F7FE2B880F911D56
:103300009695879597F9089597F99F6780E870E0FB
:1033100060E008959FEF80EC089500240A9416164B
:10332000170618060906089500240A9412161306B3
:10333000140605060895092E0394000C11F4882341
:1033400052F0BB0F40F4BF2B11F460FF04C06F5F5D
:103350007F4F8F4F9F4F089557FD9058440F551F33
:1033600059F05F3F71F04795880F97FB991F61F007
:103370009F3F79F087950895121613061406551F7E
:10338000F2CF4695F1DF08C0161617061806991FEA
:10339000F1CF86957105610508940895E894BB27DF
:1033A00066277727CB0197F90895A1E21A2EAA1B69
:1033B000BB1BFD010DC0AA1FBB1FEE1FFF1FA217E5
:1033C000B307E407F50720F0A21BB30BE40BF50BE2
:1033D000661F771F881F991F1A9469F7609570956B
:1033E000809590959B01AC01BD01CF010895052EFC
:1033F00097FB1EF400940E940E1A57FD07D00E94FE
:10340000D51907FC03D04EF40C940E1A5095409534
:10341000309521953F4F4F4F5F4F08959095809580
:10342000709561957F4F8F4F9F4F08950E94211A8D
:10343000A59F900DB49F900DA49F800D911D112408
:103440000895A29FB001B39FC001A39F700D811D7D
:103450001124911DB29F700D811D1124911D08959D
:103460005058BB27AA270E94481A0C949B190E9407
:103470008D1938F00E94941920F039F49F3F19F407
:1034800026F40C948A190EF4E095E7FB0C94841949
:10349000E92F0E94AC1958F3BA1762077307840723
:1034A000950720F079F4A6F50C94CE190EF4E0956A
:1034B0000B2EBA2FA02D0B01B90190010C01CA01EE
:1034C000A0011124FF27591B99F0593F50F4503E99
:1034D00068F11A16F040A22F232F342F4427585F8B
:1034E000F3CF469537952795A795F0405395C9F7A3
:1034F0007EF41F16BA0B620B730B840BBAF091505B
:10350000A1F0FF0FBB1F661F771F881FC2F70EC0F9
:10351000BA0F621F731F841F48F4879577956795CC
:10352000B795F7959E3F08F0B0CF9395880F08F0B8
:103530009927EE0F9795879508950E94B11A0C94DC
:103540009B190E94941958F00E948D1940F029F49B
:103550005F3F29F00C94841951110C94CF190C94ED
:103560008A190E94AC1968F39923B1F3552391F39A
:10357000951B550BBB27AA2762177307840738F0E2
:103580009F5F5F4F220F331F441FAA1FA9F335D03F
:103590000E2E3AF0E0E832D091505040E695001CF3
:1035A000CAF72BD0FE2F29D0660F771F881FBB1FAD
:1035B000261737074807AB07B0E809F0BB0B802D8B
:1035C000BF01FF2793585F4F3AF09E3F510578F0B7
:1035D0000C9484190C94CF195F3FE4F3983ED4F314
:1035E000869577956795B795F7959F5FC9F7880F8B
:1035F000911D9695879597F90895E1E0660F771FDD
:10360000881FBB1F621773078407BA0720F0621B6D
:10361000730B840BBA0BEE1F88F7E09508950E9498
:10362000161B6894B1110C94CF1908950E94B41917
:1036300088F09F5798F0B92F9927B751B0F0E1F073
:10364000660F771F881F991F1AF0BA95C9F714C023
:10365000B13091F00E94CE19B1E008950C94CE19CA
:10366000672F782F8827B85F39F0B93FCCF386955C
:1036700077956795B395D9F73EF4909580957095B9
:1036800061957F4F8F4F9F4F08950E94211A3323DA
:1036900012F48A1B9B0B0C944F1B0E94211AB7FF3C
:1036A0000895821B930B0895EE0FFF1F0590F49170
:1036B000E02D099481E090E0F8940C946E1BFB01DE
:1036C000DC014150504048F001900D920020C9F7B4
:1036D00001C01D9241505040E0F70895F894FFCF8B
:1036E00000000000C61032125E100D118F106D1018
:1036F000811000000000F1073212700B6F0B610C9B
:10370000C40ABD0A950AB10AA50AC50A940ACD05DC
:10371000B705E30D390E6B0DC00C2609C708564DD1
:103720004450565F317C315F564D4450560D0A006F
:08373000427574746F6E3100E4
:107E0000112484B714BE81FFF0D085E080938100F7
:107E100082E08093C00088E18093C10086E0809377
:107E2000C20080E18093C4008EE0C9D0259A86E02C
:107E300020E33CEF91E0309385002093840096BBD3
:107E4000B09BFECF1D9AA8958150A9F7CC24DD24C4
:107E500088248394B5E0AB2EA1E19A2EF3E0BF2EE7
:107E6000A2D0813461F49FD0082FAFD0023811F036
:107E7000013811F484E001C083E08DD089C08234E0
:107E800011F484E103C0853419F485E0A6D080C0E4
:107E9000853579F488D0E82EFF2485D0082F10E0AE
:107EA000102F00270E291F29000F111F8ED06801E7
:107EB0006FC0863521F484E090D080E0DECF843638
:107EC00009F040C070D06FD0082F6DD080E0C81688
:107ED00080E7D80618F4F601B7BEE895C0E0D1E017
:107EE00062D089930C17E1F7F0E0CF16F0E7DF06D8
:107EF00018F0F601B7BEE89568D007B600FCFDCFD4
:107F0000A601A0E0B1E02C9130E011968C91119780
:107F100090E0982F8827822B932B1296FA010C0160
:107F200087BEE89511244E5F5F4FF1E0A038BF0790
:107F300051F7F601A7BEE89507B600FCFDCF97BE46
:107F4000E89526C08437B1F42ED02DD0F82E2BD052
:107F50003CD0F601EF2C8F010F5F1F4F84911BD097
:107F6000EA94F801C1F70894C11CD11CFA94CF0C13
:107F7000D11C0EC0853739F428D08EE10CD085E9AC
:107F80000AD08FE07ACF813511F488E018D01DD067
:107F900080E101D065CF982F8091C00085FFFCCF94
:107FA0009093C60008958091C00087FFFCCF809118
:107FB000C00084FD01C0A8958091C6000895E0E648
:107FC000F0E098E1908380830895EDDF803219F02E
:107FD00088E0F5DFFFCF84E1DECF1F93182FE3DFCA
:107FE0001150E9F7F2DF1F91089580E0E8DFEE27F6
:047FF000FF270994CA
:027FFE00040479
:0400000300007E007B
:00000001FF