:100000000C9461030C9489030C9489030C94890368
:100010000C9489030C9489030C9489030C94890330
:100020000C9489030C9489030C9489030C94890320
:100030000C9489030C9489030C9489030C94890310
:100040000C9446120C9489030C94F70E0C94D10E68
:100050000C9489030C9489030C9489030C948903F0
:100060000C94CC0B0C94890300000000003E555109
:10007000553E3E6B6F6B3E0C1E3C1E0C081C3E1C1E
:10008000081C4A7F4A1C185C7F5C18001C1C1C0062
:100090007F6363637F001C141C007F636B637F308E
:1000A000484D3307062979290620503F020C607F0E
:1000B00005353F2A1C771C2A007F3E1C08081C3E81
:1000C0007F0014227F2214005F005F0006097F0179
:1000D0007F4A55555529606060606054627F625464
:1000E00008047E040808103F100808082A1C0808A5
:1000F0001C2A08081C101010101C3E083E1C303C26
:100100003F3C30061E7E1E06000000000000005F1F
:1001100000000007000700147F147F14242A7F2AA0
:10012000122313086462364956205000000700006D
:10013000001C2241000041221C0014083E08140843
:10014000083E080800A060000008080808080060D1
:1001500060000020100804023E5149453E44427FA1
:10016000404042615149462141454B311814127FAC
:100170001027454545393C4A494930017109050375
:100180003649494936064949291E006C6C00000071
:10019000AC6C000008142241001414141414004123
:1001A00022140802015109063E415D555E7C121180
:1001B000127C7F494949363E414141227F414122DB
:1001C0001C7F494949417F090909013E4149497A52
:1001D0007F0808087F00417F41002040413F017FA8
:1001E000081422417F404040607F020C027F7F0460
:1001F00008107F3E4141413E7F090909063E4151B9
:10020000215E7F09192946464949493103017F0189
:10021000033F4040403F1F2040201F3F403C403FA5
:1002200063140814630708700807615149454300C7
:100230007F41410002040810200041417F00040278
:100240000102044040404040000102040020545498
:1002500054787F48444438384444444838444448F7
:100260007F3854545418087E090102085454583CED
:100270007F0804047800447D40002040443D007F16
:100280001010284400417F40007C047804787C08EA
:1002900004047838444444387C14141408081414B2
:1002A0000C7C7C080404084854545424043F444003
:1002B000203C4040207C1C2040201C3C4038403CDE
:1002C00044281028440C5050503C4464544C440082
:1002D0000836410000007F0000004136080002019E
:1002E0000204027048444870000E110E0000121FF4
:1002F000100000121916000011150B000007041F52
:10030000000017150900000E15090000011D03006B
:10031000000A150A000012150E000004040400FF74
:10032000FFFFFFFF3E000000003E3E0000003E3E9B
:10033000003E003E3E003E3E8080808080C0C0C0C7
:10034000C0C0D0D0D0D0D0D8D8D8D8D8DADADADA7D
:10035000DADBDBDBDBDB40004000406000400040DC
:10036000600070004060007000787C004000407CBD
:10037000007E00407C007E007F1C7741414141416E
:100380004141414141417F001C77415D5D41414117
:100390005D5D5D5D415D5D5D5D417F00221C141C06
:1003A0002200081C08000000770000465D555D3102
:1003B0007C5554554408082A0808001408140008FD
:1003C000142208147F4171311F03057F0503221495
:1003D0007F552202557D0502060909060044445F47
:1003E00044441C141C227F203E613E2020503F02CA
:1003F0000C807C203C40443C047C4400000800000D
:1004000038555455187E08107F010810080402144E
:10041000082214080E060A102020100A060E383092
:1004200028040202042830387E1111117E7F4949C8
:1004300049317F494949367F01010103C07F417F2E
:10044000C07F4949494177087F0877414949493682
:100450007F1008047F7C2112097C7F081422414010
:100460003E01017F7F020C027F7F0808087F3E412A
:1004700041413E7F0101017F7F090909063E41415B
:10048000412201017F0101074848483F0E117F11B9
:100490000E63140814637F40407FC0070808087F7C
:1004A0007F407F407F7F407F40FF017F4848307F13
:1004B0004848307F7F48484830224149493E7F08BC
:1004C0003E413E462919097F20545454783C4A4AFB
:1004D00049317C545454287C0404040CC078447C76
:1004E000C038545454186C107C106C445454542824
:1004F0007C2010087C7C4026107C7C101028444016
:100500003804047C7C0810087C7C1010107C384473
:100510004444387C0404047C7C1414140838444497
:10052000444804047C04040C5050503C1824FC241F
:100530001844281028447C40407CC00C1010107CCB
:100540007C407C407C7C407C40FC047C5050207C87
:100550005050207C7C5050502028445454387C10FB
:10056000384438483414147C00000000240027006C
:100570002A00000000080002010000030407000038
:10058000000000000000010000010200000703005D
:10059000301008000203090000000A0008001000E3
:1005A0009007110005001200000013000000100069
:1005B000B0121100070012008C0013000017290070
:1005C0002200300000003100050532000502350030
:1005D0000602360008043700000038000405390020
:1005E00006023C0006023D000804500000005100D5
:1005F000EF005200000053003F01600000A76100BF
:1006000001009000330007003301010000010200E7
:1006100000070300301008000203090000000A0070
:1006200008001000900711000500120000001300E0
:1006300000001000B0121100070012008C0013001F
:1006400000172900220030000000310005053200AB
:1006500005023500060236000804370000003800A5
:100660000405390006023C0006023D000804500063
:1006700000005100EF005200000053003F016000F5
:1006800000A7610001009000330007003301010260
:100690000408102040800102040810200102040810
:1006A000102000000000250028002B000404040492
:1006B000040404040202020202020303030303030C
:1006C000E61C11241FBECFEFD8E0DEBFCDBF11E086
:1006D000A0E0B1E0EEE8F6E402C005900D92A0398A
:1006E000B107D9F724E0A0E9B1E001C01D92AC3117
:1006F000B207E1F713E0C1E6D3E004C02197FE01A1
:100700000E94FB22C036D107C9F70E943B180C9407
:1007100045230C940000FC016370658B84819581F6
:1007200026813781613039F0633029F091878087E5
:10073000338722870895318720879387828708959A
:100740002F923F924F925F926F927F928F929F92E1
:10075000AF92BF92CF92DF92EF92FF920F931F93CF
:10076000CF93DF93CDB7DEB76C970FB6F894DEBFAB
:100770000FBECDBF9C8F8B8F5B011A011F830E8331
:100780003701C982DC0158964D915C91599741150A
:10079000510509F0E5C018968D919C91199768173D
:1007A00079070CF0CAC11A968D919C911B97281657
:1007B00039060CF0C2C18C2C912CFB0136E0C39E93
:1007C000E00DF11D1124FB87EA871E161F060CF0B1
:1007D000B4C1C40133E0880F991F3A95E1F79D87B2
:1007E0008C87820D931D181619060CF0A6C157961A
:1007F0008C91811103C0203B08F02F5FAB8DBC8D25
:10080000ED91FC9111970284F385E02DCD012A8FA3
:1008100009952A8DB5E02B9F90011124F50135969D
:10082000FF87EE87BB82AA822501A9014A195B09CD
:10083000598B488BC10108969B8B8A8BE889F98973
:10084000E40DF51DE859FF4F9491988761013D82B1
:100850002C82A885A0FF13C0AB8DBC8DED91FC91BF
:10086000B981B13031F40484F585E02D2E813F81CA
:1008700016C00684F785E02DEE80FF801AC0EE8159
:10088000FF816E167F06F1F0AB8DBC8DED91FC9172
:10089000B981B13051F40484F585E02D9301A601AE
:1008A000B2018B8D9C8D09950DC00684F785E02DD6
:1008B0007301840194014C815D816A817B818B8D00
:1008C0009C8D0995E885E695E887FFEFCF1ADF0A4A
:1008D0002C813D81280D391D3D832C834A895B89FC
:1008E000C416D50609F0B5CF5FEF451A550A8A81BF
:1008F0009B81880D991D9B838A83AE85BF854A168F
:100900005B0609F09BCFEE81FF816E167F0609F42E
:10091000F2C0EB8DFC8DA081B181F981F13079F4C9
:10092000B5016B5F7F4F5096ED91FC91519783011C
:1009300028E030E0A1018B8D9C8D0995DCC06A8593
:100940007B85681979091E96ED91FC911F977301BB
:100950000C851D859401A1018B8D9C8D0995CBC0C3
:10096000FA0134969491329765917491291BCB01C9
:10097000B7E02B9F800D911D1124FA012591349130
:100980003B8B2A8BFC01459154915B834A83FC018C
:100990003296C490319654915E8732961491319676
:1009A000D4908981823058F0612E012E000C770896
:1009B000AD2D0D2C000CBB0BB987A88704C0198680
:1009C0001886612C712CAB8DBC8DED91FC9111972B
:1009D0000284F385E02DCD010995B9818B2E912CF0
:1009E000689CC001699C900D789C900D1124FC01BD
:1009F000EA0DFB1DFD87EC871C82712C612CE12F19
:100A0000110FFF0B95012E0F3F1F3B872A87AC0C60
:100A1000B11CA5014E0F5F1F5F8B4E8BC1018D0D69
:100A2000911DD7FC9A95998F888F4E85641608F092
:100A300062C0862D90E048855985480F591F489D12
:100A40009001499D300D589D300D1124D901A20D02
:100A5000B31DB98BA88BAA84BB844C845D84DC80D5
:100A6000BA85DB1AE88DF98DE80FF91FFD8BEC8B49
:100A70008D2D8A0D2E893F89A216B306B9F1877094
:100A800061F48A819B810196EA89FB89AA81BB81F5
:100A9000EA0FFB1F74909B838A8377FE20C0AB8D87
:100AA000BC8DED91FC91B981B13061F40484F58580
:100AB000E02D2E813F814C895D89B5018B8D9C8D08
:100AC00009950DC00684F785E02DEE80FF80840136
:100AD000940148895989B2018B8D9C8D0995770CB9
:100AE000EFEFAE1ABE0A480C591CC2CF3C813C0D38
:100AF0003C8363949ACFAB8DBC8DED91FC911197A3
:100B00000688F789E02DCD016C960FB6F894DEBF0C
:100B10000FBECDBFDF91CF911F910F91FF90EF904E
:100B2000DF90CF90BF90AF909F908F907F906F900D
:100B30005F904F903F902F9009946C960FB6F89469
:100B4000DEBF0FBECDBFDF91CF911F910F91FF9000
:100B5000EF90DF90CF90BF90AF909F908F907F905D
:100B60006F905F904F903F902F900895AF92BF92FB
:100B7000CF92EF92FF920F931F93CF93DF93EC01ED
:100B8000262F888D998D009709F040C06A3059F45E
:100B90001D861C862C898E859F8538E0239F800DBD
:100BA000911D112441C06D3009F4AAC08E8988239B
:100BB000C1F03C898C859D8546E0349F800D911D58
:100BC000112448855985481759075CF41D861C86F1
:100BD0008E859F8548E0349F800D911D11249F874D
:100BE0008E87EA88FB88088919894E855F856C8520
:100BF0007D85CC88CE010E94A0032C898C859D85A3
:100C000036E0239F800D911D112442C06A3079F493
:100C10001D861C862C89FC013696E4918E859F8565
:100C20002E9F800D911D11249F878E8769C06D3086
:100C300009F466C0FC0134963491631708F460C06F
:100C40003196E491E61708F45BC0FC013296A5905A
:100C5000B490462F50E0431B510937E0349FB00158
:100C6000359F700D1124A60EB71EF50132963491F2
:100C70003196E491332311F0E1110DC0F501349662
:100C8000E4912C898C859D85E29F800D911D112416
:100C90009D878C8735C0F501359644915E89552333
:100CA00011F16C89E32FF0E0E40FF11D47FDFA9597
:100CB0006E9FD0016F9FB00D11244C855D854A0F4A
:100CC0005B1FE885F985E417F5076CF41D861C8623
:100CD000FC013696E4918E859F856E9F800D911D57
:100CE00011249F878E87EA88FB88088919894E8599
:100CF0005F856C857D85CC88CE010E94A003BECF28
:100D000081E090E0DF91CF911F910F91FF90EF90E4
:100D1000CF90BF90AF9008956F927F928F929F92E5
:100D2000AF92BF92CF92DF92EF92FF920F931F93F9
:100D3000CF93DF93EC014B015A0169013801E8813F
:100D4000F9810284F385E02D0995E881F981028813
:100D5000F389E02D87019601A501B401CE01099523
:100D6000E881F981A501460D571D415051090288BE
:100D7000F389E02D9601B401CE010995E881F9814E
:100D80000088F189E02D9301A501B401CE010995F8
:100D9000E881F981C80CD91CB6016150710900883D
:100DA000F189E02D9301A501CE010995E881F98132
:100DB0000688F789E02DCE01DF91CF911F910F9129
:100DC000FF90EF90DF90CF90BF90AF909F908F906B
:100DD0007F906F900994CF92DF92EF92FF920F93E2
:100DE0001F93CF93DF9300D000D000D0CDB7DEB7F4
:100DF0006C01DC01ED91FC916217730789F4041713
:100E000015072CF4942F852FA801092F182F041BE8
:100E1000150B98012F5F3F4F048CF58DE02D12C00C
:100E20004017510709F5261737072CF4962F872FFF
:100E3000B901292F382F261B370B2F5F3F4F068C08
:100E4000F78DE02D8701C601099526960FB6F89417
:100E5000DEBF0FBECDBFDF91CF911F910F91FF90ED
:100E6000EF90DF90CF9008950284F385E02D2D83DD
:100E70003E834B835C8369837A830995D601ED9128
:100E8000FC910488F589E02D2D813E814B815C81A8
:100E900069817A81C6010995D601ED91FC91068898
:100EA000F789E02DC60126960FB6F894DEBF0FBE77
:100EB000CDBFDF91CF911F910F91FF90EF90DF9009
:100EC000CF900994EF92FF920F931F93DC01ED9165
:100ED000FC9111971A960D911C911B9718962D91C4
:100EE0003C91199700A0F1A1E02D7B0140E050E07A
:100EF00060E070E009951F910F91FF90EF900895C9
:100F00004F925F926F927F928F929F92AF92BF9219
:100F1000CF92DF92EF92FF920F931F93CF93DF93C5
:100F200000D0CDB7DEB76C015A0139014801DC01B0
:100F3000ED91FC910284F385E02D69837A83099514
:100F40006981462E7A81572E640C751CD601ED916D
:100F5000FC91461457046CF40088F189E02D870158
:100F60009401A501B201C6010995BFEF4B1A5B0AB6
:100F7000EDCF0688F789E02DC6010F900F90DF9125
:100F8000CF911F910F91FF90EF90DF90CF90BF9086
:100F9000AF909F908F907F906F905F904F9009944B
:100FA000AF92BF92CF92DF92EF92FF920F931F9377
:100FB000CF93DF9300D000D0CDB7DEB75C016901DD
:100FC000DC01ED91FC910284F385E02D4B835C8381
:100FD00069837A830995D501ED91FC9169817A81C4
:100FE0009B012C0D3D1D215031090488F589E02D10
:100FF00078014B815C818A01C5010995D501ED918C
:10100000FC910688F789E02DC5010F900F900F9095
:101010000F90DF91CF911F910F91FF90EF90DF9094
:10102000CF90BF90AF900994AF92BF92CF92DF92D2
:10103000EF92FF920F931F93CF93DF9300D000D0D6
:10104000CDB7DEB75C016901DC01ED91FC91028452
:10105000F385E02D4B835C8369837A830995D50101
:10106000ED91FC914B815C81C40ED51EB1E0CB1A91
:10107000D1080488F589E02D7801860169817A819B
:101080009B01C5010995D501ED91FC910688F78971
:10109000E02DC5010F900F900F900F90DF91CF9131
:1010A0001F910F91FF90EF90DF90CF90BF90AF9086
:1010B00009940895EF92FF920F931F93DC01ED9135
:1010C000FC9100A0F1A1E02D09951F910F91FF90D7
:1010D000EF9008950F931F93DC01ED91FC91068C26
:1010E000F78DE02D09951F910F9108950F931F9390
:1010F000DC01ED91FC91048CF58DE02D09951F919B
:101100000F910895DC01ED91FC910084F185E02DB3
:10111000099408952F923F924F925F926F927F921F
:101120008F929F92AF92BF92CF92DF92EF92FF92F7
:101130000F931F93CF93DF9300D01F92CDB7DEB7ED
:101140004C017B836A836A01590117019801241BB2
:10115000350B37FF03C0319521953109C5014A810F
:101160005B81841B950B97FF03C091958195910935
:1011700051E059838217930714F019820BC09A2DFE
:101180008B2D5801092F182F9A818B81DB82CA82FF
:10119000C92ED82E8A819B81A816B9065CF49C2D95
:1011A0008D2D6801092F182F9A818B81BB82AA820D
:1011B000A92EB82E2501AA81BB814A1A5B0A3801E3
:1011C0006C187D0877FE03C07194619471087201F8
:1011D00057FE03C0BFEFEB1AFB0AF594E794C01665
:1011E000D1061CF00FEF1FEF1FC001E010E01CC084
:1011F000D401ED91FC91B9810484F585E02D910134
:10120000BB23C1F04A815B81B601C4010995E61890
:10121000F708F7FE04C0C00ED11EE40CF51CEA81ED
:10122000FB813196FB83EA834A815B81A416B50674
:10123000FCF604C0A6016A817B81E7CF0F900F9076
:101240000F90DF91CF911F910F91FF90EF90DF9062
:10125000CF90BF90AF909F908F907F906F905F9056
:101260004F903F902F90089585ED8093BC00809122
:10127000BC0084FDFCCF10920F0208954091B30191
:10128000262F30E0240F311D21323105DCF420916E
:101290000F022430C9F4FC0180E090E0861758F476
:1012A0003091B3012191DC01AF56BE4FA30FB11DA8
:1012B0002C930196F3CF8091B301680F6093B30133
:1012C00080E0089581E0089582E00895089581E026
:1012D00090E03091D9012091D801321710F480E0CC
:1012E00090E091958195910908958091D90190910F
:1012F000D801891730F48F5F8093D90180E090E0A6
:1013000008958FEF9FEF08958091D80190E020918C
:10131000D901821B91090895CF92DF92EF92FF923B
:101320000F931F93CF93DF937C01262F972F8A0172
:1013300080913202882391F0C62FD72F6E01C40E00
:10134000D51ECC15DD0571F06991D701ED91FC91A9
:101350000190F081E02DC7010995F3CF642F822F12
:101360000E943E09C801DF91CF911F910F91FF901C
:10137000EF90DF90CF900895CF93DF931F92CDB77A
:10138000DEB76983209132022223D1F0209130020E
:10139000203240F021E030E0FC013383228380E002
:1013A00090E015C080913102E82FF0E0E05FFD4F42
:1013B000998190838F5F809331028093300205C0C2
:1013C00061E0CE0101960E943E0981E090E00F901D
:1013D000DF91CF910895089580E090E00895CF9334
:1013E000C82F682F83E392E00E945C0E8C2FCC0FF5
:1013F000990BCF9108952F923F924F925F926F92E7
:101400007F928F929F92AF92BF92CF92DF92EF9294
:10141000FF920F931F93CF93DF93CDB7DEB728973B
:101420000FB6F894DEBF0FBECDBF5C013B014A0191
:1014300038872F83FC82EB8281E090E02C01421AF6
:10144000530AC9019195819591099C01220F331F7F
:101450003A832983170133E0230E311CEE24E394F1
:10146000F12C802F81708D8302700E83C70101974C
:10147000EF81F8858E179F070CF078C057FC0CC0E1
:10148000AF81B8851197B887AF83E981FA81329629
:10149000FA83E9834E0E5F1EC701880F991F0196DC
:1014A000480E591EFD81FF2359F1D501ED91FC91A4
:1014B0002F813885220F331F2F5F3F4F8B819C81F7
:1014C000280F391F0088F189E02D8601A401AF8122
:1014D000B8854A1B5B0BB701660D771DC5010995E1
:1014E000D501ED91FC910088F189E02D9101A401D5
:1014F0004E195F096F817885660D771DC5010995C5
:10150000BE81BB2361F1D501ED91FC912F8138851E
:10151000220F331F2F5F3F4F8B819C81280F391F74
:101520000088F189E02D8601A401AF81B8854A1BAE
:101530005B0BB3016E197F09C5010995D501ED91CA
:10154000FC910088F189E02D9101A4014E195F09F9
:10155000B3018F819885681B790BC50109959FEFB1
:10156000E91AF90AA2E02A0E311C80CF28960FB69C
:10157000F894DEBF0FBECDBFDF91CF911F910F91C9
:10158000FF90EF90DF90CF90BF90AF909F908F90A3
:101590007F906F905F904F903F902F9008952F9283
:1015A0003F924F925F926F927F928F929F92AF92F3
:1015B000BF92CF92DF92EF92FF920F931F93CF9340
:1015C000DF9300D000D000D0CDB7DEB79E838D83EF
:1015D0004B013A016901802F21E030E029014C18CC
:1015E0005D08222433242C183D08220C331CAA2425
:1015F000A394B12C01E010E0982F94709983A82F48
:10160000A270AA83B82FB870BB8381708C83C50188
:1016100001978C159D050CF0A6C057FC08C0E1E0B1
:10162000CE1AD108F2E02F0E311C420C531C0E5F73
:101630001F4F400E511E8981882311F1AD81BE815B
:10164000ED91FC9111970484F585E02D9701A3019C
:101650004C0D5D1DB501680D791DCD010995AD815C
:10166000BE81ED91FC9111970484F585E02D9701E1
:10167000A501460D571DB4016C0D7D1DCD010995C9
:10168000BA81BB2311F1AD81BE81ED91FC9111971F
:101690000484F585E02D9701A3014C195D09B5017E
:1016A000680D791DCD010995AD81BE81ED91FC914B
:1016B00011970484F585E02D9701A3014A195B0970
:1016C000B4016C0D7D1DCD010995BB81BB2311F1CA
:1016D000AD81BE81ED91FC9111970484F585E02DDB
:1016E0009701A501460D571DB4016C197D09CD0167
:1016F0000995AD81BE81ED91FC9111970484F5852A
:10170000E02D9701A3014C0D5D1DB4016A197B0901
:10171000CD010995BC81BB2311F1AD81BE81ED9155
:10172000FC9111970484F585E02D9701A3014A19D6
:101730005B09B4016C197D09CD010995AD81BE81AC
:10174000ED91FC9111970484F585E02D9701A3019B
:101750004C195D09B4016A197B09CD010995BFEFE8
:10176000AB1ABB0A54CF26960FB6F894DEBF0FBE55
:10177000CDBFDF91CF911F910F91FF90EF90DF9040
:10178000CF90BF90AF909F908F907F906F905F9021
:101790004F903F902F9008951F920F920FB60F9287
:1017A00011242F933F934F935F936F937F938F9366
:1017B0009F93AF93BF93EF93FF938091B900887F7E
:1017C000803609F49CC068F5883209F45BC090F457
:1017D000803109F454C038F4882309F4F6C0883005
:1017E00009F44DC0F6C0883109F44CC0803209F4C8
:1017F0005DC0EFC0803409F468C048F4803309F458
:1018000055C0883309F0E5C080930D02D8C08035FB
:1018100009F44FC0883509F45DC0883409F0D9C097
:10182000D6C0883909F4C7C0A8F4883709F467C05E
:1018300038F4883609F463C0803709F460C0C9C041
:10184000883809F4B8C0803909F45FC0803809F0DD
:10185000C0C05BC0803B09F486C038F4803A09F40C
:1018600066C0883A09F47FC0B4C0803C09F4A7C0C0
:10187000883C09F4A4C0883B09F48AC0AAC08091BE
:10188000EA0110C090910C0280910B02981770F53C
:10189000E0910C0281E08E0F80930C02F0E0E551A4
:1018A000FE4F80818093BB0085EC86C080930D0243
:1018B0008EC0E0910C0281E08E0F80930C0280912B
:1018C000BB00F0E0E551FE4F808390910C028091C7
:1018D0000B026EC0E0910C0281E08E0F80930C022F
:1018E0008091BB00F0E0E551FE4F808380910E02B5
:1018F00081116DC081E08093E90184EA61C083E0D9
:1019000080930F021092D701CFCF8091D701803200
:1019100008F051C0E091D70181E08E0F8093D7018C
:101920008091BB00F0E0E954FE4F8083BDCF85EC91
:101930008093BC0010920F028091D701803230F466
:10194000E091D701F0E0E954FE4F10826091D70199
:1019500070E0E091B501F091B60187EB91E0099557
:101960001092D70136C084E080930F021092B40128
:101970001092B301E091B101F091B201099580910B
:10198000B301811105C081E08093B30110929101F0
:10199000E091B40181E08E0F8093B401F0E0EF5646
:1019A000FE4F80818093BB009091B4018091B30180
:1019B000981708F479CF85E88093BC000AC085ECBD
:1019C0008093BC0010920F0204C010920D020E947E
:1019D0003409FF91EF91BF91AF919F918F917F91CA
:1019E0006F915F914F913F912F910F900FBE0F908C
:1019F0001F901895FF920F931F93CF93DF939091B1
:101A00009001891709F180939001C5EED2E008E0BA
:101A100013E0FF24F3948091900190E029A13AA172
:101A2000F8012817390711F4F08204C08081882357
:101A300021F01082CE010E947616A796095D1F4FF5
:101A4000F3E0CF3CDF0739F780E090E0DF91CF9102
:101A50001F910F91FF900895811119C080919001FD
:101A6000833049F48091DD02882309F45BC0815002
:101A70008093DD0257C08430F9F48091E302982FFF
:101A8000977083FD13C0973099F48FE012C08130B6
:101A900009F040C0809190018330D1F0843029F565
:101AA0008091E302982F977083FD18C09923D1F19C
:101AB00081508093E30236C08530F1F58091E202D7
:101AC000982F977083FD19C09730C9F48FE01CC020
:101AD0008091DD028F3330F58F5FCACF973011F0E0
:101AE0008F5FE7CF9093E3021DC0853029F5809189
:101AF000E202982F977083FD04C0992399F08150DA
:101B000003C0973021F08F5F8093E2020BC0909367
:101B1000E20208C0823041F49091E40284E0892717
:101B20008093E4020C945615833021F0843011F038
:101B3000853011F40C94FA0C0895CF92DF92EF9255
:101B4000FF920F931F93CF93DF93EC01162F898998
:101B5000681311C00E943A12CB88DC88ED88FE8899
:101B6000DC01CB018C199D09AE09BF0985369105B1
:101B7000A105B10570F1112311F18989811107C007
:101B80001A8A81E0898BCE010E94761611C00E94CC
:101B90003A120B891C892D893E89DC01CB01801BFF
:101BA000910BA20BB30B85369105A105B10558F039
:101BB000EDA1FEA1309739F089A1099504C0198AD9
:101BC000CE010E9476160E943A126B8B7C8B8D8B15
:101BD0009E8B80E090E0DF91CF911F910F91FF905D
:101BE000EF90DF90CF900895FC01538D448D252F09
:101BF00030E0842F90E0821B930B541710F0CF96A7
:101C0000089501970895FC01918D828D981761F0D8
:101C1000828DDF01A80FB11D5D968C91928D9F5F23
:101C20009F73928F90E008958FEF9FEF0895FC01CE
:101C3000918D828D981731F0828DE80FF11D858D81
:101C400090E008958FEF9FEF0895FC01918D228D14
:101C5000892F90E0805C9F4F821B91098F73992799
:101C6000089583E392E00E94250E21E0892B09F478
:101C700020E0822F0895FC01848DDF01A80FB11DA3
:101C8000A35ABF4F2C91848D90E001968F739927B2
:101C9000848FA689B7892C93A089B1898C9180649F
:101CA0008C93938D848D981306C00288F389E02D60
:101CB00080818F7D80830895EF92FF920F931F9311
:101CC000CF93DF93EC0181E0888F9B8D8C8D9813EF
:101CD00005C0E889F989808185FD24C0F62E0B8D29
:101CE00010E00F5F1F4F0F731127E02E8C8DE8124D
:101CF0000CC00FB607FCFACFE889F989808185FF0F
:101D0000F5CFCE010E943B0EF1CF8B8DFE01E80F87
:101D1000F11DE35AFF4FF0820B8FEA89FB89808126
:101D2000806207C0EE89FF896083E889F989808134
:101D30008064808381E090E0DF91CF911F910F91CB
:101D4000FF90EF900895CF93DF93EC01888D882367
:101D5000C9F0EA89FB89808185FD05C0A889B98918
:101D60008C9186FD0FC00FB607FCF5CF808185FFF3
:101D7000F2CFA889B9898C9185FFEDCFCE010E9461
:101D80003B0EE7CFDF91CF91089580E090E0892B63
:101D900029F00E94310E81110C94000008950E94D8
:101DA00001231F920F920FB60F9211242F933F938E
:101DB0004F935F936F937F938F939F93AF93BF9353
:101DC000EF93FF9383E392E00E943B0EFF91EF912C
:101DD000BF91AF919F918F917F916F915F914F9143
:101DE0003F912F910F900FBE0F901F9018951F924B
:101DF0000F920FB60F9211242F938F939F93EF930F
:101E0000FF93E0914302F09144028081E091490206
:101E1000F0914A0282FD12C0908180914C028F5F46
:101E20008F7320914D02821751F0E0914C02F0E047
:101E3000ED5CFD4F958F80934C0201C08081FF9136
:101E4000EF919F918F912F910F900FBE0F901F9048
:101E5000189590E0FC01EE58FA4F3491FC01E257DE
:101E6000F94F2491FC01E455F94FE491EE2309F474
:101E70003BC0332339F1333091F038F43130A9F0DD
:101E8000323001F584B58F7D12C0373091F0383093
:101E9000A1F03430B9F4809180008F7D03C080912F
:101EA00080008F77809380000DC084B58F7784BDCC
:101EB00009C08091B0008F7703C08091B0008F7D02
:101EC0008093B000F0E0EE0FFF1FEE55F94FA591A3
:101ED000B4918FB7F894EC91611103C020952E2333
:101EE00001C02E2B2C938FBF0895CF93DF9390E0EA
:101EF000FC01E257F94F2491FC01E455F94F84911C
:101F0000882361F190E0880F991FFC01E859FA4F8E
:101F1000C591D491FC01EE55F94FA591B491611191
:101F200009C09FB7F8948881209582238883EC911B
:101F30002E230BC0623061F49FB7F8943881822F52
:101F4000809583238883EC912E2B2C939FBF06C012
:101F50008FB7F894E8812E2B28838FBFDF91CF9124
:101F600008953FB7F8948091E5019091E601A09122
:101F7000E701B091E80126B5A89B05C02F3F19F0F5
:101F80000196A11DB11D3FBFBA2FA92F982F8827F9
:101F9000820F911DA11DB11DBC01CD0142E0660F54
:101FA000771F881F991F4A95D1F70895AF92BF9266
:101FB000CF92DF92EF92FF920F931F93CF93DF9315
:101FC000FC01A38DB48D9C9187A189238C93A58D51
:101FD000B68D9C9180A589238C938BB183708BB92E
:101FE00085B18C7F85B9A78DB0A19C9181A58923EE
:101FF0008C93A78DB0A19C9185A1892B8C938BB1DB
:10200000837080628BB985B18C7F826085B9A78D22
:10201000B0A19C9181A589238C93A78DB0A19C919F
:1020200085A1892B8C93A58DB68D9C9184A1892B3C
:102030008C938BB1972F9C7FB92E8370892B8BB992
:1020400085B1A72FA370AA2E8C7F8A2B85B9C78D47
:10205000D0A1988181A589238883C78DD0A198813B
:1020600085A1892B88838BB1C62FCC7F83708C2B65
:102070008BB985B1D62FD3708C7F8D2B85B9078D09
:1020800010A1D8019C9181A589238C93078D10A163
:10209000D8019C9185A1892B8C932150310941094C
:1020A000510969017A0186E0F694E794D794C794C0
:1020B0008A95D1F7C601761348C1019708F465C027
:1020C00060E1A78DB0A1CC9171A57C237C93A78DF5
:1020D000B0A1CC9175A17C2B7C93A78DB0A1CC91A4
:1020E00071A57C237C93A78DB0A1CC9175A17C2B8D
:1020F0007C93A78DB0A1CC9171A57C237C93A78DF7
:10210000B0A1CC9175A17C2B7C93A78DB0A1CC9173
:1021100071A57C237C93A78DB0A1CC9175A17C2B5C
:102120007C93A78DB0A1CC9171A57C237C93A78DC6
:10213000B0A1CC9175A17C2B7C93A78DB0A1CC9143
:1021400071A57C237C93A78DB0A1CC9175A17C2B2C
:102150007C93A78DB0A1CC9171A57C237C93A78D96
:10216000B0A1CC9175A17C2B7C93A78DB0A1CC9113
:1021700071A57C237C93A78DB0A1CC9175A17C2BFC
:102180007C93615009F09DCF98CF2F732150C8F0F8
:10219000A78DB0A19C9181A589238C93A78DB0A117
:1021A0009C9185A1892B8C93A78DB0A19C9181A531
:1021B00089238C93A78DB0A19C9185A1892B8C93A9
:1021C000E5CFA38DB48D9C9183A1892B8C93DF9156
:1021D000CF911F910F91FF90EF90DF90CF90BF9024
:1021E000AF9008956BB163706B296BB965B16C7F6B
:1021F0006A2965B9078D10A1D801FC9061A56F21EE
:102200006C93078D10A1D801FC9065A16F296C9388
:102210006BB163706C2B6BB965B16C7F6D2B65B95D
:10222000078D10A1D801FC9061A56F216C93078DDB
:1022300010A1D801FC9065A16F296C936BB16370FC
:102240006B296BB965B16C7F6A2965B9078D10A1DF
:10225000D801FC9061A56F216C93078D10A1D80166
:10226000FC9065A16F296C936BB163706C2B6BB99B
:1022700065B16C7F6D2B65B9078D10A1D801FC90FD
:1022800061A56F216C93078D10A1D801FC9065A109
:102290006F296C936BB163706B296BB965B16C7FFF
:1022A0006A2965B9078D10A1D801FC9061A56F213D
:1022B0006C93078D10A1D801FC9065A16F296C93D8
:1022C0006BB163706C2B6BB965B16C7F6D2B65B9AD
:1022D000078D10A1D801FC9061A56F216C93078D2B
:1022E00010A1D801FC9065A16F296C936BB163704C
:1022F0006B296BB965B16C7F6A2965B9078D10A12F
:10230000D801FC9061A56F216C93078D10A1D801B5
:10231000FC9065A16F296C936BB163706C2B6BB9EA
:1023200065B16C7F6D2B65B9078D10A1D801FC904C
:1023300061A56F216C93078D10A1D801FC9065A158
:102340006F296C93715009F04DCF019710F070E137
:1023500049CF2F73215008F434CF8BB183708B2970
:102360008BB985B18C7F8A2985B9478D50A1DA0157
:102370009C9181A589238C93478D50A1DA019C9172
:1023800085A1892B8C938BB183708C2B8BB985B1F4
:102390008C7F8D2B85B9478D50A1DA019C9181A549
:1023A00089238C93478D50A1DA019C9185A1892BBB
:1023B0008C93D0CF0895CF93DF93EC010E948B03D1
:1023C000EB8DFC8D90818FA189238083DF91CF914C
:1023D00008958E3008F08E508770806480937C0062
:1023E00080917A00806480937A0080917A0086FDE3
:1023F000FCCF809178002091790090E0922B089595
:102400008F929F92AF92BF92CF92DF92EF92FF9204
:102410006B017C010E94B10F4B015C01C114D1041E
:10242000E104F104F1F00E94B10FDC01CB01881945
:102430009909AA09BB09883E9340A105B10570F32B
:1024400021E0C21AD108E108F10888EE880E83E085
:10245000981EA11CB11CC114D104E104F10419F7A8
:10246000DDCFFF90EF90DF90CF90BF90AF909F9027
:102470008F9008952FB7F8946091E1017091E20177
:102480008091E3019091E4012FBF08951F920F9274
:102490000FB60F9211242F933F938F939F93AF9377
:1024A000BF938091E1019091E201A091E301B0918D
:1024B000E4013091E00123E0230F2D3720F4019651
:1024C000A11DB11D05C026E8230F0296A11DB11D57
:1024D0002093E0018093E1019093E201A093E30156
:1024E000B093E4018091E5019091E601A091E701AC
:1024F000B091E8010196A11DB11D8093E501909373
:10250000E601A093E701B093E801BF91AF919F91DD
:102510008F913F912F910F900FBE0F901F901895A4
:10252000FC01A58DB68D9C9180A589238C938BB1E0
:10253000972F9C7F8370892B8BB985B173708C7FAB
:10254000782B75B9A78DB0A19C9181A589238C9317
:10255000A78DB0A19C9185A1892B8C938BB1962FCF
:102560009C7F8370892B8BB985B163708C7F682BBE
:1025700065B9A78DB0A19C9181A589238C93A78D66
:10258000B0A19C9185A1892B8C93A58DB68D9C9132
:1025900084A1892B8C938BB1952F9C7F8370892B81
:1025A0008BB985B153708C7F582B55B9A78DB0A1CD
:1025B0009C9181A589238C93A78DB0A19C9185A125
:1025C000892B8C938BB1942F9C7F8370892B8BB933
:1025D00085B143708C7F482B45B9A78DB0A19C91E4
:1025E00081A589238C93A78DB0A19C9185A1892B6E
:1025F0008C930895EF92FF920F931F93CF93DF93E5
:10260000EC018A01790177FD4DC057FD4BC08885EB
:102610009985681779070CF045C08A859B8548170E
:1026200059070CF03FC0EB8DFC8D90818FA1892361
:1026300080838D89823059F08330B1F08130D1F4BC
:102640008FEE90E0841B950B8B01BC0113C08FEEC5
:1026500090E09C01261B370BB9018FE391E09C01B0
:10266000241B350B890106C08FE391E0861B970B75
:10267000BA018C01AB0160E270E0CE010E949012C1
:10268000A80161E270E0CE010E949012A70162E20F
:1026900070E0CE010E949012EB8DFC8D90818BA199
:1026A000892B8083DF91CF911F910F91FF90EF9045
:1026B00008950F931F93CF93DF93EC018B01EB8D64
:1026C000FC8D90818FA18923808340E050E060E2FF
:1026D00070E0CE010E9490124FE351E061E270E0A1
:1026E000CE010E94901220E03CE241E050E0B801AF
:1026F000CE01DF91CF911F910F910C94D60F8F9245
:102700009F92AF92BF92CF92DF92EF92FF920F9380
:102710001F93CF93DF93EC015A014901EB8DFC8DA0
:1027200090818FA1892380838D89823089F08330C5
:1027300021F1813081F58FEE90E09C01201B310B5F
:102740007B016C01C41AD50A840146015B0113C0E8
:102750008FEE90E09C01281939094C01861A970ADE
:102760008FE391E0AC01401B510B8C010A191B094E
:10277000780164015A01B90110C08FE391E09C0116
:10278000281939097C01E61AF70A6A01480187010C
:10279000B501590102C07A016B01AB0160E570E03F
:1027A000CE010E949012A40161E570E0CE010E946A
:1027B0009012A50162E570E0CE010E949012A8017E
:1027C00063E570E0CE010E949012A60160E270E025
:1027D000CE010E949012A70161E270E0CE010E943A
:1027E0009012EB8DFC8D90818BA1892B8083DF91E2
:1027F000CF911F910F91FF90EF90DF90CF90BF90FE
:10280000AF909F908F9008958F929F92AF92BF92BA
:10281000CF92DF92EF92FF920F931F93CF93DF93AC
:10282000EC014701121613060CF059C010161106E0
:102830000CF055C0A885B9856A177B070CF04FC00E
:10284000CA84DB844C155D050CF049C05B01A20E07
:10285000B31EC501019797FD42C07A01E00EF11E3B
:10286000F7013197F7FD3BC077FF37C060E070E0BC
:1028700057FD02C0780102C040E050E08A179B0774
:102880002CF0CD0101975D01A61AB70AEC15FD05E4
:102890002CF0F60131977601E41AF50A8F019C01BC
:1028A000CE010E947F139701D5010E94EC229B016B
:1028B000AC01B401CE010E94D60F0A851B850150E0
:1028C0001109288539852150310940E050E060E048
:1028D00070E0CE010E947F1302C05901C9CFDF9181
:1028E000CF911F910F91FF90EF90DF90CF90BF900D
:1028F000AF909F908F900895CF92DF92EF92FF92CA
:102900000F931F93CF93DF93EC0168011216130608
:102910000CF03FC077FD3DC0888599856817790721
:10292000C4F5EA85FB854E175F079CF57A01E20E38
:10293000F31E87010150110917FD2BC057FF27C057
:1029400040E050E00E171F0734F08F0101501109CD
:102950007F01E41AF50A9B01CE010E947F139701C3
:10296000FF0C440B550BB601CE010E94D60F0A8511
:102970001B8501501109288539852150310940E016
:1029800050E060E070E0CE010E947F1302C0790148
:10299000D9CFDF91CF911F910F91FF90EF90DF90F2
:1029A000CF900895CF92DF92EF92FF920F931F93F3
:1029B000CF93DF93EC01680112161306F4F557FD6F
:1029C0003CC08A859B8548175907BCF5E885F98581
:1029D0006E177F0794F57B01E20EF31EC701019786
:1029E00097FD2BC077FF27C060E070E08E179F0730
:1029F0002CF0CF0101977F01E61AF70A8A019C01AA
:102A0000CE010E947F139701FF0C440B550BB601BA
:102A1000CE010E94D60F0A851B8501501109288519
:102A200039852150310940E050E060E070E0CE018E
:102A30000E947F1302C07901D9CFDF91CF911F91FE
:102A40000F91FF90EF90DF90CF900895CF92DF929B
:102A5000EF92FF920F931F93CF93DF936C017A0154
:102A60008B01C0E0D0E0CE15DF0589F0D8016D9173
:102A70008D01D601ED91FC910190F081E02DC60110
:102A80000995892B11F47E0102C02196ECCFC70174
:102A9000DF91CF911F910F91FF90EF90DF90CF903A
:102AA0000895682F80ED92E00C94BC09CF93C091FB
:102AB000DC0281E080933202C09311041092310253
:102AC000109230028091DD028F7390E00E945115C8
:102AD0008091DE028F71806890E00E945115809194
:102AE000DF028F71806A90E00E9451158091E002B0
:102AF0008F71806C90E00E9451158091E102806E90
:102B000090E00E9451158091E2028F70806690E003
:102B10000E9451158091E3028F70806790E00E94BF
:102B200051158091E4028F71806490E00E945115EC
:102B300080913002813208F046C090910F029111CD
:102B4000FCCF92E090930F0291E090930E029FEFE2
:102B500090930D0210920C0280930B02A0E1B2E060
:102B60002BEE31E0F9019E2F921B981718F49D91DE
:102B70009193F9CF1092EA018091EA01CC0FC82B12
:102B8000C093EA018091E901813061F41092E9017A
:102B90008091EA018093BB008091BC0083FDF8CF57
:102BA00085EC01C085EE8093BC0080910F028230DD
:102BB000E1F380910D028F3F31F080910D02803260
:102BC00011F080910D021092310210923002109299
:102BD0003202CF910895E091EA03F091EB039081E6
:102BE0008091F203892B8083E091EE03F091EF0353
:102BF00090818091F403892B8083E091F003F09120
:102C0000F10390818091F503892B80838091FA03F1
:102C1000882371F060E00E94290F62E070E080E09C
:102C200090E00E94001261E08091FA030E94290F57
:102C3000E091EA03F091EB0390818091F603892300
:102C40008083E091EC03F091ED0390818091F70394
:102C5000892380838BB183708BB985B18C7F85B9D3
:102C6000E091EE03F091EF0390818091F8038923C6
:102C70008083E091EE03F091EF0390818091F40363
:102C8000892B808383E0E091EE03F091EF032081B4
:102C90009091F80392239083E091EE03F091EF037B
:102CA00020819091F403922B9083815061F7E09101
:102CB000EA03F091EB0390818091F203892B8083EA
:102CC00008956115710579F0FB0101900020E9F785
:102CD0003197AF01461B570BDC01ED91FC9102804F
:102CE000F381E02D099480E090E008952F923F92C7
:102CF0004F925F926F927F928F929F92AF92BF920C
:102D0000CF92DF92EF92FF920F931F93CF93DF93B7
:102D1000CDB7DEB72C970FB6F894DEBF0FBECDBF90
:102D20009C878B87DC0193964C91939714969C918A
:102D3000149715968C911597ED91FC911197FA8344
:102D4000E98312963C91129713962C911397411197
:102D500005C051964C91442309F461C1292E382EA7
:102D600039872A87AB85BC851A96CD90DC901B9756
:102D70001C96AD90BC901D97CA14DB0410F4C601DC
:102D800001C0C50165E070E00E94D822462E512C9A
:102D9000EB85FC8560847184268137813C832B839D
:102DA00086849784D401ED91FC910284F385E02D13
:102DB000C40109958827992784199509FC01EE0F0C
:102DC000FF1FF887EF832B813C81240D351D3E8347
:102DD0002D83D401ED91FC912F8138852C0D3D1D63
:102DE0000684F785E02D71018501A3016D817E8147
:102DF000C4010995EF81F885AE0EBF1EF1E0AF1A50
:102E0000B108640C751C6B817C816C0D7D1D64198F
:102E10007509615071096101750101E09201A30119
:102E2000C4010E94FB0902E09201A3016D817E8131
:102E3000C4010E94FB09D401ED91FC910688F78939
:102E4000E02DC4010995EB85FC8524843584228519
:102E500033853C832B8380849184E680F780C6840D
:102E6000D784D601ED91FC910284F385E02DC60153
:102E70000995AB80BC80EF81F885AE0EBF1E37018F
:102E8000640C751CD601ED91FC910288F389E02D4C
:102E900009811A819501A401B301C6010995F401C4
:102EA000E20DF31DFE83ED83D601ED91FC914D8182
:102EB0005E81415051090288F389E02D09811A8110
:102EC0009501B301C6010995EF81F8852E0E3F1ECD
:102ED000840C951CD601ED91FC910088F189E02DC0
:102EE00009811A819101A401B701C6010995AB803E
:102EF000BC80AE0CBF1CD601ED91FC91B5016150B8
:102F000071090088F189E02D09811A819101A401DC
:102F1000C6010995E980FA8001E09201A401B3019C
:102F2000C6010E94CF0AA418B508B1E0AB1AB108D7
:102F3000E980FA8002E09201A401B501C6010E9475
:102F4000CF0A8D809E8084189508E1E08E1A910842
:102F5000E980FA8004E09201A401B501C6010E9453
:102F6000CF0AE980FA8008E09201A401B301C6010A
:102F70000E94CF0AD601ED91FC910688F789E02DD9
:102F8000C6010995EB85FC85F08884859585969525
:102F9000879520853185820F931FF4E0FF9E80196D
:102FA000910911246B857C85695E7F4FDB010D9053
:102FB0000020E9F711976D01C61AD70AAB85BC85C9
:102FC0001E96ED91FC911F971A962D913C911B979F
:102FD0003695279516964D915C911797240F351FBE
:102FE000B3E0FB9EA00111244C9D70014D9DF00C9F
:102FF0005C9DF00C11242E193F0935872487978793
:1030000086872985228B3A85338B208B318BAB8544
:10301000BC8550968C91811107C081E005C0232E9C
:10302000322E99878A879ECE848BEB85FC85868598
:1030300097850E94611681E0AB85BC8594968C9340
:1030400080E090E02C960FB6F894DEBF0FBECDBFA7
:10305000DF91CF911F910F91FF90EF90DF90CF9074
:10306000BF90AF909F908F907F906F905F904F90A8
:103070003F902F900895CF93DF93CDB7DEB7299778
:103080000FB6F894DEBF0FBECDBF789484B58260D2
:1030900084BD84B5816084BD85B5826085BD85B5FC
:1030A000816085BD80916E00816080936E0010927A
:1030B00081008091810082608093810080918100F5
:1030C0008160809381008091800081608093800086
:1030D0008091B10084608093B1008091B0008160E4
:1030E0008093B00080917A00846080937A00809110
:1030F0007A00826080937A0080917A008160809368
:103100007A0080917A00806880937A001092C100E2
:1031100080910F04909110049093150480931404EF
:10312000E0914302F091440282E08083E0913F020B
:10313000F09140021082E0914102F091420280E160
:10314000808310924B02E0914702F091480286E0A2
:103150008083E0914502F091460280818061808306
:10316000E0914502F0914602808188608083E09181
:103170004502F0914602808180688083E09145029B
:10318000F091460280818F7D808386E591E00E94E8
:10319000152361E08AE00E94290F61E08AE00E9425
:1031A000750F60E08AE00E94290F8BE99FE001978C
:1031B000F1F761E08AE00E94290F0E94EB150E945E
:1031C000EB15E091EA03F091EB0390818091F60317
:1031D0008923808306E815E0F80165917491F80170
:1031E0003296459154916F3F710531F4BA0180E0F8
:1031F00090E00E94001204C08FEC93E00E949012B5
:103200000C5F1F4F26E00E38120731F72FECE22E2D
:1032100023E0F22E6091E403C7010E94DB110FE36B
:1032200011E02FEE30E040E050E060E070E0C701D8
:103230000E947F1361E0C7010E94DB1160E070E033
:10324000C7010E94591360E070E0C7010E94591342
:103250008EE591E00E94152385E691E00E941523FA
:103260001092D9011092D8011092310210923002BE
:1032700010920F0281E080930E021092E90161E04A
:1032800082E10E94290F61E083E10E94290F809171
:10329000B9008E7F8093B9008091B9008D7F8093B3
:1032A000B90088E48093B80085E48093BC000E9454
:1032B000561587E290E00E94391F5C0166246A94EB
:1032C000762CFC0172A261A213A214A29093DB01DE
:1032D0008093DA014AE0C42ED12CD782C68284E7DB
:1032E00090E09187808754E6452E512C5386428684
:1032F0006CE1262E312C35862486718260820FE1A6
:1033000010E0138302837582648222E0208BF786AB
:10331000E68649E050E06FE671E0C50147960E94FD
:1033200006232CE23DE0F50136A325A3C5010E944A
:103330007616E091DA01F091DB0185E090E092A34E
:1033400081A37AEF872E912C9092EC028092EB026F
:1033500081E190E09093EE028093ED02E1E4AE2EE5
:10336000B12CB092F002A092EF0226E430E030934C
:10337000F2022093F1027092E6026092E50210934D
:10338000E8020093E7027092EA026092E90262E0CA
:103390006093F502F092F402E092F30249E050E00B
:1033A0006FE771E08CEF92E02E833F830E9406234B
:1033B0008CE29DE090930B0380930A031092070325
:1033C0001092060385EE92E00E9476169092130307
:1033D0008092120380E790E090931503809314038A
:1033E000B0921703A09216032E813F8130931903E8
:1033F0002093180370920D0360920C0310930F0337
:1034000000930E03709211036092100392E0909368
:103410001C03F0921B03E0921A0349E050E065E7B9
:1034200071E083E293E00E940623ECE2FDE0F0937A
:103430003203E093310381E090E090932E03809378
:103440002D038CE093E00E947616909261038092A7
:1034500060038DEC90E09093630380936203B092DD
:103460006503A09264038EE190E0909367038093DC
:10347000660370925B0360925A0310935D0300939E
:103480005C0370925F0360925E03F2E0F0936A0364
:10349000F0926903E092680349E050E068E771E068
:1034A00081E793E00E9406232CE23DE03093800305
:1034B00020937F0383E090E090937C0380937B03D1
:1034C0008AE593E00E947616D0923A03C0923903BF
:1034D00084EC90E090933C0380933B0350923E0336
:1034E00040923D033092400320923F037092340398
:1034F0006092330380E098EF909336038093350316
:10350000709238036092370332E030934303F092B5
:103510004203E092410349E050E06CE771E08AE445
:1035200093E00E9406238CE29DE0909359038093E0
:10353000580382E090E0909355038093540383E313
:1035400093E00E947616D0928803C09287038CE4A1
:1035500090E090938A038093890350928C03409269
:103560008B0330928E0320928D03709282036092BF
:103570008103109384030093830370928603609207
:10358000850392E090939103F0929003E0928F0371
:1035900049E050E062E871E088E993E00E94062388
:1035A000ECE2FDE0F093A703E093A60384E090E053
:1035B0009093A3038093A20381E893E00E94761680
:1035C00083E00E94FA0C67E871E083E392E00E94D6
:1035D00061166DE871E083E392E00E946116F4E207
:1035E0004F2EF3E05F2E612C712CA1EB8A2EACEFF5
:1035F0009A2EAA24AA94BA2C60E08091FD030E941E
:10360000750F60E08091FE030E94750F61E080916C
:1036100000040E94750F61E08091FF030E94750F06
:1036200080910B04E0910304F09104049081892BB4
:10363000808380910C04E0910704F09108042081BC
:1036400030E090E080959095822393238083809151
:10365000FD030E94E9118C018091FD030E94E91194
:103660009C01C801821B930B0496099738F4200F24
:10367000311F35952795F1E0F98301C019828FEF4D
:1036800093E0821B930B9B838A8360E0809100040C
:103690000E94750F60E08091FF030E94750F61E04A
:1036A0008091FD030E94750F61E08091FE030E94EE
:1036B000750F80910E04E0910904F0910A042081B5
:1036C00030E090E0809590958223932380838091D1
:1036D0000D04E0910504F09106049081892B80830C
:1036E0008091FF030E94E9117C018091FF030E94F9
:1036F000E9118C01C701801B910B0496099728F4EE
:103700000E0D1F1D1595079501C0198261E080916E
:1037100000040E94750F60E08091FD030E94750F08
:1037200080910B04E0910304F0910404208130E0C7
:1037300090E08095909582239323808380910E045E
:10374000E0910904F0910A049081892B8083809193
:10375000FF030E94E911998788878091FD030E94E9
:10376000E91120900104309002042114310409F47D
:1037700043C0BC01990F880B990B0E94DF216B019C
:103780007C0128853985B901330F880B990B0E947C
:10379000DF219B01AC01C701B6010E94352120E069
:1037A00030E040E85FE30E94C8206B017C01EA81C1
:1037B000FB81BF01FF0F880B990B0E94DF219B014A
:1037C000AC01C701B6010E946B226B017C01B10103
:1037D00080E090E00E94DD219B01AC01C701B601B1
:1037E0000E946B2220E030E040E85AE30E946B2206
:1037F0000E94A7217B0108C0E884F984E81AF90A2D
:10380000F1E0EF1AFCEFFF0A2981211102C0E12C3F
:10381000F12C61E086E00E94750F61E080E10E947A
:10382000750F61E08FE00E94750F61E087E00E94F4
:10383000750F3BE0E31AF1086DEDE61663E0F6065E
:1038400008F09CC00E943A126093DC017093DD0185
:103850008093DE019093DF012FEF33E0201B310BCB
:10386000C901330FAA0BBB0B9C01AD0124563109D2
:1038700041095109A0E4B1E00E948C20A30192010A
:103880000E946D2069017A011901EA81FB81CF0153
:10389000FF0FAA0BBB0B9C01AD012C5A3340410911
:1038A0005109A0EFB0E00E948C20A50194010E9474
:1038B0006D208901E091DA01F091DB016681778169
:1038C000C616D70614F182859385860F971FC816F2
:1038D000D906D8F46085718526173707B4F084853A
:1038E0009585860F971F2817390778F484A18823B8
:1038F00061F061E0CF012E833F834C835D830E94A2
:103900009D0D5D814C813F812E8185EE92E09B83F0
:103910008A83EA81FB8166817781261637062CF13E
:1039200082859385860F971FC816D906F0F46085A7
:10393000718506171707CCF084859585860F971F2C
:103940002817390790F4EA81FB8184A1882369F064
:1039500061E08A819B812E833F834C835D830E943B
:103960009D0D5D814C813F812E818A819B8187964F
:103970009B838A838F5C934061F625C00E943A1234
:103980000091DC011091DD012091DE013091DF0119
:10399000DC01CB01801B910BA20BB30BC397A105DC
:1039A000B10588F000E010E0C8018B519D4FFC018B
:1039B0002189222319F060E00E949D0D095D1F4FAF
:1039C0000A3E110589F70E94C50E16CEDF92EF92CE
:1039D000FF920F931F93CF93DF93109236021092B2
:1039E000350288EE93E0A0E0B0E080933702909338
:1039F0003802A0933902B0933A022AE031E03093C2
:103A000034022093330225EC30E0309340022093BF
:103A10003F0224EC30E0309342022093410220EC3C
:103A200030E0309344022093430221EC30E03093A5
:103A300046022093450222EC30E030934802209366
:103A4000470226EC30E030934A022093490210925C
:103A50004C0210924D0210924E0210924F021092A0
:103A6000D3021092D2028093D4029093D502A093F5
:103A7000D602B093D7028CE191E09093D10280936B
:103A8000D00260E070E08FEE99E00E94D21E909329
:103A9000100480930F048FE08093FD0380E18093F6
:103AA000FF0387E08093FE0386E0809300048CE2AE
:103AB00091E09093020480930104E2EBF6E0E4913C
:103AC000F0E0EE0FFF1FEE55F94F85919491909322
:103AD0000404809303048BEB96E0FC012491E22F15
:103AE000F0E0EE0FFF1FEE55F94F25913491309322
:103AF0000604209305046CEB76E0FB012491E22F91
:103B0000F0E0EE0FFF1FEE55F94F25913491309301
:103B1000080420930704E3EBF6E0E491F0E0EE0FF5
:103B2000FF1FEE55F94F2591349130930A042093ED
:103B30000904E4E9F6E0E491E0930B042DE936E0B2
:103B4000F901449140930D044EE956E0FA01A49125
:103B5000A0930C04E5E9F6E0E491E0930E04EAE0BA
:103B6000F0E0F093FC03E093FB031092D203109279
:103B7000D10300EF10E01093D4030093D303C0E40B
:103B8000D1E0D093D603C093D5031093D80300930C
:103B9000D703D093DA03C093D9031092E4031092B1
:103BA000DC031092DB031092DE031092DD03DD24B0
:103BB000D394D092E303EE24EA94FE2CF092E20335
:103BC000E092E103F092E003E092DF03D092E5039C
:103BD0001092E6031092E8031092E703EEE2F1E0A0
:103BE000F093D003E093CF03E2E1E093FA03EDEB2F
:103BF000F6E0E491F0E0EE0FFF1FEE55F94FA591CE
:103C0000B491B093EB03A093EA03FB016491E62F18
:103C1000F0E0EE0FFF1FEE55F94F65917491709330
:103C2000ED036093EC03FC01849190E0880F991FF1
:103C30008E55994FFC01659174917093EF036093D9
:103C4000EE03EAEBF6E0E491F0E0EE0FFF1FEE5535
:103C5000F94F859194919093F1038093F003EFE9EC
:103C6000F6E084918093F203FA0144914093F303C8
:103C7000F90124912093F403ECE9F6E0E491E09358
:103C8000F503982F90959093F60340954093F70392
:103C900020952093F803E095E093F903EC91E82B4D
:103CA000EC93E091EC03F091ED0390818091F303AC
:103CB000892B8083E091EE03F091EF039081809156
:103CC000F403892B8083E091F003F091F10390815C
:103CD0008091F503892B808361E081E10E94750F5B
:103CE00061E080E10E94750F61E08FE00E94750F36
:103CF00061E08EE00E94750F61E082E10E94290F71
:103D000061E082E10E94750F8AB18C6F8AB984B13B
:103D1000836084B91092E4031092DC031092DB03F9
:103D20001092DE031092DD03D092E303F092E003E1
:103D3000E092DF031093D8030093D703D093DA0304
:103D4000C093D90380E090E02FEF3FEFFC01EB51EF
:103D5000FD4F1786168632A321A313A214A28796BD
:103D60008A3E910599F784E48093DC0287E1809391
:103D7000DD021092DE021092DF021092E002109239
:103D8000E1028AE08093E2028FE08093E3028CE11B
:103D90008093E402DF91CF911F910F91FF90EF90FC
:103DA000DF9008950F931F93CF93DF93009731F423
:103DB0006115710519F480E090E03AC08B01EC01C7
:103DC0006EE070E081E090E00E941D1FFC01892BF5
:103DD00091F380E883830115110571F01387028741
:103DE00081E883838091120490911304892B21F43C
:103DF000F0931304E09312042097C9F0D187C08791
:103E00008381826083838091140490911504892BAF
:103E100071F4F0931504E0931404809116049091CA
:103E20001704892B21F4F0931704E0931604CF01B3
:103E3000DF91CF911F910F9108950F931F93CF930F
:103E4000DF93869F8001879F100D969F100D112490
:103E5000C8010E94391FEC01009729F0A80160E019
:103E600070E00E946620CE01DF91CF911F910F91EB
:103E70000895CF93DF938230910510F482E090E0B3
:103E8000E0911A04F0911B0420E030E0C0E0D0E0A3
:103E9000309711F14081518148175907C0F04817F8
:103EA000590761F482819381209719F09B838A835B
:103EB0002BC090931B0480931A0426C02115310552
:103EC00019F04217530718F49A01BE01DF01EF0100
:103ED0000280F381E02DDCCF2115310509F1281B8B
:103EE000390B2430310590F412968D919C911397E3
:103EF0006115710521F0FB019383828304C09093C7
:103F00001B0480931A04FD01329644C0FD01E20FA8
:103F1000F31F81939193225031092D933C933AC022
:103F20002091180430911904232B41F420910201AF
:103F3000309103013093190420931804209100015B
:103F4000309101012115310541F42DB73EB7409163
:103F5000040150910501241B350BE0911804F091E8
:103F60001904E217F307A0F42E1B3F0B281739079B
:103F700078F0AC014E5F5F4F2417350748F04E0FC5
:103F80005F1F50931904409318048193919302C0CA
:103F9000E0E0F0E0CF01DF91CF9108950F931F9300
:103FA000CF93DF93009709F48CC0FC013297138202
:103FB000128200911A0410911B040115110581F45D
:103FC00020813181820F931F2091180430911904B0
:103FD0002817390779F5F0931904E093180471C094
:103FE000D80140E050E0AE17BF0750F412962D9173
:103FF0003C911397AD012115310509F1D901F3CF9A
:104000009D01DA013383228360817181860F971FBE
:104010008217930769F4EC0128813981260F371F35
:104020002E5F3F4F318320838A819B8193838283DC
:10403000452B29F4F0931B04E0931A0442C0139615
:10404000FC93EE931297ED01499159919E01240F33
:10405000351FE217F30771F480819181840F951F5A
:10406000029611969C938E938281938113969C93D2
:104070008E931297E0E0F0E0D80112968D919C911A
:104080001397009719F0F8018C01F6CF8D919C9150
:1040900098012E5F3F4F820F931F2091180430919B
:1040A00019042817390769F4309729F410921B0472
:1040B00010921A0402C01382128210931904009302
:1040C0001804DF91CF911F910F910895DC0101C079
:1040D0006D9341505040E0F70895052E97FB1EF474
:1040E00000940E94842057FD07D00E94972007FC6F
:1040F00003D04EF40C948420509540953095219532
:104100003F4F4F4F5F4F0895909580957095619503
:104110007F4F8F4F9F4F08950E94B920A59F900D0C
:10412000B49F900DA49F800D911D11240895A1E2CC
:104130001A2EAA1BBB1BFD010DC0AA1FBB1FEE1F21
:10414000FF1FA217B307E407F50720F0A21BB30B6C
:10415000E40BF50B661F771F881F991F1A9469F7E8
:1041600060957095809590959B01AC01BD01CF0144
:104170000895A29FB001B39FC001A39F700D811D40
:104180001124911DB29F700D811D1124911D089560
:104190005058BB27AA270E94E0200C9431220E948D
:1041A000232238F00E942A2220F039F49F3F19F48C
:1041B00026F40C9420220EF4E095E7FB0C941A22CE
:1041C000E92F0E94422258F3BA1762077307840747
:1041D000950720F079F4A6F50C9464220EF4E0958E
:1041E0000B2EBA2FA02D0B01B90190010C01CA01B1
:1041F000A0011124FF27591B99F0593F50F4503E5C
:1042000068F11A16F040A22F232F342F4427585F4D
:10421000F3CF469537952795A795F0405395C9F765
:104220007EF41F16BA0B620B730B840BBAF091501D
:10423000A1F0FF0FBB1F661F771F881FC2F70EC0BC
:10424000BA0F621F731F841F48F48795779567958F
:10425000B795F7959E3F08F0B0CF9395880F08F07B
:104260009927EE0F9795879508950E9449210C9400
:1042700031220E942A2258F00E94232240F029F481
:104280005F3F29F00C941A2251110C9465220C9472
:1042900020220E94422268F39923B1F3552391F31F
:1042A000951B550BBB27AA2762177307840738F0A5
:1042B0009F5F5F4F220F331F441FAA1FA9F335D002
:1042C0000E2E3AF0E0E832D091505040E695001CB6
:1042D000CAF72BD0FE2F29D0660F771F881FBB1F70
:1042E000261737074807AB07B0E809F0BB0B802D4E
:1042F000BF01FF2793585F4F3AF09E3F510578F07A
:104300000C941A220C9465225F3FE4F3983ED4F398
:10431000869577956795B795F7959F5FC9F7880F4D
:10432000911D9695879597F90895E1E0660F771F9F
:10433000881FBB1F621773078407BA0720F0621B30
:10434000730B840BBA0BEE1F88F7E09508950E945B
:10435000AE216894B1110C94652208950E944A22FE
:1043600088F09F5798F0B92F9927B751B0F0E1F036
:10437000660F771F881F991F1AF0BA95C9F714C0E6
:10438000B13091F00E946422B1E008950C9464224F
:10439000672F782F8827B85F39F0B93FCCF386951F
:1043A00077956795B395D9F73EF49095809570957C
:1043B00061957F4F8F4F9F4F0895E89409C097FBF9
:1043C0003EF490958095709561957F4F8F4F9F4FEC
:1043D0009923A9F0F92F96E9BB279395F695879530
:1043E00077956795B795F111F8CFFAF4BB0F11F4F3
:1043F00060FF1BC06F5F7F4F8F4F9F4F16C088239A
:1044000011F096E911C0772321F09EE8872F762FCF
:1044100005C0662371F096E8862F70E060E02AF010
:104420009A95660F771F881FDAF7880F96958795FC
:1044300097F9089597F99F6780E870E060E0089524
:104440009FEF80EC089500240A94161617061806AC
:104450000906089500240A94121613061406050688
:104460000895092E0394000C11F4882352F0BB0F19
:1044700040F4BF2B11F460FF04C06F5F7F4F8F4F7C
:104480009F4F089557FD9058440F551F59F05F3FB7
:1044900071F04795880F97FB991F61F09F3F79F066
:1044A00087950895121613061406551FF2CF4695E8
:1044B000F1DF08C0161617061806991FF1CF86956A
:1044C0007105610508940895E894BB27662777274E
:1044D000CB0197F908950E947E220C9431220E940C
:1044E000232238F00E942A2220F0952311F00C9408
:1044F0001A220C94202211240C9465220E9442223C
:1045000070F3959FC1F3950F50E0551F629FF00126
:10451000729FBB27F00DB11D639FAA27F00DB11D3F
:10452000AA1F649F6627B00DA11D661F829F2227C8
:10453000B00DA11D621F739FB00DA11D621F839F4F
:10454000A00D611D221F749F3327A00D611D231F25
:10455000849F600D211D822F762F6A2F11249F5773
:1045600050409AF0F1F088234AF0EE0FFF1FBB1F76
:10457000661F771F881F91505040A9F79E3F510535
:1045800080F00C941A220C9465225F3FE4F3983E6D
:10459000D4F3869577956795B795F795E7959F5FDF
:1045A000C1F7FE2B880F911D9695879597F9089571
:1045B000AA1BBB1B51E107C0AA1FBB1FA617B70749
:1045C00010F0A61BB70B881F991F5A95A9F7809565
:1045D0009095BC01CD0108950E94B920332312F4B7
:1045E0008A1B9B0B0C94F6220E94B920B7FF0895FA
:1045F000821B930B0895EE0FFF1F0590F491E02DA1
:10460000099481E090E0F8940C944523FB01DC01CF
:104610004150504048F001900D920020C9F701C070
:104620001D9241505040E0F708950F931F93CF9390
:10463000DF93E0911404F0911504238121FF1BC046
:104640008C01D0E0C0E0F80181918F0160911404E9
:1046500070911504DB011896ED91FC911997882350
:1046600031F00995892B79F3DFEFCFEFECCF8AE0BA
:104670000995892B19F08FEF9FEF02C08D2F9C2F8A
:0E468000DF91CF911F910F910895F894FFCF15
:10468E0000001C048000000000005C0E2615F40DD6
:10469E00A30E250E030E170E00000000BC098C0998
:1046AE00EC09660984097509670900000000B60562
:1046BE002615EC09EB09FA12890882085A087608C1
:1046CE006A088A085908DB11DA117C14D214041412
:1046DE005913EB068C06496E69742E2E2E00544625
:1046EE0054206F6B00537461727420493243002161
:1046FE004241535300444E00564F4C0053455455BF
:10470E00500054524542005374617274000D0A00F9
:00000001FF
