:100000000C9467030C948F030C948F030C948F0350
:100010000C948F030C948F030C948F030C948F0318
:100020000C948F030C948F030C948F030C948F0308
:100030000C948F030C948F030C948F030C948F03F8
:100040000C9409180C948F030C94E3100C94BD10BD
:100050000C948F030C948F030C948F030C948F03D8
:100060000C94300D0C948F0300000000003E55519D
:10007000553E3E6B6F6B3E0C1E3C1E0C081C3E1C1E
:10008000081C4A7F4A1C185C7F5C18001C1C1C0062
:100090007F6363637F001C141C007F636B637F308E
:1000A000484D3307062979290620503F020C607F0E
:1000B00005353F2A1C771C2A007F3E1C08081C3E81
:1000C0007F0014227F2214005F005F0006097F0179
:1000D0007F4A55555529606060606054627F625464
:1000E00008047E040808103F100808082A1C0808A5
:1000F0001C2A08081C101010101C3E083E1C303C26
:100100003F3C30061E7E1E06000000000000005F1F
:1001100000000007000700147F147F14242A7F2AA0
:10012000122313086462364956205000000700006D
:10013000001C2241000041221C0014083E08140843
:10014000083E080800A060000008080808080060D1
:1001500060000020100804023E5149453E44427FA1
:10016000404042615149462141454B311814127FAC
:100170001027454545393C4A494930017109050375
:100180003649494936064949291E006C6C00000071
:10019000AC6C000008142241001414141414004123
:1001A00022140802015109063E415D555E7C121180
:1001B000127C7F494949363E414141227F414122DB
:1001C0001C7F494949417F090909013E4149497A52
:1001D0007F0808087F00417F41002040413F017FA8
:1001E000081422417F404040607F020C027F7F0460
:1001F00008107F3E4141413E7F090909063E4151B9
:10020000215E7F09192946464949493103017F0189
:10021000033F4040403F1F2040201F3F403C403FA5
:1002200063140814630708700807615149454300C7
:100230007F41410002040810200041417F00040278
:100240000102044040404040000102040020545498
:1002500054787F48444438384444444838444448F7
:100260007F3854545418087E090102085454583CED
:100270007F0804047800447D40002040443D007F16
:100280001010284400417F40007C047804787C08EA
:1002900004047838444444387C14141408081414B2
:1002A0000C7C7C080404084854545424043F444003
:1002B000203C4040207C1C2040201C3C4038403CDE
:1002C00044281028440C5050503C4464544C440082
:1002D0000836410000007F0000004136080002019E
:1002E0000204027048444870000E110E0000121FF4
:1002F000100000121916000011150B000007041F52
:10030000000017150900000E15090000011D03006B
:10031000000A150A000012150E000004040400FF74
:10032000FFFFFFFF3E000000003E3E0000003E3E9B
:10033000003E003E3E003E3E8080808080C0C0C0C7
:10034000C0C0D0D0D0D0D0D8D8D8D8D8DADADADA7D
:10035000DADBDBDBDBDB40004000406000400040DC
:10036000600070004060007000787C004000407CBD
:10037000007E00407C007E007F1C7741414141416E
:100380004141414141417F001C77415D5D41414117
:100390005D5D5D5D415D5D5D5D417F00221C141C06
:1003A0002200081C08000000770000465D555D3102
:1003B0007C5554554408082A0808001408140008FD
:1003C000142208147F4171311F03057F0503221495
:1003D0007F552202557D0502060909060044445F47
:1003E00044441C141C227F203E613E2020503F02CA
:1003F0000C807C203C40443C047C4400000800000D
:1004000038555455187E08107F010810080402144E
:10041000082214080E060A102020100A060E383092
:1004200028040202042830387E1111117E7F4949C8
:1004300049317F494949367F01010103C07F417F2E
:10044000C07F4949494177087F0877414949493682
:100450007F1008047F7C2112097C7F081422414010
:100460003E01017F7F020C027F7F0808087F3E412A
:1004700041413E7F0101017F7F090909063E41415B
:10048000412201017F0101074848483F0E117F11B9
:100490000E63140814637F40407FC0070808087F7C
:1004A0007F407F407F7F407F40FF017F4848307F13
:1004B0004848307F7F48484830224149493E7F08BC
:1004C0003E413E462919097F20545454783C4A4AFB
:1004D00049317C545454287C0404040CC078447C76
:1004E000C038545454186C107C106C445454542824
:1004F0007C2010087C7C4026107C7C101028444016
:100500003804047C7C0810087C7C1010107C384473
:100510004444387C0404047C7C1414140838444497
:10052000444804047C04040C5050503C1824FC241F
:100530001844281028447C40407CC00C1010107CCB
:100540007C407C407C7C407C40FC047C5050207C87
:100550005050207C7C5050502028445454387C10FB
:10056000384438483414147C0100000102000007AC
:100570000300301008000203090000000A00080010
:100580001000900711000500120000001300000089
:100590001000B0121100070012008C0013000017A9
:1005A000290022003000000031000505320005025C
:1005B0003500060236000804370000003800040544
:1005C000390006023C0006023D000804500000000D
:1005D0005100EF005200000053003F01600000A7EF
:1005E00061000100900033000700330101000001A9
:1005F0000200000703003010080002030900000099
:100600000A00080010009007110005001200000009
:10061000130000001000B0121100070012008C003F
:1006200013000017290022003000000031000505EA
:1006300032000502350006023600080437000000CB
:1006400038000405390006023C0006023D0008049B
:10065000500000005100EF005200000053003F0125
:10066000600000A761000100900033000700330123
:100670001F1C1F1E1F1E1F1F1E1F1E1F01020408FE
:1006800010204080010204081020010204081020FC
:1006900000000000250028002B00040404040404CA
:1006A0000404020202020202030303030303000024
:1006B0000000240027002A000000000800020100BA
:1006C000000304070000000000000000FB1E1124CE
:1006D0001FBECFEFD8E0DEBFCDBF12E0A0E0B1E09B
:1006E000EAEAF6E502C005900D92A230B107D9F70B
:1006F00025E0A2E0B2E001C01D92A73AB207E1F7FF
:1007000013E0C7E6D3E004C02197FE010E941B2836
:10071000C636D107C9F70E943E1A0C94532B0C948D
:1007200000000895FC016370658B848195812681AA
:100730003781613039F0633029F0918780873387C2
:1007400022870895318720879387828708952F9283
:100750003F924F925F926F927F928F929F92AF9251
:10076000BF92CF92DF92EF92FF920F931F93CF939E
:10077000DF93CDB7DEB76C970FB6F894DEBF0FBE30
:10078000CDBF9C8F8B8F5B011A011F830E833701B6
:10079000C982DC0158964D915C91599741155105DC
:1007A00009F0E5C018968D919C9119976817790703
:1007B0000CF0CAC11A968D919C911B972816390688
:1007C0000CF0C2C18C2C912CFB0136E0C39EE00DD5
:1007D000F11D1124FB87EA871E161F060CF0B4C119
:1007E000C40133E0880F991F3A95E1F79D878C8704
:1007F000820D931D181619060CF0A6C157968C9100
:10080000811103C0203B08F02F5FAB8DBC8DED91B3
:10081000FC9111970284F385E02DCD012A8F099573
:100820002A8DB5E02B9F90011124F5013596FF87A5
:10083000EE87BB82AA822501A9014A195B09598B5F
:10084000488BC10108969B8B8A8BE889F989E40D56
:10085000F51DE859FF4F9491988761013D822C82E4
:10086000A885A0FF13C0AB8DBC8DED91FC91B98123
:10087000B13031F40484F585E02D2E813F8116C01E
:100880000684F785E02DEE80FF801AC0EE81FF819F
:100890006E167F06F1F0AB8DBC8DED91FC91B981A8
:1008A000B13051F40484F585E02D9301A601B20125
:1008B0008B8D9C8D09950DC00684F785E02D730105
:1008C000840194014C815D816A817B818B8D9C8D3B
:1008D0000995E885E695E887FFEFCF1ADF0A2C81B6
:1008E0003D81280D391D3D832C834A895B89C416BF
:1008F000D50609F0B5CF5FEF451A550A8A819B816D
:10090000880D991D9B838A83AE85BF854A165B0639
:1009100009F09BCFEE81FF816E167F0609F4F2C0CD
:10092000EB8DFC8DA081B181F981F13079F4B501B5
:100930006B5F7F4F5096ED91FC915197830128E0BA
:1009400030E0A1018B8D9C8D0995DCC06A857B858B
:10095000681979091E96ED91FC911F9773010C851A
:100960001D859401A1018B8D9C8D0995CBC0FA0149
:1009700034969491329765917491291BCB01B7E01D
:100980002B9F800D911D1124FA01259134913B8BF1
:100990002A8BFC01459154915B834A83FC0132967A
:1009A000C490319654915E87329614913196D490CA
:1009B0008981823058F0612E012E000C7708AD2D10
:1009C0000D2C000CBB0BB987A88704C019861886AC
:1009D000612C712CAB8DBC8DED91FC911197028433
:1009E000F385E02DCD010995B9818B2E912C689C62
:1009F000C001699C900D789C900D1124FC01EA0DBA
:100A0000FB1DFD87EC871C82712C612CE12F110FDF
:100A1000FF0B95012E0F3F1F3B872A87AC0CB11CA3
:100A2000A5014E0F5F1F5F8B4E8BC1018D0D911D78
:100A3000D7FC9A95998F888F4E85641608F062C00E
:100A4000862D90E048855985480F591F489D900193
:100A5000499D300D589D300D1124D901A20DB31DB3
:100A6000B98BA88BAA84BB844C845D84DC80BA8556
:100A7000DB1AE88DF98DE80FF91FFD8BEC8B8D2DBE
:100A80008A0D2E893F89A216B306B9F1877061F4E9
:100A90008A819B810196EA89FB89AA81BB81EA0F41
:100AA000FB1F74909B838A8377FE20C0AB8DBC8D27
:100AB000ED91FC91B981B13061F40484F585E02DAC
:100AC0002E813F814C895D89B5018B8D9C8D099567
:100AD0000DC00684F785E02DEE80FF80840194012F
:100AE00048895989B2018B8D9C8D0995770CEFEF60
:100AF000AE1ABE0A480C591CC2CF3C813C0D3C8347
:100B000063949ACFAB8DBC8DED91FC9111970688C3
:100B1000F789E02DCD016C960FB6F894DEBF0FBEBD
:100B2000CDBFDF91CF911F910F91FF90EF90DF909C
:100B3000CF90BF90AF909F908F907F906F905F907D
:100B40004F903F902F9009946C960FB6F894DEBFAB
:100B50000FBECDBFDF91CF911F910F91FF90EF900E
:100B6000DF90CF90BF90AF909F908F907F906F90CD
:100B70005F904F903F902F900895AF92BF92CF9289
:100B8000EF92FF920F931F93CF93DF93EC01262FE9
:100B9000888D998D009709F040C06A3059F41D8600
:100BA0001C862C898E859F8538E0239F800D911DA2
:100BB000112441C06D3009F4AAC08E898823C1F088
:100BC0003C898C859D8546E0349F800D911D1124C4
:100BD00048855985481759075CF41D861C868E8503
:100BE0009F8548E0349F800D911D11249F878E873B
:100BF000EA88FB88088919894E855F856C857D8523
:100C0000CC88CE010E94A7032C898C859D8536E077
:100C1000239F800D911D112442C06A3079F41D86F6
:100C20001C862C89FC013696E4918E859F852E9F2B
:100C3000800D911D11249F878E8769C06D3009F446
:100C400066C0FC0134963491631708F460C0319695
:100C5000E491E61708F45BC0FC013296A590B490CD
:100C6000462F50E0431B510937E0349FB001359FB8
:100C7000700D1124A60EB71EF501329634913196EF
:100C8000E491332311F0E1110DC0F5013496E491A4
:100C90002C898C859D85E29F800D911D11249D8757
:100CA0008C8735C0F501359644915E89552311F145
:100CB0006C89E32FF0E0E40FF11D47FDFA956E9F7C
:100CC000D0016F9FB00D11244C855D854A0F5B1FCD
:100CD000E885F985E417F5076CF41D861C86FC0190
:100CE0003696E4918E859F856E9F800D911D11240F
:100CF0009F878E87EA88FB88088919894E855F85DA
:100D00006C857D85CC88CE010E94A703BECF81E093
:100D100090E0DF91CF911F910F91FF90EF90CF90D6
:100D2000BF90AF9008956F927F928F929F92AF92F3
:100D3000BF92CF92DF92EF92FF920F931F93CF93C8
:100D4000DF93EC014B015A0169013801E881F98117
:100D50000284F385E02D0995E881F9810288F38901
:100D6000E02D87019601A501B401CE010995E88126
:100D7000F981A501460D571D415051090288F3899B
:100D8000E02D9601B401CE010995E881F981008832
:100D9000F189E02D9301A501B401CE010995E88107
:100DA000F981C80CD91CB601615071090088F1891C
:100DB000E02D9301A501CE010995E881F98106880E
:100DC000F789E02DCE01DF91CF911F910F91FF9018
:100DD000EF90DF90CF90BF90AF909F908F907F90DB
:100DE0006F900994CF92DF92EF92FF920F931F932F
:100DF000CF93DF9300D000D000D0CDB7DEB76C0129
:100E0000DC01ED91FC916217730789F40417150753
:100E10002CF4942F852FA801092F182F041B150BD4
:100E200098012F5F3F4F048CF58DE02D12C04017C5
:100E3000510709F5261737072CF4962F872FB9018C
:100E4000292F382F261B370B2F5F3F4F068CF78D2E
:100E5000E02D8701C601099526960FB6F894DEBFEE
:100E60000FBECDBFDF91CF911F910F91FF90EF90FB
:100E7000DF90CF9008950284F385E02D2D833E838B
:100E80004B835C8369837A830995D601ED91FC914C
:100E90000488F589E02D2D813E814B815C8169813B
:100EA0007A81C6010995D601ED91FC910688F789F2
:100EB000E02DC60126960FB6F894DEBF0FBECDBF5B
:100EC000DF91CF911F910F91FF90EF90DF90CF9026
:100ED0000994EF92FF920F931F93DC01ED91FC9127
:100EE00011971A960D911C911B9718962D913C9174
:100EF000199700A0F1A1E02D7B0140E050E060E0F7
:100F000070E009951F910F91FF90EF9008954F9217
:100F10005F926F927F928F929F92AF92BF92CF9289
:100F2000DF92EF92FF920F931F93CF93DF9300D046
:100F3000CDB7DEB76C015A0139014801DC01ED91F2
:100F4000FC910284F385E02D69837A830995698198
:100F5000462E7A81572E640C751CD601ED91FC91BA
:100F6000461457046CF40088F189E02D8701940140
:100F7000A501B201C6010995BFEF4B1A5B0AEDCF7F
:100F80000688F789E02DC6010F900F90DF91CF9171
:100F90001F910F91FF90EF90DF90CF90BF90AF9097
:100FA0009F908F907F906F905F904F900994AF9239
:100FB000BF92CF92DF92EF92FF920F931F93CF9346
:100FC000DF9300D000D0CDB7DEB75C016901DC0152
:100FD000ED91FC910284F385E02D4B835C83698362
:100FE0007A830995D501ED91FC9169817A819B0104
:100FF0002C0D3D1D215031090488F589E02D780123
:101000004B815C818A01C5010995D501ED91FC9167
:101010000688F789E02DC5010F900F900F900F9073
:10102000DF91CF911F910F91FF90EF90DF90CF90C4
:10103000BF90AF900994AF92BF92CF92DF92EF92A0
:10104000FF920F931F93CF93DF9300D000D0CDB7C3
:10105000DEB75C016901DC01ED91FC910284F3854E
:10106000E02D4B835C8369837A830995D501ED91EB
:10107000FC914B815C81C40ED51EB1E0CB1AD10826
:101080000488F589E02D7801860169817A819B01C8
:10109000C5010995D501ED91FC910688F789E02DF0
:1010A000C5010F900F900F900F90DF91CF911F917E
:1010B0000F91FF90EF90DF90CF90BF90AF90099489
:1010C0000895EF92FF920F931F93DC01ED91FC9135
:1010D00000A0F1A1E02D09951F910F91FF90EF90D5
:1010E00008950F931F93DC01ED91FC91068CF78D11
:1010F000E02D09951F910F9108950F931F93DC0127
:10110000ED91FC91048CF58DE02D09951F910F91C7
:101110000895DC01ED91FC910084F185E02D0994A6
:1011200008952F923F924F925F926F927F928F928B
:101130009F92AF92BF92CF92DF92EF92FF920F9366
:101140001F93CF93DF9300D01F92CDB7DEB74C0132
:101150007B836A836A01590117019801241B350BAF
:1011600037FF03C0319521953109C5014A815B8163
:10117000841B950B97FF03C091958195910951E0D0
:1011800059838217930714F019820BC09A2D8B2D67
:101190005801092F182F9A818B81DB82CA82C92EB0
:1011A000D82E8A819B81A816B9065CF49C2D8D2DC2
:1011B0006801092F182F9A818B81BB82AA82A92EE0
:1011C000B82E2501AA81BB814A1A5B0A38016C1826
:1011D0007D0877FE03C0719461947108720157FE17
:1011E00003C0BFEFEB1AFB0AF594E794C016D106D3
:1011F0001CF00FEF1FEF1FC001E010E01CC0D40176
:10120000ED91FC91B9810484F585E02D9101BB231A
:10121000C1F04A815B81B601C4010995E618F7085F
:10122000F7FE04C0C00ED11EE40CF51CEA81FB8160
:101230003196FB83EA834A815B81A416B506FCF6EE
:1012400004C0A6016A817B81E7CF0F900F900F90B9
:10125000DF91CF911F910F91FF90EF90DF90CF9092
:10126000BF90AF909F908F907F906F905F904F90C6
:101270003F902F90089585ED8093BC008091BC0035
:1012800084FDFCCF10927105089540912802262F0D
:1012900030E0240F311D21323105DCF4209171053D
:1012A0002430C9F4FC0180E090E0861758F43091B6
:1012B00028022191DC01AA5FBD4FA30FB11D2C9321
:1012C0000196F3CF80912802680F6093280280E096
:1012D000089581E0089582E008950895E091F5026F
:1012E0008091F402E81730F4F0E0E55DFA4F808178
:1012F00090E008958FEF9FEF08959091F50280910F
:10130000F402981750F4E92FF0E0E55DFA4F2081E0
:1013100030E09F5F9093F50202C02FEF3FEFC901CD
:1013200008958091F40290E02091F502821B9109CA
:101330000895CF92DF92EF92FF920F931F93CF9376
:10134000DF937C01262F972F8A01809172058823D5
:1013500091F0C62FD72F6E01C40ED51ECC15DD051A
:1013600071F06991D701ED91FC910190F081E02D30
:10137000C7010995F3CF642F822F0E944509C80148
:10138000DF91CF911F910F91FF90EF90DF90CF9061
:101390000895CF93DF931F92CDB7DEB76983209175
:1013A00072052223D1F02091F202203240F021E098
:1013B00030E0FC013383228380E090E015C080910F
:1013C000F302E82FF0E0ED58FA4F998190838F5F98
:1013D0008093F3028093F20205C061E0CE01019692
:1013E0000E94450981E090E00F90DF91CF91089530
:1013F000089580E090E00895CF93C82F0E94FD17D4
:101400006093CE047093CF048093D0049093D10462
:101410001F92CF9386E591E09F938F930E9435288A
:10142000809102030F900F900F900F90C63011F42F
:1014300081E066C0C11118C0823050F48091E1048F
:10144000882319F081508093E1040E9495145AC0BA
:101450008330E9F48091E704982F977083FD11C0E1
:10146000973089F48FE010C0C13009F03FC082305E
:10147000D0F0833029F58091E704982F977083FD91
:1014800018C0992311F381508093E704DECF823096
:10149000C9F58091E604982F977083FD19C09730A5
:1014A000D1F48FE01DC08091E1048F3370F68F5F1F
:1014B000CACF973011F08F5FE7CF9093E704C5CF85
:1014C000823001F58091E604982F977083FD05C066
:1014D000992309F4BACF815003C0973021F08F5F70
:1014E0008093E604B2CF9093E604AFCFC23009F404
:1014F0009FCFC43011F483E003C0C33019F482E0FD
:101500000E9427130E94FD17609303037093040346
:101510008093050390930603CF910895CF93C82F2E
:10152000682F85E592E00E9454108C2FCC0F990B08
:10153000CF910895AF92BF92CF92DF92EF92FF9238
:101540000F931F93CF93DF93FC01A38DB48D9C91D8
:1015500087A189238C93A58DB68D9C9180A5892325
:101560008C938BB183708BB985B18C7F85B9A78D36
:10157000B0A19C9181A589238C93A78DB0A19C914A
:1015800085A1892B8C938BB1837080628BB985B1D7
:101590008C7F826085B9A78DB0A19C9181A589239C
:1015A0008C93A78DB0A19C9185A1892B8C93A58D3F
:1015B000B68D9C9184A1892B8C938BB1972F9C7FA6
:1015C000B92E8370892B8BB985B1A72FA370AA2E52
:1015D0008C7F8A2B85B9C78DD0A1988181A589235D
:1015E0008883C78DD0A1988185A1892B88838BB1F1
:1015F000C62FCC7F83708C2B8BB985B1D62FD3703F
:101600008C7F8D2B85B9078D10A1D8019C9181A568
:1016100089238C93078D10A1D8019C9185A1892BDA
:101620008C93215031094109510969017A0186E001
:10163000F694E794D794C7948A95D1F7C6017613A8
:1016400048C1019708F465C060E1A78DB0A1CC91B5
:1016500071A57C237C93A78DB0A1CC9175A17C2B27
:101660007C93A78DB0A1CC9171A57C237C93A78D91
:10167000B0A1CC9175A17C2B7C93A78DB0A1CC910E
:1016800071A57C237C93A78DB0A1CC9175A17C2BF7
:101690007C93A78DB0A1CC9171A57C237C93A78D61
:1016A000B0A1CC9175A17C2B7C93A78DB0A1CC91DE
:1016B00071A57C237C93A78DB0A1CC9175A17C2BC7
:1016C0007C93A78DB0A1CC9171A57C237C93A78D31
:1016D000B0A1CC9175A17C2B7C93A78DB0A1CC91AE
:1016E00071A57C237C93A78DB0A1CC9175A17C2B97
:1016F0007C93A78DB0A1CC9171A57C237C93A78D01
:10170000B0A1CC9175A17C2B7C93615009F09DCF49
:1017100098CF2F732150C8F0A78DB0A19C9181A5BF
:1017200089238C93A78DB0A19C9185A1892B8C9343
:10173000A78DB0A19C9181A589238C93A78DB0A181
:101740009C9185A1892B8C93E5CFA38DB48D9C9121
:1017500083A1892B8C93DF91CF911F910F91FF90E3
:10176000EF90DF90CF90BF90AF9008956BB1637012
:101770006B296BB965B16C7F6A2965B9078D10A1BA
:10178000D801FC9061A56F216C93078D10A1D80141
:10179000FC9065A16F296C936BB163706C2B6BB976
:1017A00065B16C7F6D2B65B9078D10A1D801FC90D8
:1017B00061A56F216C93078D10A1D801FC9065A1E4
:1017C0006F296C936BB163706B296BB965B16C7FDA
:1017D0006A2965B9078D10A1D801FC9061A56F2118
:1017E0006C93078D10A1D801FC9065A16F296C93B3
:1017F0006BB163706C2B6BB965B16C7F6D2B65B988
:10180000078D10A1D801FC9061A56F216C93078D05
:1018100010A1D801FC9065A16F296C936BB1637026
:101820006B296BB965B16C7F6A2965B9078D10A109
:10183000D801FC9061A56F216C93078D10A1D80190
:10184000FC9065A16F296C936BB163706C2B6BB9C5
:1018500065B16C7F6D2B65B9078D10A1D801FC9027
:1018600061A56F216C93078D10A1D801FC9065A133
:101870006F296C936BB163706B296BB965B16C7F29
:101880006A2965B9078D10A1D801FC9061A56F2167
:101890006C93078D10A1D801FC9065A16F296C9302
:1018A0006BB163706C2B6BB965B16C7F6D2B65B9D7
:1018B000078D10A1D801FC9061A56F216C93078D55
:1018C00010A1D801FC9065A16F296C93715009F0AB
:1018D0004DCF019710F070E149CF2F73215008F4DC
:1018E00034CF8BB183708B298BB985B18C7F8A29DA
:1018F00085B9478D50A1DA019C9181A589238C93EC
:10190000478D50A1DA019C9185A1892B8C938BB1D5
:1019100083708C2B8BB985B18C7F8D2B85B9478DCE
:1019200050A1DA019C9181A589238C93478D50A108
:10193000DA019C9185A1892B8C93D0CF8F929F92B5
:10194000AF92BF92CF92DF92EF92FF920F931F93CD
:10195000CF93DF93EC015A014901EB8DFC8D90810F
:101960008FA1892380838D89823089F0833021F192
:10197000813081F58FEE90E09C01201B310B7B01C3
:101980006C01C41AD50A840146015B0113C08FEEB5
:1019900090E09C01281939094C01861A970A8FE3B7
:1019A00091E0AC01401B510B8C010A191B09780115
:1019B00064015A01B90110C08FE391E09C0128191C
:1019C00039097C01E61AF70A6A0148018701B50165
:1019D000590102C07A016B01AB0160E570E0CE01F4
:1019E0000E945318A40161E570E0CE010E945318D3
:1019F000A50162E570E0CE010E945318A80163E5DD
:101A000070E0CE010E945318A60160E270E0CE01A2
:101A10000E945318A70161E270E0CE010E945318A2
:101A2000EB8DFC8D90818BA1892B8083DF91CF91F1
:101A30001F910F91FF90EF90DF90CF90BF90AF90EC
:101A40009F908F900895FC01908190539A3008F0F8
:101A500090E0818180532AE0929F800D11240895A7
:101A60001F920F920FB60F9211242F933F934F9313
:101A70005F936F937F938F939F93AF93BF93EF93F6
:101A8000FF938091B900887F803609F49CC068F587
:101A9000883209F45BC090F4803109F454C038F402
:101AA000882309F4F6C0883009F44DC0F6C08831A7
:101AB00009F44CC0803209F45DC0EFC0803409F4F1
:101AC00068C048F4803309F455C0883309F0E5C094
:101AD00080936F05D8C0803509F44FC0883509F46C
:101AE0005DC0883409F0D9C0D6C0883909F4C7C0B0
:101AF000A8F4883709F467C038F4883609F463C05D
:101B0000803709F460C0C9C0883809F4B8C080398A
:101B100009F45FC0803809F0C0C05BC0803B09F4A5
:101B200086C038F4803A09F466C0883A09F47FC068
:101B3000B4C0803C09F4A7C0883C09F4A4C0883B29
:101B400009F48AC0AAC080914C0510C090916E051E
:101B500080916D05981770F5E0916E0581E08E0F0C
:101B600080936E05F0E0E35BFA4F80818093BB00C9
:101B700085EC86C080936F058EC0E0916E0581E094
:101B80008E0F80936E058091BB00F0E0E35BFA4F0F
:101B9000808390916E0580916D056EC0E0916E0519
:101BA00081E08E0F80936E058091BB00F0E0E35BD7
:101BB000FA4F80838091700581116DC081E0809320
:101BC0004B0584EA61C083E08093710510924C025A
:101BD000CFCF80914C02803208F051C0E0914C028E
:101BE00081E08E0F80934C028091BB00F0E0E45DB9
:101BF000FD4F8083BDCF85EC8093BC0010927105B2
:101C000080914C02803230F4E0914C02F0E0E45DCF
:101C1000FD4F108260914C0270E0E0912A02F09139
:101C20002B028CE292E0099510924C0236C084E0BF
:101C3000809371051092290210922802E0912602E9
:101C4000F0912702099580912802811105C081E059
:101C50008093280210920602E091290281E08E0F03
:101C600080932902F0E0EA5FFD4F80818093BB0002
:101C70009091290280912802981708F479CF85E87D
:101C80008093BC000AC085EC8093BC001092710563
:101C900004C010926F050E943B09FF91EF91BF9124
:101CA000AF919F918F917F916F915F914F913F91F4
:101CB0002F910F900FBE0F901F90189510927105E5
:101CC00081E08093700510924B0561E082E10E94F3
:101CD000241761E083E10E942417E9EBF0E08081A2
:101CE0008E7F808380818D7F808388E48093B8009D
:101CF00085E48093BC000895EF92FF920F931F93A9
:101D0000FC0110A2068917890E5F1F4F24893589AF
:101D10002E5F3F4F42895389415051096089718933
:101D200061507109E12CF12C89EE94E00E94E115DB
:101D30001F910F91FF90EF9008952F923F924F9235
:101D40005F926F927F928F929F92AF92BF92CF924B
:101D5000DF92EF92FF920F931F93CF93DF93CDB754
:101D6000DEB72A970FB6F894DEBF0FBECDBF9A87B5
:101D70008987FC01278D9481858140815181588715
:101D80004F83A280B380211104C022A1222309F431
:101D9000FCC0492E582E81E0E985FA8580A324886D
:101DA0003588668877882614370414F4C10101C089
:101DB000C30166E070E00E94E427C62ED12CE985BD
:101DC000FA850288F389E02DFA83E983E985FA85AB
:101DD0000088F189E02DFC83EB83882499248C18FA
:101DE0009D08880C991CEC0DFD1DFE83ED8391016F
:101DF000280D391D7201830149815A81BF0189EE85
:101E000094E00E946108860C971CF1E08F1A9108FB
:101E100069807A806C0C7D1C4B815C81240E351EA0
:101E2000C1018C199D09840121E0A601B30101972C
:101E30000E946B1222E0A601B3018D819E810E9457
:101E40006B12E985FA852689378944895589628923
:101E50007389EF80F8848601808991890E94CC1172
:101E6000E985FA8581A1811150C0E985FA85208D27
:101E70008689978997FD019695958795E985FA85D5
:101E800042895389840F951FAC01F4E02F9F4019BC
:101E90005109112469857A856A5F7F4FFB010190A2
:101EA0000020E9F73197DF01A61BB70BE985FA851A
:101EB0008489958997FD019695958795E985FA8599
:101EC000C088D1888C0D9D1DF3E02F9F60011124E7
:101ED000CA9EF001CB9EF00DDA9EF00D11248E1BF0
:101EE0009F0B9093F6048093F5045093F80440936D
:101EF000F704A092FB04B092FC04A092F904B09203
:101F0000FA04211124C021E022C088248394912C5A
:101F1000E985FA8526893789281939094489558937
:101F20004819590962897389680D791D80899189D9
:101F3000EF80F8848601880D991D0E94CC11FFEF77
:101F40008F1A9F0A34E08316910411F78ECF2093E5
:101F5000FD0489EE94E02A960FB6F894DEBF0FBE1A
:101F6000CDBFDF91CF911F910F91FF90EF90DF9048
:101F7000CF90BF90AF909F908F907F906F905F9029
:101F80004F903F902F900C94291A2501A92EB82E1E
:101F900002CF0F931F93CF93DF93EC018AA16817B1
:101FA000C9F081E0611101C080E08AA3882371F04B
:101FB0000E94FD1760930202709303028093040253
:101FC00090930502CE010E949D0E2FC0CE010E946B
:101FD0009D0E16C06623A1F00E94FD17009102021B
:101FE000109103022091040230910502DC01CB0123
:101FF000801B910BA20BB30BC397A105B10558F43D
:102000000E94FD17698F7A8F8B8F9C8FDF91CF9104
:102010001F910F9108950E94FD1760930202709323
:10202000030280930402909305028D8D0E94FC09A7
:10203000E7CFFC01538D448D252F30E0842F90E0B5
:10204000821B930B541710F0CF96089501970895B3
:10205000FC01918D828D981761F0828DDF01A80FB0
:10206000B11D5D968C91928D9F5F9F73928F90E0D2
:1020700008958FEF9FEF0895FC01918D828D981741
:1020800031F0828DE80FF11D858D90E008958FEF7E
:102090009FEF089585E592E00E94961521E0892B37
:1020A00009F420E0822F0895EF92FF920F931F937F
:1020B000CF93DF93EC0181E0888F9B8D8C8D9813FB
:1020C00005C0E889F989808185FD24C0F62E0B8D35
:1020D00010E00F5F1F4F0F731127E02E8C8DE81259
:1020E0000CC00FB607FCFACFE889F989808185FF1B
:1020F000F5CFCE010E940317F1CF8B8DFE01E80FC3
:10210000F11DE35AFF4FF0820B8FEA89FB89808132
:10211000806207C0EE89FF896083E889F989808140
:102120008064808381E090E0DF91CF911F910F91D7
:10213000FF90EF900895CF93DF93EC01888D882373
:10214000C9F0EA89FB89808185FD05C0A889B98924
:102150008C9186FD0FC00FB607FCF5CF808185FFFF
:10216000F2CFA889B9898C9185FFEDCFCE010E946D
:102170000317E7CFDF91CF9108951F920F920FB60B
:102180000F9211242F933F934F935F936F937F93FD
:102190008F939F93AF93BF93EF93FF9385E592E067
:1021A0000E940317FF91EF91BF91AF919F918F9183
:1021B0007F916F915F914F913F912F910F900FBE43
:1021C0000F901F9018951F920F920FB60F92112427
:1021D0002F938F939F93EF93FF93E0916502F0917C
:1021E00066028081E0916B02F0916C0282FD12C068
:1021F000908180916E028F5F8F7320916F028217A2
:1022000051F0E0916E02F0E0EB5AFD4F958F809314
:102210006E0201C08081FF91EF919F918F912F916C
:102220000F900FBE0F901F9018952F923F924F92D4
:102230005F926F927F928F929F92AF92BF92CF9256
:10224000DF92EF92FF920F931F93CF93DF936C0176
:102250005B01EA0181E090E04C01841A950A662452
:102260007724641A750A660C771CE12CF12C822FF6
:102270008470582E822F8270482E822F8870382EBC
:102280002170222EEC16FD060CF073C097FC06C0E0
:10229000219782E0680E711C860C971C8FEFE81A5C
:1022A000F80AC701880F991F0196880E991E5520BC
:1022B000B1F09801A5014C0F5D1FB7016C0D7D1D9C
:1022C00089EE94E00E9489089801A7014A0D5B1DE0
:1022D000B6016C0F7D1F89EE94E00E9489084420AE
:1022E000B1F09801A5014C1B5D0BB7016C0D7D1D74
:1022F00089EE94E00E9489089801A5014E195F09B2
:10230000B6016C0F7D1F89EE94E00E94890833208E
:10231000B1F09801A7014A0D5B1DB6016C1B7D0B46
:1023200089EE94E00E9489089801A5014C0F5D1F79
:10233000B6016E197F0989EE94E00E948908222077
:1023400009F4A0CF9801A5014E195F09B6016C1BD5
:102350007D0B89EE94E00E9489089801A5014C1B31
:102360005D0BB6016E197F0989EE94E00E94890821
:1023700089CFDF91CF911F910F91FF90EF90DF9068
:10238000CF90BF90AF909F908F907F906F905F9015
:102390004F903F902F9008952F923F924F925F92CF
:1023A0006F927F928F929F92AF92BF92CF92DF9265
:1023B000EF92FF920F931F93CF93DF9300D000D043
:1023C00000D0CDB7DEB72C013B015C834B831901F4
:1023D0001E830D835801B194A194B108AA0CBB1CB3
:1023E0004A018A0C9B1C6801C40CD51C870194010E
:1023F000AB01B60189EE94E00E947108C301820D21
:10240000931D9A838983AC01415051099401B6010F
:1024100089EE94E00E947108A20CB31CED81FE814C
:102420006E0E7F1E9501A301B20189EE94E00E9419
:102430007D088B819C81480E591EB2016150710943
:102440009501A30189EE94E00E947D0821E04D8171
:102450005E81B301C6010E941511ED81FE814E1A05
:102460005F0AF1E04F1A510822E04D815E81B3010D
:10247000C2010E941511A980BA808D819E81A81A7F
:10248000B90A91E0A91AB10824E04D815E81B50135
:10249000C2010E94151128E04D815E81B501C6017F
:1024A0000E94151126960FB6F894DEBF0FBECDBF61
:1024B000DF91CF911F910F91FF90EF90DF90CF9020
:1024C000BF90AF909F908F907F906F905F904F9054
:1024D0003F902F9008952F923F924F925F926F926C
:1024E0007F928F929F92AF92BF92CF92DF92EF92A4
:1024F000FF920F931F93CF93DF9300D000D000D0B3
:10250000CDB7DEB75C014B015E834D83280181E0CE
:1025100090E03C01641A750ACA0191958195910970
:10252000AC01440F551F5A8349831801CC24C3942E
:10253000D12C522F51705B8322702C83C6010197DE
:102540002D813E81821793070CF068C077FC0CC088
:102550008D819E8101979E838D83E981FA813296D8
:10256000FA83E9836E0E7F1EC601880F991F0196BC
:10257000680E791EFB81FF2319F12D813E81220F08
:10258000331F2F5F3F4F240D351D8701A4018D811F
:102590009E81481B590BB6016A0D7B1D89EE94E0A4
:1025A0000E947D0891012D5F3F4FA4014C195D09E8
:1025B0006D817E816A0D7B1D89EE94E00E947D080D
:1025C0009C81992321F12D813E81220F331F2F5FA2
:1025D0003F4F240D351D8701A401ED81FE814E1B67
:1025E0005F0BB5016C197D0989EE94E00E947D08AE
:1025F00091012D5F3F4FA4014C195D09B5018D81FB
:102600009E81681B790B89EE94E00E947D089FEF04
:10261000C91AD90AE2E02E0E311C90CF26960FB6C9
:10262000F894DEBF0FBECDBFDF91CF911F910F9108
:10263000FF90EF90DF90CF90BF90AF909F908F90E2
:102640007F906F905F904F903F902F900895CF9321
:10265000DF93C82F1F928F93809102031F928F9355
:102660008AEE91E09F938F930E9435280F900F90F0
:102670000F900F900F900F90809102038C1709F428
:10268000EEC0C1113CC08DE493E00E947C0E83E952
:1026900093E00E947C0E80E793E00E947C0E8CEF1A
:1026A00093E00E947C0E86EB93E00E947C0ED1E0CA
:1026B000D0933E04D0933F048FE194E00E949D0E9E
:1026C00010926104D093620482E494E00E949D0E13
:1026D00010928404D093850485E694E00E949D0EB8
:1026E0001092CA04D093CB048BEA94E00E949D0E12
:1026F0001092F803D093F90389ED93E0A2C0C130A2
:10270000C9F58FE194E00E947C0E82E494E00E947F
:102710007C0E85E694E00E947C0E8BEA94E00E9499
:102720007C0E89ED93E00E947C0EC0936C03C093F5
:102730006D038DE493E00E949D0E1092B203C0934E
:10274000B30383E993E00E949D0E10928F03C09320
:10275000900380E793E00E949D0E1092D503C093F2
:10276000D60386EB93E00E949D0E10921B04C0934B
:102770001C0465C0C33041F58FE194E00E947C0EDB
:1027800082E494E00E947C0E85E694E00E947C0E38
:102790008BEA94E00E947C0E89ED93E00E947C0E0F
:1027A00010926C03D1E0D0936D038DE493E00E940E
:1027B0009D0ED093B203D093B30383E993E00E94BC
:1027C0009D0E10928F0329C0C230E9F58FE194E08D
:1027D0000E947C0E82E494E00E947C0E85E694E0E8
:1027E0000E947C0E8BEA94E00E947C0E89ED93E0BF
:1027F0000E947C0E10926C03D1E0D0936D038DE4A7
:1028000093E00E949D0E1092B203D093B30383E92C
:1028100093E00E949D0ED0938F03D093900380E7A6
:1028200093E00E949D0E1092D503D093D60386EBC1
:1028300093E00E949D0E10921B04D0931C048CEF19
:1028400093E00E949D0EC09302030E94FD176093C7
:1028500003037093040380930503909306038C2F66
:10286000DF91CF9108952091F2029091930521324A
:1028700008F04AC0809171058111FCCF32E030939D
:10288000710531E0309370053FEF30936F05109282
:102890006E0520936D05A3E7B5E04DE455E0FA0120
:1028A0003E2F341B321718F43D913193F9CF10921B
:1028B0004C0520914C05990F922B90934C059091CB
:1028C0004B05913061F410924B0590914C0590931B
:1028D000BB009091BC0093FDF8CF95EC01C095EE44
:1028E0009093BC00909171059230E1F390916F0547
:1028F0009F3F79F080916F05803241F080916F05A4
:10290000803331F084E005C081E003C082E001C083
:1029100083E01092F3021092F20210927205089571
:10292000682F86EF92E00C94C909CF93DF93C0EE35
:10293000D4E0888191E09093720580939305109282
:10294000F3021092F20289818F7390E00E9490143A
:102950008A818F71806890E00E9490148B818F71C2
:10296000806A90E00E9490148C818F71806C90E05E
:102970000E9490148D81806E90E00E9490148E8150
:102980008F70806690E00E9490148F818F708067B6
:1029900090E00E94901488858F71806490E00E947E
:1029A0009014DF91CF910C94331490917105911193
:1029B000FCCF613208F060E291E090937105909352
:1029C00070052FEF20936F0510926E05260F209350
:1029D0006D0590934C0590914C05880F892B809341
:1029E0004C0580914B05813061F410924B0580912C
:1029F0004C058093BB008091BC0083FDF8CF85EC33
:102A000001C085EE8093BC00809171058130E1F3B7
:102A100080916E05861710F460916E05ADE4B5E007
:102A20002BE235E0F9018E2F821B861718F48D9169
:102A30008193F9CF1092F5026093F402862F0895E6
:102A4000E0910405F0910505908180910C05892B9A
:102A50008083E0910805F0910905908180910E0531
:102A6000892B8083E0910A05F0910B05908180917C
:102A70000F05892B808380911405882371F060E015
:102A80000E94241762E070E080E090E00E94C3178B
:102A900061E0809114050E942417E0910405F091F3
:102AA000050590818091100589238083E0910605BA
:102AB000F0910705908180911105892380838BB166
:102AC00083708BB985B18C7F85B9E0910805F09151
:102AD000090590818091120589238083E091080582
:102AE000F0910905908180910E05892B808383E008
:102AF000E0910805F091090520819091120592233B
:102B00009083E0910805F0910905208190910E05D0
:102B1000922B9083815061F7E0910405F0910505B7
:102B2000908180910C05892B80830895FC01918D03
:102B3000228D892F90E0805C9F4F821B91098F73BB
:102B40009927089580E090E0892B29F00E944A108F
:102B500081110C94000008953FB7F8948091990575
:102B600090919A05A0919B05B0919C0526B5A89BD4
:102B700005C02F3F19F00196A11DB11D3FBFBA2F0F
:102B8000A92F982F8827820F911DA11DB11DBC016F
:102B9000CD0142E0660F771F881F991F4A95D1F734
:102BA00008950E942128CF93DF93EC010E949203A5
:102BB000EB8DFC8D90818FA189238083DF91CF9154
:102BC00008958F929F92AF92BF92CF92DF92EF9231
:102BD000FF920F931F93CF93DF93EC0147011216DF
:102BE00013060CF059C0101611060CF055C0A8853C
:102BF000B9856A177B070CF04FC0CA84DB844C157B
:102C00005D050CF049C05B01A20EB31EC501019722
:102C100097FD42C07A01E00EF11EF7013197F7FDF2
:102C20003BC077FF37C060E070E057FD02C078011D
:102C300002C040E050E08A179B072CF0CD010197BD
:102C40005D01A61AB70AEC15FD052CF0F6013197C7
:102C50007601E41AF50A8F019C01CE010E949E0CB8
:102C60009701D5010E94F8279B01AC01B401CE0168
:102C70000E949A0A0A851B85015011092885398509
:102C80002150310940E050E060E070E0CE010E9448
:102C90009E0C02C05901C9CFDF91CF911F910F91B6
:102CA000FF90EF90DF90CF90BF90AF909F908F906C
:102CB0000895CF92DF92EF92FF920F931F93CF93DD
:102CC000DF93EC016801121613060CF03FC077FD8C
:102CD0003DC08885998568177907C4F5EA85FB8525
:102CE0004E175F079CF57A01E20EF31E8701015033
:102CF000110917FD2BC057FF27C040E050E00E1709
:102D00001F0734F08F01015011097F01E41AF50A01
:102D10009B01CE010E949E0C9701FF0C440B550BAA
:102D2000B601CE010E949A0A0A851B85015011093D
:102D3000288539852150310940E050E060E070E09D
:102D4000CE010E949E0C02C07901D9CFDF91CF91B4
:102D50001F910F91FF90EF90DF90CF900895CF9249
:102D6000DF92EF92FF920F931F93CF93DF93EC01CB
:102D7000680112161306F4F557FD3CC08A859B8541
:102D800048175907BCF5E885F9856E177F0794F554
:102D90007B01E20EF31EC701019797FD2BC077FF61
:102DA00027C060E070E08E179F072CF0CF010197DD
:102DB0007F01E61AF70A8A019C01CE010E949E0C4F
:102DC0009701FF0C440B550BB601CE010E949A0AE5
:102DD0000A851B8501501109288539852150310943
:102DE00040E050E060E070E0CE010E949E0C02C026
:102DF0007901D9CFDF91CF911F910F91FF90EF9083
:102E0000DF90CF900895FC01848DDF01A80FB11DE4
:102E1000A35ABF4F2C91848D90E001968F73992710
:102E2000848FA689B7892C93A089B1898C918064FD
:102E30008C93938D848D981306C00288F389E02DBE
:102E400080818F7D8083089590E0FC01E854F94FE4
:102E50003491FC01E458F94F2491FC01E656F94FF6
:102E6000E491EE2309F43BC0332339F1333091F080
:102E700038F43130A9F0323001F584B58F7D12C0BD
:102E8000373091F03830A1F03430B9F480918000BF
:102E90008F7D03C0809180008F77809380000DC06C
:102EA00084B58F7784BD09C08091B0008F7703C04F
:102EB0008091B0008F7D8093B000F0E0EE0FFF1F97
:102EC000E057F94FA591B4918FB7F894EC91611147
:102ED00003C020952E2301C02E2B2C938FBF089565
:102EE000CF93DF9390E0FC01E458F94F2491FC016B
:102EF000E656F94F8491882361F190E0880F991F7D
:102F0000FC01E255F94FC591D491FC01E057F94F0E
:102F1000A591B491611109C09FB7F894888120955B
:102F200082238883EC912E230BC0623061F49FB71B
:102F3000F8943881822F809583238883EC912E2BFF
:102F40002C939FBF06C08FB7F894E8812E2B28835F
:102F50008FBFDF91CF9108958E3008F08E5087702B
:102F6000806480937C0080917A00806480937A00F2
:102F700080917A0086FDFCCF8091780020917900C5
:102F800090E0922B08958F929F92AF92BF92CF9232
:102F9000DF92EF92FF926B017C010E94AC154B0116
:102FA0005C01C114D104E104F104F1F00E94AC15FC
:102FB000DC01CB0188199909AA09BB09883E934015
:102FC000A105B10570F321E0C21AD108E108F108AA
:102FD00088EE880E83E0981EA11CB11CC114D10498
:102FE000E104F10419F7DDCFFF90EF90DF90CF906F
:102FF000BF90AF909F908F9008952FB7F8946091F5
:1030000095057091960580919705909198052FBF31
:1030100008951F920F920FB60F9211242F933F9392
:103020008F939F93AF93BF93809195059091960551
:10303000A0919705B09198053091940523E0230F56
:103040002D3720F40196A11DB11D05C026E8230FE0
:103050000296A11DB11D2093940580939505909330
:103060009605A0939705B093980580919905909146
:103070009A05A0919B05B0919C050196A11DB11DDB
:103080008093990590939A05A0939B05B0939C0516
:10309000BF91AF919F918F913F912F910F900FBE54
:1030A0000F901F901895FC01A58DB68D9C9180A561
:1030B00089238C938BB1972F9C7F8370892B8BB93D
:1030C00085B173708C7F782B75B9A78DB0A19C9159
:1030D00081A589238C93A78DB0A19C9185A1892B73
:1030E0008C938BB1962F9C7F8370892B8BB985B184
:1030F00063708C7F682B65B9A78DB0A19C9181A569
:1031000089238C93A78DB0A19C9185A1892B8C9349
:10311000A58DB68D9C9184A1892B8C938BB1952F15
:103120009C7F8370892B8BB985B153708C7F582B12
:1031300055B9A78DB0A19C9181A589238C93A78DAA
:10314000B0A19C9185A1892B8C938BB1942F9C7FEE
:103150008370892B8BB985B143708C7F482B45B91F
:10316000A78DB0A19C9181A589238C93A78DB0A137
:103170009C9185A1892B8C930895EF92FF920F93D8
:103180001F93CF93DF93EC018A01790177FD4DC046
:1031900057FD4BC088859985681779070CF045C0A5
:1031A0008A859B85481759070CF03FC0EB8DFC8D35
:1031B00090818FA1892380838D89823059F083305B
:1031C000B1F08130D1F48FEE90E0841B950B8B0130
:1031D000BC0113C08FEE90E09C01261B370BB90198
:1031E0008FE391E09C01241B350B890106C08FE31E
:1031F00091E0861B970BBA018C01AB0160E270E095
:10320000CE010E945318A80161E270E0CE010E9435
:103210005318A70162E270E0CE010E945318EB8DB3
:10322000FC8D90818BA1892B8083DF91CF911F91A1
:103230000F91FF90EF9008950F931F93CF93DF931B
:10324000EC018B01EB8DFC8D90818FA18923808314
:1032500040E050E060E270E0CE010E9453184FE37E
:1032600051E061E270E0CE010E94531820E03CE2A0
:1032700041E050E0B801CE01DF91CF911F910F9155
:103280000C949A0ACF92DF92EF92FF920F931F93C2
:10329000CF93DF936C017A018B01C0E0D0E0CE15B3
:1032A000DF0589F0D8016D918D01D601ED91FC917A
:1032B0000190F081E02DC6010995892B11F47E0162
:1032C00002C02196ECCFC701DF91CF911F910F91E2
:1032D000FF90EF90DF90CF900895EF92FF920F93C1
:1032E0001F93CF93DF9300D000D01F92CDB7DEB7EE
:1032F000FC01CB01BA018E010F5F1F4F25E0D80101
:103300001D922A95E9F7E130F10511F021E001C0A5
:1033100021E12B833091DB0431FF02C020E82C83B4
:1033200032FF03C02C8124602C8333FF03C02C8127
:1033300022602C8334FF03C02C8128602C8335FF4E
:1033400003C02C8120622C832C8120612C8336FFCA
:1033500002C020E42D8337FF03C02D8120682D8318
:1033600020E030E04AE754E4319749F40E946B27AB
:1033700020E030E041E653E40E94C92508C00E94E5
:103380006B2720E030E041E653E40E94C82520E0AE
:1033900030E040E850E40E946B272FE632E143E042
:1033A00052E40E9435260E94AE267F7379836A8399
:1033B00081E08093720580E6809393051092F3027A
:1033C0001092F2027E01B6E0EB0EF11CF801619161
:1033D0008F0186EF92E00E94C9090E151F05B1F713
:1033E0000E9433140F900F900F900F900F90DF9169
:1033F000CF911F910F91FF90EF9008950F931F931E
:10340000CF93DF93EC0185E0FE0111928A95E9F7F5
:1034100065E070E080E690E00E94D5149091F4029F
:103420008091F502981771F08E010B5F1F4F86EFA8
:1034300092E00E947D098993C017D107C1F781E00E
:1034400090E002C080E090E0DF91CF911F910F915A
:1034500008956115710579F0FB0101900020E9F7ED
:103460003197AF01461B570BDC01ED91FC910280B7
:10347000F381E02D099480E090E00895CF93DF93ED
:10348000CDB7DEB72B970FB6F894DEBF0FBECDBF1A
:10349000789484B5826084BD84B5816084BD85B52F
:1034A000826085BD85B5816085BD80916E0081603B
:1034B00080936E00109281008091810082608093E1
:1034C00081008091810081608093810080918000E3
:1034D0008160809380008091B10084608093B1000E
:1034E0008091B00081608093B00080917A00846008
:1034F00080937A0080917A00826080937A00809134
:103500007A00816080937A0080917A00806880934D
:103510007A001092C1008091290590912A0590931C
:10352000A00580939F05E0916502F091660282E01C
:103530008083E0916102F09162021082E091630267
:10354000F091640280E1808310926D02E091690243
:10355000F0916A0286E08083E0916702F091680250
:10356000808180618083E0916702F09168028081B0
:1035700088608083E0916702F091680280818068B2
:103580008083E0916702F091680280818F7D808363
:1035900087E691E00E944B281092F5021092F40207
:1035A0001092F3021092F2020E945E0EBB24B394BA
:1035B000B092720508E6009393051092F302109200
:1035C000F20260E086EF92E00E94C9090E94331483
:1035D00061E070E088E690E00E94D51486EF92E00A
:1035E0000E947D0987FF87C06FE671E085E592E064
:1035F0000E94291A63E871E085E592E00E94291A89
:103600008FE891E00E94230D182F8AE891E00E9434
:10361000230DF82E82E991E00E94230DE82E85E922
:1036200091E00E94230DD82E88E991E00E94230D9D
:10363000C82EB0927205009393051092F302109277
:10364000F20280E090E00E9490140AE08C2D602F3E
:103650000E94D827482F880F480F440F642F6C0D05
:1036600086EF92E00E94C9098D2D602F0E94D82715
:10367000382F880F380F330F632F6D0D86EF92E0D0
:103680000E94C9098E2D602F0E94D827282F880FED
:10369000280F220F622F6E0D86EF92E00E94C9095B
:1036A00060E086EF92E00E94C9098F2D602F0E9492
:1036B000D827982F880F980F990F692F6F0D86EFD5
:1036C00092E00E94C90963E086EF92E00E94C90976
:1036D000812F602F0E94D827682F660F680F660F12
:1036E000610F86EF92E00E94C90980E090E00E949D
:1036F00090140E9433140E9495148091DB048F6112
:103700008F798F778093DB0446E656EE63EB72E4A5
:1037100081E090E00E946D196EE170E080E090E041
:103720000E94C317CE0101966C010E94FE190197F9
:1037300029F40C8102950F7010E002C000E010E047
:103740004AE959E162EB72E480E090E00E946D1971
:103750006EE170E080E090E00E94C317C6010E9415
:10376000FE19019759F42C8122952F7030E081E0E9
:1037700090E00217130724F080E002C080E090E0A0
:103780008093DE049093DF0440E050E063EB72E44A
:103790000E946D1961E08AE00E94241761E08AE0CE
:1037A0000E94701760E08AE00E9424178BE99FE076
:1037B0000197F1F761E08AE00E9424170E9420152A
:1037C0000E942015E0910405F091050590818091FB
:1037D00010058923808308E615E0F801659174914E
:1037E000F8013296459154916F3F710531F4BA0159
:1037F00080E090E00E94C31704C089EE94E00E942C
:1038000053180C5F1F4F96E00037190731F760918E
:10381000FE0489EE94E00E94D3150FE311E02FEE31
:1038200030E040E050E060E070E089EE94E00E941B
:103830009E0C61E089EE94E00E94D31580E00E9426
:10384000271360E070E089EE94E00E941C1960E0AC
:1038500070E089EE94E00E941C1900E010E0F8018D
:10386000EE5FFC4F85A1882329F0C801895F9C4F3A
:103870000E949D0E0D5D1F4F073CA1E01A0779F7CE
:103880006BE971E085E592E00E94291A63E871E036
:1038900085E592E00E94291A66246A94A3E07A2EB4
:1038A00060E0809117050E94701760E08091180514
:1038B0000E94701761E080911A050E94701761E004
:1038C000809119050E94701780912505E0911D05D2
:1038D000F0911E059081892B808380912605E091CF
:1038E0002105F0912205208130E090E080959095AF
:1038F000822393238083809117050E94AC178C014B
:10390000809117050E94AC179C01C801821B930B84
:103910000496099738F4200F311F35952795B1E0AB
:10392000BB8701C01B867301E21AF30A60E0809135
:103930001A050E94701760E0809119050E947017A7
:1039400061E0809117050E94701761E08091180571
:103950000E94701780912805E0912305F0912405BD
:10396000208130E090E0809590958223932380839E
:1039700080912705E0911F05F09120059081892B0A
:103980008083809119050E94AC178C0180911905E4
:103990000E94AC175C01C8018A199B09049609971B
:1039A00028F4A00EB11EB594A79401C01B8661E057
:1039B00080911A050E94701760E0809117050E949F
:1039C000701780912505E0911D05F0911E0520815D
:1039D00030E090E0809590958223932380838091BE
:1039E0002805E0912305F09124059081892B80839F
:1039F000809119050E94AC178C01809117050E94D7
:103A0000AC1780901B0590901C058114910409F45B
:103A100040C0BC01990F880B990B0E94DF261B0147
:103A20002C01B801110F880B990B0E94DF269B0116
:103A3000AC01C201B1010E94352620E030E040E82F
:103A40005FE30E94C8251B012C01B7010F2C000C5D
:103A5000880B990B0E94DF269B01AC01C201B101CA
:103A60000E946B271B012C01B40180E090E00E94B2
:103A7000DD269B01AC01C201B1010E946B2720E051
:103A800030E040E85AE30E946B270E94A7268B0192
:103A900004C0081B190B01501C4F2B85211102C0BB
:103AA00000E010E061E086E00E94701761E080E1D4
:103AB0000E94701761E08FE00E94701761E087E05C
:103AC0000E947017B8016B5071096D3D734008F08A
:103AD0005DC00E94FD176093510270935202809363
:103AE00053029093540293012A193B09C901330FE1
:103AF000AA0BBB0B9C01AD012456310941095109A8
:103B0000A0E4B1E00E948C2524E233E040E050E0E4
:103B10000E946D258901C701FF0CAA0BBB0B9C01FC
:103B2000AD012C5A334041095109A0EFB0E00E9489
:103B30008C2521EB3CEF4FEF5FEF0E946D25E2E01B
:103B4000F3E040E050E085A18823C9F065897689DB
:103B500006171707A4F0818D928D860F971F0817FF
:103B600019076CF46789708D2617370744F0838D29
:103B7000948D860F971F281739070CF430C14F5FBB
:103B80005F4FB3964D305105F1F639C00E94FD17D5
:103B9000009151021091520220915302309154022F
:103BA000DC01CB01801B910BA20BB30BC397A105CA
:103BB000B10528F100E010E0E12CF12CF801EE5FF6
:103BC000FC4F87A1882391F0FF92EF92AFE9B1E01B
:103BD000BF93AF930E94352860E0C801895F9C4F76
:103BE0000E94C90F0F900F900F900F908FEFE81A5F
:103BF000F80A0D5D1F4F073C91E01907F9F60E9486
:103C0000FD1700914D0210914E0220914F0230910C
:103C10005002DC01CB01801B910BA20BB30B893E40
:103C20009340A105B10508F4BAC081E08093720504
:103C300088E6809393051092F3021092F20280E0DE
:103C400090E00E9490140E94331467E070E088E6D0
:103C500090E00E94D51486EF92E00E947D098F7754
:103C6000982F92959F701AEF082F919F000D1124A5
:103C700086EF92E00E947D099C01332794E0359500
:103C800027959A95E1F7F82E129FF00C112486EFF4
:103C900092E00E947D099C01332744E035952795E9
:103CA0004A95E1F7E82E129FE00C112486EF92E08E
:103CB0000E947D0986EF92E00E947D099C013327D6
:103CC00054E0359527955A95E1F7B82E129FB00C20
:103CD000112486EF92E00E947D099C01332764E065
:103CE000359527956A95E1F7A82E129FA00C11240F
:103CF00086EF92E00E947D099C01332774E03595A0
:103D000027957A95E1F7129F800D11248093D504B1
:103D1000A092D604B092D704E092D804F092D904CD
:103D20000093DA040E94FD1760934D0270934E02D7
:103D300080934F029093500283E08093FD04AFEF95
:103D4000BFEFB093FA04A093F9041092FC04109210
:103D5000FB048091D9041F928F938091D8041F9205
:103D60008F93ABEAB1E0BF93AF93DF92CF920E9403
:103D70007B2885E090E09093F6048093F504A4E11D
:103D8000B0E0B093F804A093F704B60189EE94E094
:103D90000E94291A0FB6F894DEBF0FBECDBF0E9455
:103DA000FD17009103031091040320910503309146
:103DB0000603DC01CB01801B910BA20BB30B8131FD
:103DC0009742A105B10540F08091020381508330F4
:103DD00018F480E00E9427130E94A21561CDA3E28F
:103DE000A49FC001A59F900D112461E0895F9C4FA5
:103DF0000E94C90F04CF2F923F924F925F926F9211
:103E00007F928F929F92AF92BF92CF92DF92EF926A
:103E1000FF920F931F93CF93DF9300D0CDB7DEB700
:103E2000109258021092570288EE93E0A0E0B0E0A2
:103E30008093590290935A02A0935B02B0935C0264
:103E40002AE031E0309356022093550225EC30E011
:103E5000309362022093610224EC30E030936402DC
:103E60002093630220EC30E03093660220936502D9
:103E700021EC30E0309368022093670222EC30E0BE
:103E800030936A022093690226EC30E030936C0292
:103E900020936B0210926E0210926F0210927002C9
:103EA000109271021092F9021092F8028093FA02B5
:103EB0009093FB02A093FC02B093FD028CE191E091
:103EC0009093F7028093F60260E070E08EE89AE04B
:103ED0000E94D22390932A0580932905EFE0CE2EED
:103EE000C092170580E18093190587E0809318053B
:103EF00086E080931A058CE291E090931C058093F4
:103F00001B05E0EAF6E0E491F0E0EE0FFF1FE0575A
:103F1000F94F8591949190931E0580931D0589EA30
:103F200096E0FC012491E22FF0E0EE0FFF1FE05736
:103F3000F94F259134913093200520931F056AEAAB
:103F400076E0FB012491E22FF0E0EE0FFF1FE05737
:103F5000F94F259134913093220520932105E1EA10
:103F6000F6E0E491F0E0EE0FFF1FE057F94F2591E6
:103F700034913093240520932305E2E8F6E0E491A0
:103F8000E09325052BE836E0F9014491409327059D
:103F90004CE856E0FA01A491A0932605E3E8F6E088
:103FA000E491E0932805EAE0F0E0F0931605E09351
:103FB00015051092EC041092EB0400EF10E0109342
:103FC000EE040093ED04E0E4AE2EBB24B394B09273
:103FD000F004A092EF041093F2040093F104B09265
:103FE000F404A092F3041092FE041092F6041092CE
:103FF000F5041092F8041092F704DD24D394D092C3
:10400000FD04EE24EA94FE2CF092FC04E092FB0402
:10401000F092FA04E092F904D092FF0410920005A5
:104020001092020510920105EEE2F1E0F093EA042D
:10403000E093E904E2E1E0931405EBEAF6E0E491B1
:10404000F0E0EE0FFF1FE057F94FA591B491B09348
:104050000505A0930405FB016491E62FF0E0EE0F47
:10406000FF1FE057F94F65917491709307056093B6
:104070000605FC01849190E0880F991F8057994FA5
:10408000FC01659174917093090560930805E8EA55
:10409000F6E0E491F0E0EE0FFF1FE057F94F859155
:1040A000949190930B0580930A05EDE8F6E08491D6
:1040B00080930C05FA01449140930D05F901249178
:1040C00020930E05EAE8F6E0E491E0930F05982FBF
:1040D000909590931005409540931105209520935D
:1040E0001205E095E0931305EC91E82BEC93E09139
:1040F0000605F0910705908180910D05892B80833D
:10410000E0910805F0910905908180910E05892BB9
:104110008083E0910A05F0910B05908180910F0555
:10412000892B808361E081E10E94701761E080E16A
:104130000E94701761E08FE00E94701761E08EE0CE
:104140000E94701761E082E10E94241761E082E121
:104150000E9470178AB18C6F8AB984B1836084B968
:104160001092FE041092F6041092F5041092F804D6
:104170001092F704D092FD04F092FA04E092F90450
:104180001093F2040093F104B092F404A092F304AB
:1041900084E48093E00487E18093E1041092E204D8
:1041A0001092E3041092E4041092E5048AE08093F4
:1041B000E604C092E7048CE18093E8041092F502D3
:1041C0001092F4021092F3021092F2020E945E0E1C
:1041D00081E090E09093DF048093DE04109202036C
:1041E0001092030310920403109205031092060329
:1041F00080E090E02FEF3FEFFC01EE5FFC4F33A338
:1042000022A314A215A216A217A28396873CF1E05E
:104210009F0791F780E18093DA048CE18093D904C1
:1042200086E08093D80420E081E697E9E3E9FEEF99
:1042300031E0422F437009F030E061E0620F432F1C
:1042400050E0DA01A359BE4F8A179B0738F09F014F
:10425000241B350B820F931F262FEACF2093D50402
:1042600021E0E22FF0E0E159F94FE491332319F016
:10427000223009F4EF5FF0E041E0420F8E179F0714
:1042800020F08E1B9F0B242FECCF2093D6048F5F42
:104290008093D7041092D2041092D3041092D404C5
:1042A00010922503109224032224239420922703A2
:1042B00044244A94512C50921803409217031092B0
:1042C0001A031092190391E4892E912C90921C03E9
:1042D00080921B0306E410E010931E0300931D035D
:1042E0008FEF9FEF90930803809307032FE1A22E97
:1042F000B12CB0920A03A092090390930C0380930F
:104300000B0332E0332E30921F0349E050E065EB9F
:1043100071E08DE093E00E94262881E090E0909388
:1043200048038093470320924A0350923B034092F4
:104330003A0384E690E090933D0380933C0390928F
:104340003F0380923E031093410300934003EFEF3D
:10435000FFEFF0932B03E0932A03B0922D03A0927A
:104360002C03F0932F03E0932E033092420349E095
:1043700050E068EB71E080E393E00E94262888E03B
:1043800090E090933D0480933C0420923F0410926F
:10439000300410922F0442EDE42EF12CF0923204FE
:1043A000E09231045CE3C52ED12CD0923404C0924B
:1043B00033040EE110E010933604009335048FEFC0
:1043C0009FEF9093200480931F046CE4662E66E6B2
:1043D000762E70922204609221049093240480939C
:1043E00023043092370449E050E06BEB71E085E242
:1043F00094E00E94262889E090E0909360048093E6
:104400005F04209262049092530480925204F092CE
:104410005504E0925404D0925704C092560410936D
:10442000590400935804EFEFFFEFF0934304E09337
:1044300042047092450460924404F0934704E09370
:10444000460430925A0449E050E061EC71E088E49F
:1044500094E00E9426288AE090E090938304809361
:1044600082042092850422E830E030937604209381
:104470007504F0927804E0927704D0927A04C092A6
:10448000790410937C0400937B048FEF9FEF90934B
:104490006604809365047092680460926704909348
:1044A0006A048093690430927D0449E050E066EC30
:1044B00071E08BE694E029833A830E9426288CE001
:1044C00090E09093C9048093C8042092CB0473ECCD
:1044D000672E712C7092BC046092BB04F092BE04F3
:1044E000E092BD04D092C004C092BF041093C204F5
:1044F0000093C104EFEFFFEFF093AC04E093AB0443
:1045000080E098EF9093AE048093AD04F093B004F4
:10451000E093AF043092C30449E050E06BEC71E0EB
:1045200081EB94E00E94262886E090E09093F703C8
:104530008093F6032092F9035092EA034092E90334
:10454000F092EC03E092EB039092EE038092ED0385
:104550001093F0030093EF03EFEFFFEFF093DA0314
:10456000E093D903B092DC03A092DB03F093DE0367
:10457000E093DD033092F10349E050E06FEC71E02D
:104580008FED93E00E94262882E090E090936B03E9
:1045900080936A0310926D0310925E0310925D0384
:1045A000F0926003E0925F03D0926203C0926103D5
:1045B00010936403009363038FEF9FEF90934E0378
:1045C00080934D03B0925003A0924F0390935203F7
:1045D000809351033092650349E050E062ED71E051
:1045E00083E593E00E94262884E090E09093B10355
:1045F0008093B0031092B3039092A4038092A3031C
:10460000F092A603E092A503D092A803C092A7035C
:104610001093AA030093A903EFEFFFEFF093940325
:10462000E0939303B0929603A0929503F0939803BE
:10463000E09397033092AB0349E050E066ED71E000
:1046400089E993E00E94262883E090E090938E030E
:1046500080938D031092900329813A8130938103D6
:1046600020938003F0928303E0928203D09285032B
:10467000C092840310938703009386038FEF9FEF0C
:104680009093710380937003B0927303A0927203AE
:1046900090937503809374033092880349E050E04F
:1046A0006BED71E086E793E00E94262885E090E0BC
:1046B0009093D4038093D3031092D6037092C703D0
:1046C0006092C603F092C903E092C803D092CB0374
:1046D000C092CA031093CD030093CC0382EB94E9FC
:1046E0009093B7038093B603B092B903A092B80336
:1046F000EFEFFFEFF093BB03E093BA033092CE03EA
:1047000049E050E060EE71E08CEB93E00E942628D7
:104710002092D70387E090E090931A0480931904C5
:1047200010921C0484E091E090930D0480930C049B
:10473000F0920F04E0920E04D0921104C092100483
:1047400010931304009312048FEF9FEF9093FD03D7
:104750008093FC03E0E0F8EFF093FF03E093FE03A7
:1047600090930104809300043092140449E050E0D7
:1047700065EE71E082E094E00F900F90DF91CF91B1
:104780001F910F91FF90EF90DF90CF90BF90AF906F
:104790009F908F907F906F905F904F903F902F9061
:1047A0000C9426280F931F93CF93DF93009731F437
:1047B0006115710519F480E090E03AC08B01EC01BD
:1047C0006EE070E081E090E00E941D24FC01892BE6
:1047D00091F380E883830115110571F01387028737
:1047E00081E8838380919D0590919E05892B21F41A
:1047F000F0939E05E0939D052097C9F0D187C0876F
:1048000083818260838380919F059091A005892B8D
:1048100071F4F093A005E0939F058091A10590911C
:10482000A205892B21F4F093A205E093A105CF0105
:10483000DF91CF911F910F9108950F931F93CF9305
:10484000DF93869F8001879F100D969F100D112486
:10485000C8010E943924EC01009729F0A80160E00A
:1048600070E00E946625CE01DF91CF911F910F91DC
:104870000895CF93DF938230910510F482E090E0A9
:10488000E091A505F091A60520E030E0C0E0D0E081
:10489000309711F14081518148175907C0F04817EE
:1048A000590761F482819381209719F09B838A8351
:1048B0002BC09093A6058093A50526C02115310530
:1048C00019F04217530718F49A01BE01DF01EF01F6
:1048D0000280F381E02DDCCF2115310509F1281B81
:1048E000390B2430310590F412968D919C911397D9
:1048F0006115710521F0FB019383828304C09093BD
:10490000A6058093A505FD01329644C0FD01E20F86
:10491000F31F81939193225031092D933C933AC018
:104920002091A3053091A405232B41F4209102018D
:10493000309103013093A4052093A3052091000139
:10494000309101012115310541F42DB73EB7409159
:10495000040150910501241B350BE091A305F09152
:10496000A405E217F307A0F42E1B3F0B2817390705
:1049700078F0AC014E5F5F4F2417350748F04E0FBB
:104980005F1F5093A4054093A3058193919302C0A8
:10499000E0E0F0E0CF01DF91CF9108950F931F93F6
:1049A000CF93DF93009709F48CC0FC0132971382F8
:1049B00012820091A5051091A6050115110581F43B
:1049C00020813181820F931F2091A3053091A4058E
:1049D0002817390779F5F093A405E093A30571C072
:1049E000D80140E050E0AE17BF0750F412962D9169
:1049F0003C911397AD012115310509F1D901F3CF90
:104A00009D01DA013383228360817181860F971FB4
:104A10008217930769F4EC0128813981260F371F2B
:104A20002E5F3F4F318320838A819B8193838283D2
:104A3000452B29F4F093A605E093A50542C01396F3
:104A4000FC93EE931297ED01499159919E01240F29
:104A5000351FE217F30771F480819181840F951F50
:104A6000029611969C938E938281938113969C93C8
:104A70008E931297E0E0F0E0D80112968D919C9110
:104A80001397009719F0F8018C01F6CF8D919C9146
:104A900098012E5F3F4F820F931F2091A305309105
:104AA000A4052817390769F4309729F41092A60550
:104AB0001092A50502C0138212821093A4050093E0
:104AC000A305DF91CF911F910F910895DC0101C0E3
:104AD0006D9341505040E0F70895052E97FB1EF46A
:104AE00000940E94842557FD07D00E94972507FC5B
:104AF00003D04EF40C948425509540953095219523
:104B00003F4F4F4F5F4F08959095809570956195F9
:104B10007F4F8F4F9F4F08950E94B925A59F900DFD
:104B2000B49F900DA49F800D911D11240895A1E2C2
:104B30001A2EAA1BBB1BFD010DC0AA1FBB1FEE1F17
:104B4000FF1FA217B307E407F50720F0A21BB30B62
:104B5000E40BF50B661F771F881F991F1A9469F7DE
:104B600060957095809590959B01AC01BD01CF013A
:104B70000895A29FB001B39FC001A39F700D811D36
:104B80001124911DB29F700D811D1124911D089556
:104B90005058BB27AA270E94E0250C9431270E9479
:104BA000232738F00E942A2720F039F49F3F19F478
:104BB00026F40C9420270EF4E095E7FB0C941A27BA
:104BC000E92F0E94422758F3BA1762077307840738
:104BD000950720F079F4A6F50C9464270EF4E0957F
:104BE0000B2EBA2FA02D0B01B90190010C01CA01A7
:104BF000A0011124FF27591B99F0593F50F4503E52
:104C000068F11A16F040A22F232F342F4427585F43
:104C1000F3CF469537952795A795F0405395C9F75B
:104C20007EF41F16BA0B620B730B840BBAF0915013
:104C3000A1F0FF0FBB1F661F771F881FC2F70EC0B2
:104C4000BA0F621F731F841F48F487957795679585
:104C5000B795F7959E3F08F0B0CF9395880F08F071
:104C60009927EE0F9795879508950E9449260C94F1
:104C700031270E942A2758F00E94232740F029F468
:104C80005F3F29F00C941A2751110C9465270C945E
:104C900020270E94422768F39923B1F3552391F30B
:104CA000951B550BBB27AA2762177307840738F09B
:104CB0009F5F5F4F220F331F441FAA1FA9F335D0F8
:104CC0000E2E3AF0E0E832D091505040E695001CAC
:104CD000CAF72BD0FE2F29D0660F771F881FBB1F66
:104CE000261737074807AB07B0E809F0BB0B802D44
:104CF000BF01FF2793585F4F3AF09E3F510578F070
:104D00000C941A270C9465275F3FE4F3983ED4F384
:104D1000869577956795B795F7959F5FC9F7880F43
:104D2000911D9695879597F90895E1E0660F771F95
:104D3000881FBB1F621773078407BA0720F0621B26
:104D4000730B840BBA0BEE1F88F7E09508950E9451
:104D5000AE266894B1110C94652708950E944A27E5
:104D600088F09F5798F0B92F9927B751B0F0E1F02C
:104D7000660F771F881F991F1AF0BA95C9F714C0DC
:104D8000B13091F00E946427B1E008950C9464273B
:104D9000672F782F8827B85F39F0B93FCCF3869515
:104DA00077956795B395D9F73EF490958095709572
:104DB00061957F4F8F4F9F4F0895E89409C097FBEF
:104DC0003EF490958095709561957F4F8F4F9F4FE2
:104DD0009923A9F0F92F96E9BB279395F695879526
:104DE00077956795B795F111F8CFFAF4BB0F11F4E9
:104DF00060FF1BC06F5F7F4F8F4F9F4F16C0882390
:104E000011F096E911C0772321F09EE8872F762FC5
:104E100005C0662371F096E8862F70E060E02AF006
:104E20009A95660F771F881FDAF7880F96958795F2
:104E300097F9089597F99F6780E870E060E008951A
:104E40009FEF80EC089500240A94161617061806A2
:104E50000906089500240A9412161306140605067E
:104E60000895092E0394000C11F4882352F0BB0F0F
:104E700040F4BF2B11F460FF04C06F5F7F4F8F4F72
:104E80009F4F089557FD9058440F551F59F05F3FAD
:104E900071F04795880F97FB991F61F09F3F79F05C
:104EA00087950895121613061406551FF2CF4695DE
:104EB000F1DF08C0161617061806991FF1CF869560
:104EC0007105610508940895E894BB276627772744
:104ED000CB0197F908950E947E270C9431270E94F8
:104EE000232738F00E942A2720F0952311F00C94F4
:104EF0001A270C94202711240C9465270E9442271E
:104F000070F3959FC1F3950F50E0551F629FF0011C
:104F1000729FBB27F00DB11D639FAA27F00DB11D35
:104F2000AA1F649F6627B00DA11D661F829F2227BE
:104F3000B00DA11D621F739FB00DA11D621F839F45
:104F4000A00D611D221F749F3327A00D611D231F1B
:104F5000849F600D211D822F762F6A2F11249F5769
:104F600050409AF0F1F088234AF0EE0FFF1FBB1F6C
:104F7000661F771F881F91505040A9F79E3F51052B
:104F800080F00C941A270C9465275F3FE4F3983E59
:104F9000D4F3869577956795B795F795E7959F5FD5
:104FA000C1F7FE2B880F911D9695879597F9089567
:104FB000991B79E004C0991F961708F0961B881F6B
:104FC0007A95C9F78095089597FB072E16F40094FB
:104FD00007D077FD09D00E94072807FC05D03EF4D2
:104FE000909581959F4F0895709561957F4F089595
:104FF0000E94B925332312F48A1B9B0B0C940228C0
:105000000E94B925B7FF0895821B930B0895AA1B30
:10501000BB1B51E107C0AA1FBB1FA617B70710F0A3
:10502000A61BB70B881F991F5A95A9F780959095D5
:10503000BC01CD010895EE0FFF1F0590F491E02D06
:10504000099481E090E0F8940C94532BFB01DC016F
:105050004150504048F001900D920020C9F701C026
:105060001D9241505040E0F70895A0E0B0E0EBE31E
:10507000F8E20C942C2BAE014B5F5F4FFA0161916B
:105080007191AF0180919F059091A0050E949E288B
:10509000E2E00C94482B0F931F93CF93DF93E091A2
:1050A0009F05F091A005238121FF1BC08C01D0E05A
:1050B000C0E0F80181918F0160919F057091A0057A
:1050C000DB011896ED91FC911997882331F0099531
:1050D000892B79F3DFEFCFEFECCF8AE00995892BAD
:1050E00019F08FEF9FEF02C08D2F9C2FDF91CF9192
:1050F0001F910F910895AEE0B0E0E1E8F8E20C9462
:105100002A2B0D891E8986E08C831A8309838FEFF1
:105110009FE79E838D83AE01475E5F4F6F89788DD9
:10512000CE0101960E949E282F813885F801E20F5A
:10513000F31F10822E96E4E00C94462BACE0B0E016
:10514000E4EAF8E20C941C2B7C016B018A01FC015F
:1051500017821682838181FFBDC1CE0101964C0169
:10516000F7019381F60193FD859193FF81916F0182
:10517000882309F4ABC1853239F493FD859193FFFF
:1051800081916F01853229F4B70190E00E94862A4F
:10519000E7CF512C312C20E02032A0F48B3269F083
:1051A00030F4803259F0833269F420612CC08D32A2
:1051B00039F0803339F4216026C02260246023C096
:1051C000286021C027FD27C030ED380F3A3078F431
:1051D00026FF06C0FAE05F9E300D1124532E13C047
:1051E0008AE0389E300D1124332E20620CC08E329E
:1051F00021F426FD6BC1206406C08C3611F42068B2
:1052000002C0883641F4F60193FD859193FF8191A8
:105210006F018111C1CF982F9F7D9554933028F451
:105220000C5F1F4FFFE3F9830DC0833631F08337E6
:1052300071F0833509F05BC022C0F8018081898359
:105240000E5F1F4F44244394512C540115C0380164
:10525000F2E06F0E711CF801A080B18026FF03C040
:10526000652D70E002C06FEF7FEFC5012C870E94B3
:105270007B2A2C0183012C852F77222E17C0380121
:10528000F2E06F0E711CF801A080B18026FF03C010
:10529000652D70E002C06FEF7FEFC5012C870E9483
:1052A000702A2C012C852068222E830123FC1BC030
:1052B000832D90E048165906B0F4B70180E290E0E3
:1052C0000E94862A3A94F4CFF50127FC859127FEA7
:1052D00081915F01B70190E00E94862A31103A94D3
:1052E000F1E04F1A51084114510471F7E5C08436BA
:1052F00011F0893639F5F80127FF07C06081718107
:10530000828193810C5F1F4F08C060817181072EDD
:10531000000C880B990B0E5F1F4F2F76722E97FF94
:1053200009C090958095709561957F4F8F4F9F4FE5
:105330002068722E2AE030E0A4010E94BE2AA82E26
:10534000A81844C0853729F42F7EB22E2AE030E019
:1053500025C0F22FF97FBF2E8F36C1F018F48835A3
:1053600079F0B4C0803719F0883721F0AFC02F2F03
:105370002061B22EB4FE0DC08B2D8460B82E09C002
:1053800024FF0AC09F2F9660B92E06C028E030E0A7
:1053900005C020E130E002C020E132E0F801B7FEB4
:1053A00007C060817181828193810C5F1F4F06C0AD
:1053B0006081718180E090E00E5F1F4FA4010E9428
:1053C000BE2AA82EA818FB2DFF777F2E76FE0BC0D5
:1053D000372D3E7FA51450F474FE0AC072FC08C03D
:1053E000372D3E7E05C0BA2C372D03C0BA2C01C024
:1053F000B52C34FF0DC0FE01EA0DF11D8081803314
:1054000011F4397E09C032FF06C0B394B39404C0CE
:10541000832F867809F0B39433FD13C030FF06C0A4
:105420005A2CB31418F4530C5B18B32CB31468F44F
:10543000B70180E290E03C870E94862AB3943C85C5
:10544000F5CFB31410F43B1801C0312C34FF12C057
:10545000B70180E390E03C870E94862A3C8532FFBA
:1054600017C031FD03C088E790E002C088E590E0F6
:10547000B7010CC0832F867859F031FF02C08BE250
:1054800001C080E237FD8DE2B70190E00E94862ADC
:10549000A51438F4B70180E390E00E94862A5A945C
:1054A000F7CFAA94F401EA0DF11D8081B70190E0D5
:1054B0000E94862AA110F5CF332009F451CEB701FE
:1054C00080E290E00E94862A3A94F6CFF701868126
:1054D000978102C08FEF9FEF2C96E2E10C94382B5E
:1054E000FC010590615070400110D8F780959095AF
:1054F0008E0F9F1F0895FC016150704001900110B4
:10550000D8F7809590958E0F9F1F08950F931F9346
:10551000CF93DF93FB01238121FD03C08FEF9FEF2A
:1055200028C022FF16C04681578124813581421749
:10553000530744F4A081B1819D012F5F3F4F318318
:1055400020838C93268137812F5F3F4F37832683BB
:1055500010C0EB01092F182F0084F185E02D09956B
:10556000892BE1F68E819F8101969F838E83812F07
:10557000902FDF91CF911F910F910895FA01AA27E3
:10558000283051F1203181F1E8946F936E7F6E5F86
:105590007F4F8F4F9F4FAF4FB1E03ED0B4E03CD034
:1055A000670F781F891F9A1FA11D680F791F8A1F17
:1055B000911DA11D6A0F711D811D911DA11D20D07E
:1055C00009F468943F912AE0269F11243019305D38
:1055D0003193DEF6CF010895462F4770405D419329
:1055E000B3E00FD0C9F7F6CF462F4F70405D4A3376
:1055F00018F0495D31FD4052419302D0A9F7EACF3E
:10560000B4E0A6959795879577956795BA95C9F76C
:1056100000976105710508959B01AC010A2E06945F
:105620005795479537952795BA95C9F7620F731F18
:10563000841F951FA01D08952F923F924F925F9255
:105640006F927F928F929F92AF92BF92CF92DF9292
:10565000EF92FF920F931F93CF93DF93CDB7DEB7F7
:10566000CA1BDB0B0FB6F894DEBF0FBECDBF09948B
:105670002A88398848885F846E847D848C849B84E2
:10568000AA84B984C884DF80EE80FD800C811B81F0
:10569000AA81B981CE0FD11D0FB6F894DEBF0FBE1F
:0A56A000CDBFED010895F894FFCF8F
:1056AA000000A705800000000000541042191910DC
:1056BA009B10961528103C1000000000C909990992
:1056CA00F9096D0991097D096E0900000000BD05FF
:1056DA004219F909F809BD189008890861087D0876
:1056EA00710891086008D31591035916AF16E11590
:1056FA001C19F2069306436C69636B206275747415
:10570A006F6E2025750A00496E69742E2E2E00527E
:10571A005443206973204E4F542072756E6E696E21
:10572A006721000D0A004D61722031372032303175
:10573A00380031393A31373A33310052756E0075D3
:10574A006E636C69636B2025750A00253032753AE1
:10575A002530327500555000444E00524144494F9D
:10576A0000494E203100494E20320053455400452D
:10577A005100564F4C005452454200424153530087
:10578A004C4F5544005341564500536574206D6F84
:10579A0064652066726F6D20257520746F202575EB
:0257AA000A00F3
:107E0000112484B714BE81FFF0D085E080938100F7
:107E100082E08093C00088E18093C10086E0809377
:107E2000C20080E18093C4008EE0C9D0259A86E02C
:107E300020E33CEF91E0309385002093840096BBD3
:107E4000B09BFECF1D9AA8958150A9F7CC24DD24C4
:107E500088248394B5E0AB2EA1E19A2EF3E0BF2EE7
:107E6000A2D0813461F49FD0082FAFD0023811F036
:107E7000013811F484E001C083E08DD089C08234E0
:107E800011F484E103C0853419F485E0A6D080C0E4
:107E9000853579F488D0E82EFF2485D0082F10E0AE
:107EA000102F00270E291F29000F111F8ED06801E7
:107EB0006FC0863521F484E090D080E0DECF843638
:107EC00009F040C070D06FD0082F6DD080E0C81688
:107ED00080E7D80618F4F601B7BEE895C0E0D1E017
:107EE00062D089930C17E1F7F0E0CF16F0E7DF06D8
:107EF00018F0F601B7BEE89568D007B600FCFDCFD4
:107F0000A601A0E0B1E02C9130E011968C91119780
:107F100090E0982F8827822B932B1296FA010C0160
:107F200087BEE89511244E5F5F4FF1E0A038BF0790
:107F300051F7F601A7BEE89507B600FCFDCF97BE46
:107F4000E89526C08437B1F42ED02DD0F82E2BD052
:107F50003CD0F601EF2C8F010F5F1F4F84911BD097
:107F6000EA94F801C1F70894C11CD11CFA94CF0C13
:107F7000D11C0EC0853739F428D08EE10CD085E9AC
:107F80000AD08FE07ACF813511F488E018D01DD067
:107F900080E101D065CF982F8091C00085FFFCCF94
:107FA0009093C60008958091C00087FFFCCF809118
:107FB000C00084FD01C0A8958091C6000895E0E648
:107FC000F0E098E1908380830895EDDF803219F02E
:107FD00088E0F5DFFFCF84E1DECF1F93182FE3DFCA
:107FE0001150E9F7F2DF1F91089580E0E8DFEE27F6
:047FF000FF270994CA
:027FFE00040479
:0400000300007E007B
:00000001FF